:100000000C945F020C947E020C947E020C947E028F
:100010000C947E020C947E020C947E020C947E0260
:100020000C947E020C947E020C94311F0C940720D9
:100030000C944B160C947E020C947E020C947E025F
:100040000C947E020C947E020C947E020C947E0230
:100050000C947E020C94B3160C947E020C947E02D7
:100060000C947E020C947E020C947E020C947E0210
:100070000C947E020C947E020C947E020C947E0200
:100080000C947E020C947E020C947E020C947E02F0
:100090000C947E020C947E02390C390C6B0C6B0CA8
:1000A000B20CD20C320E320E140DB10DC20DC20DB7
:1000B000220E320E320E2B0EB40EB40EC60EC60E2B
:1000C000BD0EC60EC60EC60EB40EB40EC20EC60EC1
:1000D000C60EC20E78209F2091219F209121EB20F7
:1000E0000E219121642173213500E000E100E70039
:1000F0000000000000001E00140004001D004A0063
:10010000000000001F001A0015001B004D00E20057
:1001100000002000090016000600E6004A002C003E
:100120002100130017001900000000002B422200DC
:100130000A00070005000151E200E00023000D0065
:100140000B000E0001512800E20024000F001100F6
:10015000100000002A0000002500180008003600EA
:10016000E600E4004B0026001C000C0037004E00A7
:100170000000E70027003300120038004B000000A9
:1001800000002D00E400E100E70000000000000096
:1001900029003C003F0042004500480000003A00B2
:1001A0003D00400043004600005C00003B003E0074
:1001B000410044004700C0000000010001000100B0
:1001C000010000000000000001001E0234003102A6
:1001D00001000000000001001F0234023100010094
:1001E00001000000010020022F02010001000100B7
:1001F00001000100210230020100000000000100A6
:10020000010022025700010001000100010001006D
:1002100023022D002D02010001000100AC00240288
:1002200026025100000001000000AE002502270256
:100230005200010001000100AB002D002F00500012
:100240000100000001000100350030004F000100F6
:10025000000000000100010001000100000000009A
:100260000000010001000100010001000100000088
:100270000100010001000100010001000000010077
:100280000100010001000100010000000100010067
:100290000100010000000000000001000100010059
:1002A0000100010000000000010001000100010048
:1002B0000100010000000100010001000100010037
:1002C0000100010001000100010001000000000028
:1002D00001000100A900AA00A8000100010001001E
:1002E0000100010001000100010001000100010006
:1002F000240021001E000000010000000100250074
:1003000022001F000100010001000100260023005F
:100310002000010000000100010001002700010091
:1003200001000000000001000100010001000000C8
:1003300000000000010001000100010001000100B7
:1003400000000100010001000100010001000000A7
:100350000100010001000100010001000000040390
:100360003000000038034B0069006E006500730028
:1003700069007300200041006400760061006E0097
:1003800074006100670065002F0043006F006E007D
:1003900074006F00750072006500640000000803BF
:1003A00059006F00750000000403090409023B00B6
:1003B000020100A0FA090400000103010100092163
:1003C000110100012240000705810308000A090409
:1003D0000100010300000009211101000122850034
:1003E0000705820320000A1201100100000008ED39
:1003F000FE606002000102030105010902A10185FE
:10040000020901A100050919012905150025019519
:100410000575018102950175038101050109300906
:10042000311581257F9502750881060938158125CA
:100430007F950175088106050C0A38021581257F14
:10044000950175088106C0C005010980A1018503D9
:100450001A81002A830016010026030095017510F9
:100460008100C0050C0901A10185041A01002A9C24
:1004700002160100269C02950175108100C005013D
:100480000906A101050719E029E7150025019508CE
:10049000750181029501750881010507190029FF81
:1004A000150026FF00950675088100050819012929
:1004B00005950575019102950175039101C01124FF
:1004C0001FBECFEFD0E2DEBFCDBF11E0A0E0B1E0B4
:1004D000E4E7F4E400E00BBF02C007900D92AA32FB
:1004E000B107D9F722E0AAE2B1E001C01D92A5321E
:1004F000B207E1F70E94561C0C9438220C940000BD
:10050000E82FF0E0E65DFE4F808108950895AAE1AE
:10051000B1E041E050E02FE02A0F8D91E82FE29505
:10052000EF70F0E031A18F70BA0102C0660F771F43
:100530008A95E2F7CB01962F9095932391A392A1F0
:10054000892B82A32A13E9CFA3E1B1E041E050E077
:1005500027E02A0F8D91E82FE295EF70F0E031A1AE
:100560008F70BA0102C0660F771F8A95E2F7CB0140
:10057000962F9095932391A392A1892B82A32A135E
:10058000E9CFAAE2B1E0E9E3F1E08FE08E0F11924A
:100590001D928E13FCCF8FE00E942B080C94B403A5
:1005A0006F927F928F929F92AF92BF92CF92DF9283
:1005B000EF92FF920F931F93CF93DF936AE171E065
:1005C000A9E3B1E0712C01E010E0DFE06D2E6A0ECE
:1005D0007D019C901C92EB018991BE01E82FE29570
:1005E000EF70F0E091A18F70A80101C0440F8A95CF
:1005F000EAF7892F842B81A392A1842F80959823D9
:1006000092A3D0EADA95F1F7C3E1CC2EC1E0DC2E5B
:1006100020E030E0E60199916E01A92EA2945FE0FE
:10062000A522B12CE501A8A08C90B12C9F7002C02E
:10063000B594A7949A95E2F7A0FC07C0902F022EDC
:1006400001C0990F0A94EAF701C090E098299C93A1
:100650002F5F3F4F27303105E9F691A1892381A310
:1006600082A1482B42A3119681E0F7019081991253
:1006700001C080E0782A6A12ABCF272D4FE06AE2F2
:1006800071E089E391E00E942C080E94BC03872D51
:10069000DF91CF911F910F91FF90EF90DF90CF905E
:1006A000BF90AF909F908F907F906F900895809AA9
:1006B000819A829A839A0C9476030C9477030C9413
:1006C000780383FF02C0889801C0889A82FF02C025
:1006D000899801C0899A80FF02C08A9801C08A9ACD
:1006E00081FF02C08B9808958B9A0895089508950C
:1006F00081E0089581E008951F93CF93DF9300D0A8
:1007000000D01F92CDB7DEB749835A83209165018F
:1007100089819A81211112C0662349F00E94D91360
:10072000182F682F89819A810E947E1303C00E942E
:10073000AD13182F69817A81812F04C00E94D913CB
:1007400069817A810F900F900F900F900F90DF9139
:10075000CF911F910C948505FC01408151816281EC
:10076000738184810C947C030E940915811102C05D
:100770000E94B3150C9457030C945D030C94610311
:1007800008950E94A40E0E94C0032FEF84E39CE012
:10079000215080409040E1F700C000000C94D91631
:1007A0000F931F93CF93DF938C010E94AC03EC0156
:1007B000B8010E945F03882309F49DC1B801CE01EE
:1007C0000E94CF08882309F496C1C631FCE5DF07F3
:1007D00039F50E945914282FF801828140910001B7
:1007E00050910101882379F02A7A91E009F490E090
:1007F00090934801911102C069E201C065E3CA010A
:100800000E94EC150AC080914801811102C069E282
:1008100001C065E3CA010E94EE150E94A5146BC1D8
:10082000C7318CE5D80708F03BC1C130ECE5DE07E5
:1008300071F4F8018281882309F45DC18091F90186
:10084000982F909590FB80F98093F90154C1C230A4
:10085000FCE5DF0708F413C1F8018281882309F45D
:1008600011C10E940915811102C00E94B3150E9496
:1008700026159093170280931602C031FCE5DF071E
:1008800009F4BFC008F03FC0C830ECE5DE0709F44A
:1008900096C0F0F4C4308CE5D80709F483C068F43E
:1008A000C230FCE5DF0709F473C0C330DC4509F052
:1008B000DDC080911602826072C0C630ECE5DE07B2
:1008C00009F46AC008F077C080911602886067C09A
:1008D000CC308CE5D80709F481C058F4CA30FCE567
:1008E000DF0709F470C008F075C0809116028068B7
:1008F00056C0CE30ECE5DE0709F474C008F07DC0C8
:100900008091160289C0CB3F8CE5D80709F44DC011
:1009100008F5C331FCE5DF0709F47BC068F4C13199
:10092000ECE5DE0709F471C0C231DC4509F09EC078
:10093000809116028F7733C0C5318CE5D80709F452
:1009400072C008F486C0CA3FDC4509F08FC08091B0
:1009500017023EC0CF3F8CE5D80709F45FC058F4BA
:10096000CD3FFCE5DF0709F444C008F43FC08091A7
:10097000170282602DC0C130EDE5DE0709F473C0B7
:1009800008F45DC0C230DD4509F070C080E06CC085
:1009900080911602816003C080911602806180936D
:1009A000160264C08091160211C080911702826005
:1009B000809317025BC0809116028062F0CF809115
:1009C00016028064ECCF8091160288608460E7CFC5
:1009D0008160EECF809116028E7FE1CF809116026A
:1009E0008D7FDDCF80911602877FD9CF809117024E
:1009F00018C0809117028D7FDBCF809116028F7E09
:100A0000CECF809116028F7DCACF809116028F7B48
:100A1000C6CF80911602877F8B7FC1CF809117024E
:100A20008D7F8E7FC5CF8091160282FB222720F911
:100A300091E0922790FB82F990FB83F9B0CF8091EF
:100A40001702982F909591708E7F892B90FB81F9DA
:100A5000AFCF8091160287FB222720F991E09227E1
:100A600090FB87F99CCF81E00E94B515809116021A
:100A7000909117020E9437150E94A40E3CC0C11528
:100A8000DC4539F0C801DF91CF911F910F910C9493
:100A90007A03F8018281882371F10E94C1032BC07F
:100AA000CE3DECE5DE0739F4F8018281882319F1A7
:100AB0000E94B31520C0CF3DFCE5DF07A8F4CC3D74
:100AC0008CE5D80731F4F80182818823A1F080E019
:100AD00008C0CD3DDC45B1F6F8018281882359F08C
:100AE00082E00E94F51C07C0CE018A5F9C450997F1
:100AF00008F4B2CEC7CF80E0DF91CF911F910F9164
:100B0000089580E090E00895089597E0799FF001BE
:100B1000112499E6899FE00DF11D1124E60FF11DC6
:100B2000EE0FFF1FE851FF4F859194910895880FB4
:100B3000991FFC01E25AFC4F859194910895CF933F
:100B4000DF930E9485050E945407EC01811520E582
:100B50009207F0F5811530E4930708F024C1883E30
:100B6000910500F5803E910508F09AC1883A9105FB
:100B700070F4853A910508F09FC08130910509F421
:100B80008FC108F440C1049708F08AC13CC18F3B73
:100B9000910508F49CC0803C910508F434C1805C48
:100BA0009109F4C0811540E2940758F4C11581E021
:100BB000D80708F075C1C03FD10508F424C1D0653D
:100BC0006FC1811520E3920708F0E4C09F70DEC07A
:100BD000811535E5930708F044C0811544E5940775
:100BE00008F0F8C0C11582E5D80708F5C11521E560
:100BF000D20708F0DBC08C2F837021E030E002C008
:100C0000220F331F8A95E2F73C68CE0174E0969577
:100C100087957A95E1F78370382BCF70C695C69586
:100C200080E2C89FE0011124C22BD32B39C12C2FA5
:100C300026952695CE0183709927C115D34508F0D6
:100C4000BAC040E2249F90011124C1E0D0E002C06C
:100C5000CC0FDD1F8A95E2F72C2B3D2BE901DC68D8
:100C60001FC1811549E59407A0F4C11588E5D8078F
:100C700008F0B5C0C11526E5D20708F0C4C08C2F16
:100C80000E94E8078F71C82FD0E0DC2FCC27D062FC
:100C900007C181153AE5930708F4A6C0905681155F
:100CA000904208F0B0C08D2F8F710E94E807DD27B9
:100CB000D0628F71D82BF4C0853A910509F4A6C093
:100CC000863A910509F0A5C0C2E8D0E4E9C0883AA7
:100CD000910509F4A1C0893A910509F4A0C08A3AA6
:100CE000910509F49FC08B3A910509F49EC08C3A96
:100CF000910509F49DC08B3B910509F49CC08C3B88
:100D0000910509F49BC08D3A910509F49AC0803B86
:100D1000910509F499C08E3A910509F498C08F3A6B
:100D2000910509F497C0813B910509F496C0823B77
:100D3000910509F495C0833B910509F494C0843B67
:100D4000910509F493C0853B910509F492C0863B57
:100D5000910509F491C0873B910509F490C0883B47
:100D6000910509F48FC0893B910509F48EC08D3B34
:100D7000910509F48DC08E3B910509F48CC08A3B26
:100D8000910509F48BC0C0E0D4E48AC00E949705A5
:100D9000EC0186C09927D3FF03C0EC01D86C80C05A
:100DA000EC01D06C7DC0DF70D06A7AC0DC2FCC271C
:100DB000C16FD06A75C040E2249F90011124C1E048
:100DC000D0E002C0CC0FDD1F8A95E2F7C22BD32BF7
:100DD000DA6866C0D82FCC27C46FD06A61C0DC2F18
:100DE000CC27C06FD06A5CC08F700E94E80794E087
:100DF000D695C7959A95E1F7CF70D0E0DC2FCC2738
:100E0000D069C82B4DC0C0E0D0E04AC0C1E8D0E4F2
:100E100047C0C3E8D0E444C0C2EED4E441C0C9EE48
:100E2000D4E43EC0CAEED4E43BC0C5EBD4E438C041
:100E3000C6EBD4E435C0C3EBD4E432C0C4EBD4E495
:100E40002FC0C7EBD4E42CC0CCECD4E429C0CDEC4B
:100E5000D4E426C0C3E8D5E423C0CAE8D5E420C062
:100E6000C2E9D5E41DC0C4E9D5E41AC0C1E2D6E4A4
:100E700017C0C3E2D6E414C0C4E2D6E411C0C5E290
:100E8000D6E40EC0C6E2D6E40BC0C7E2D6E408C082
:100E9000CFE6D4E405C0C0E7D4E402C0CAE2D6E499
:100EA000CE01DF91CF9108958238910569F1B0F4B8
:100EB0008133910509F46DC048F48932910509F434
:100EC00063C08A32910509F469C00895853391059C
:100ED00009F455C089339105B9F00895833E910511
:100EE00069F138F4803E9105B1F0823E910509F137
:100EF0000895863E9105A9F1873E9105B9F1843E9A
:100F0000910509F064C023C02091160220FD4FC056
:100F100021FD4DC008958091160280FD44C080914E
:100F2000170280FF44C08091160284FD42C083EE08
:100F30004DC08091160282FF38C0F5CF8091160215
:100F400082FD33C08091170280FD31C0ECCF8091CB
:100F5000170281FF32C08091160284FD2AC087EEFD
:100F600035C08091160283FF26C0F5CF809116020E
:100F700083FD21C08091170281FD1FC0ECCF8091BD
:100F8000160285FD1CC01DC08091160285FD19C08A
:100F900016C08091160286FD16C017C080911602F9
:100FA00086FD13C010C089E311C082EE0FC080EE31
:100FB0000DC080E00BC086EE09C084EE07C089E258
:100FC00005C085E303C08AE201C081E390E0089593
:100FD0009091160292FF0DC0282F2871283019F425
:100FE000877F846006C0282F2471243011F48B7F02
:100FF000886093FF0DC0282F2871283119F4877E4F
:10100000846106C0282F2471243111F48B7E8861FD
:101010002091170220FF0DC0382F3871383019F495
:10102000877F816006C0382F3171313011F48E7F97
:10103000886021FF0DC0282F2871283119F4877E80
:10104000816106C0282F2171213111F48E7E8861C3
:1010500094FD877E08950895FF920F931F93CF9379
:10106000DF938C01F62ED72FC42F222349F081E085
:1010700080934B010E947D1690934A018093490111
:1010800080914B018823C1F08091490190914A01E0
:101090000E948916069780F0EF2DFD2FD8014C2F66
:1010A00050E0CD01801B910B841795071CF48D91A6
:1010B0008193F7CF10924B01DF91CF911F910F9148
:1010C000FF9008950F931F93CF93DF93C62FD42FD4
:1010D000022FFC0182818823C9F060934E010E9497
:1010E0007D1690934D0180934C0180E28C0F8830E7
:1010F00008F050C0C77081E001C0880FCA95EAF7B8
:10110000DF91CF911F910F910C94F90B10914E012B
:10111000161330C080914C0190914D010E948916A8
:10112000883C910538F5C0E2CD0F1D17B9F080E27B
:10113000810F883040F4177081E001C0880F1A9544
:10114000EAF70E94000CC83048F481E09D2F9770A8
:1011500001C0880F9A95EAF70E94F90B802F0E9430
:10116000E60BC830B8F4D77081E001C0880FDA957B
:10117000EAF70AC080E28C0F883060F4C77081E023
:1011800001C0880FCA95EAF7DF91CF911F910F91A7
:101190000C94000CDF91CF911F910F9108959C0149
:1011A000CB01233F4CE53407F9F078F4283DFCE50A
:1011B0003F07B9F0293D4CE5340711F1273D3C4587
:1011C00031F526E241EE61EE1EC0253FFCE53F070A
:1011D00099F070F0263F3C45D1F427E245EE66EEEB
:1011E00012C027E245EE0EC026E241EE60EE0BC0D3
:1011F00027E245EE64EE07C026E241EE62EE03C050
:1012000028E241E065EE0E94620880E00895FC015A
:101210008281882319F010924E01089581E008958B
:1012200090935401809353010895E0915301F091FC
:101230005401309721F00190F081E02D099480E075
:101240000895E0915301F0915401309721F002800C
:10125000F381E02D09940895E0915301F091540138
:10126000309739F022E0DC012C930480F581E02DE9
:1012700009940895209151013091520182179307EA
:1012800071F09093520180935101E0915301F091DC
:101290005401309721F00680F781E02D09940895DC
:1012A00020914F01309150018217930771F0909374
:1012B000500180934F01E0915301F0915401309718
:1012C00021F00084F185E02D0994089585B78068A8
:1012D00085BF85B7806885BF0895089508950C94EB
:1012E0006E0908950C9471090E9466090E946D09A7
:1012F0000C946F0981E008950E9474160E94870281
:101300000E944F170C947209CF92DF92EF92FF92D6
:101310000F931F93CF93DF93CDB7DEB72B970FB605
:10132000F894DEBF0FBECDBF0E94D0020E947A09A2
:10133000811111C08FEF89838A831B820E947D16E1
:101340008160782F9D838C8349815A816B818D8147
:101350000E942C0A56C086E5C82E81E0D82E00E0F7
:1013600010E0E02E802F0E948002F60141916F0173
:10137000F42EF82631F40F5F1F4F0F30110589F757
:10138000D9CF9091F90191FF04C08B870E9486020A
:101390008B8520E030E04F2D50E0922FBA01022ED5
:1013A00002C0759567950A94E2F760FF24C02E830A
:1013B000EF8221E030E0690102C0CC0CDD1C9A957F
:1013C000E2F790E08C219D21892B09F420E0288709
:1013D0000E947D168160782F9A8789874E815F8170
:1013E00068858A850E942C0AF801EA5AFE4F80819E
:1013F000C826C08206C02F5F3F4F2730310569F6EF
:10140000BACF0E94031A109155010E9415091817AE
:10141000A1F00E941509809355012B960FB6F89400
:10142000DEBF0FBECDBFDF91CF911F910F91FF9017
:10143000EF90DF90CF900C94BE032B960FB6F894EC
:10144000DEBF0FBECDBFDF91CF911F910F91FF90F7
:10145000EF90DF90CF900895CF93DF93CDB7DEB7B5
:101460002B970FB6F894DEBF0FBECDBF4F835887C2
:1014700069877A878B87DE01119686E0FD011192DC
:101480008A95E9F785E0FE01379601900D928A95DD
:10149000E1F749815A816B817C818D819E810E9417
:1014A0004E112B960FB6F894DEBF0FBECDBFDF9165
:1014B000CF910895FC01808191810E941A140895B2
:1014C000882309F41AC18238C1F40E94150981FDEC
:1014D00014C169E380910001909101010E94EC1513
:1014E0000E94A5142FEF81EE94E02150804090409F
:1014F000E1F700C0000069E319C08338F9F40E94E5
:10150000150980FDFAC063E5809100019091010109
:101510000E94EC150E94A5142FEF81EE94E021505B
:1015200080409040E1F700C0000063E58091000139
:10153000909101010E94EE150C94A5148438C1F419
:101540000E94150982FDD9C067E480910001909145
:1015500001010E94EC150E94A5142FEF81EE94E08A
:10156000215080409040E1F700C0000067E4DECFEA
:101570009CEF980F913A40F4682F80910001909170
:1015800001010E94EC15D8CF90E2980F983050F4EA
:10159000877091E001C0990F8A95EAF7892F0E9420
:1015A0005C14CACF9BE5980F933070F4853A29F00C
:1015B000863A31F083E890E005C081E890E002C00F
:1015C00082E890E00C943A0998E5980F973108F07A
:1015D0008EC0883A09F445C0893A09F445C08A3A70
:1015E00009F445C08B3A09F445C08C3A09F445C06A
:1015F0008B3B09F445C08C3B09F445C08D3A09F496
:1016000045C0803B09F445C08E3A09F445C08F3A85
:1016100009F445C0813B09F445C0823B09F445C04B
:10162000833B09F445C0843B09F445C0853B09F47C
:1016300045C0863B09F445C0873B09F445C0883B5B
:1016400009F445C0893B09F445C08D3B09F445C008
:101650008E3B09F445C08A3B09F445C080E090E028
:1016600044C082EE90E041C089EE90E03EC08AEE38
:1016700090E03BC085EB90E038C086EB90E035C051
:1016800083EB90E032C084EB90E02FC087EB90E0DA
:101690002CC08CEC90E029C08DEC90E026C083E853
:1016A00091E023C08AE891E020C082E991E01DC06A
:1016B00084E991E01AC081E292E017C083E292E0EF
:1016C00014C084E292E011C085E292E00EC086E28E
:1016D00092E00BC087E292E008C08FE690E005C080
:1016E00080E790E002C08AE292E00C945009803FCB
:1016F00020F00E940B190C94F8190895882309F41E
:1017000064C0823879F40E94150981FF5EC069E3E4
:1017100080910001909101010E94EC150E94A51496
:1017200069E310C08338B1F40E94150980FF4DC0F1
:1017300063E580910001909101010E94EC150E94E7
:10174000A51463E580910001909101010E94EE15BE
:101750000C94A514843879F40E94150982FF35C0D1
:1017600067E480910001909101010E94EC150E94B4
:10177000A51467E4E7CF9CEF980F913A10F4682F17
:10178000E1CF90E2980F983050F4877091E001C05B
:10179000990F8A95EAF7892F0E946214D9CF9BE5A9
:1017A000980F933020F480E090E00C943A0998E58B
:1017B000980F973120F480E090E00C945009803F1E
:1017C00020F00E9473190C94F8190895CF93C82F34
:1017D0000E94600AC93349F42FEF87EE93E021504D
:1017E00080409040E1F700C000008C2FCF910C9416
:1017F0007E0B882321F00E945C140C94A51408959C
:10180000882321F00E9462140C94A5140895BF92BD
:10181000CF92DF92EF92FF920F931F93CF93DF93BC
:101820007C01062FC72FFC01158112951F70D281F4
:10183000D1110E9479140E945214882379F0DD237B
:1018400069F080E2800F883048F082E00E94F01456
:101850000E94521491E0B82EB92601C0B12CCC2EB2
:10186000C2948FE0C822D12CF601E45BFF4F0C94A8
:10187000D9218C2F807FCF70882311F0C295C07F33
:10188000DD2399F0CC2309F4C8C180E2800F8830B1
:1018900010F0011104C08C2F0E945C1403C08C2F27
:1018A0000E946C140E94A514B8C1802F0E947E0B68
:1018B000CC2309F4D7C180E2800F883010F00111E9
:1018C00004C08C2F0E94621403C08C2F0E947214DB
:1018D0000E94A514C7C18C2F807FCF70803211F079
:1018E000C295C07F002319F00130C9F022C0DD236A
:1018F00071F0112341F0113031F40E948C148C2BC3
:101900000E949214AFC10E948C148C2B17C011231B
:1019100019F0113009F4A6C10E949B141FC0DD23E9
:1019200021F0163008F09EC108C0153008F09AC1A9
:1019300015C0DD2331F0111170C18C2F0E94F90BFD
:1019400091C1112359F0093309F078C1FFEF27EE57
:1019500083E0F15020408040E1F76EC18C2F0E945F
:10196000000C80C18C2F86958695837090E000973F
:1019700019F0019761F076C1DD2321F0802F9C2FB3
:10198000937002C080E090E00E943A0976C1DD23A6
:1019900021F0802F9C2F937002C080E090E00E9485
:1019A00050096BC1DD23F9F0053F51F0063F71F09E
:1019B000043FA9F4809110029091110281600BC044
:1019C0008091100290911102826005C080911002F6
:1019D0009091110284609093110280931002802FE5
:1019E0000E940B191EC0053F51F0063F71F0043FE5
:1019F000A9F480911002909111028E7F0BC080910A
:101A00001002909111028D7F05C08091100290917B
:101A100011028B7F9093110280931002802F0E94FD
:101A200073190E94F81929C18C2F837009F049C0DD
:101A3000D1111FC1402F429546954770440F440F66
:101A4000602F6F70862F90E0A0E0B0E0042E04C0FD
:101A5000880F991FAA1FBB1F0A94D2F704FF10C05A
:101A60000FE010E020E030E004C0000F111F221F43
:101A7000331F4A95D2F7009510952095309503C0F5
:101A800000E010E09801C695C695C370D0E0BC0197
:101A9000CD01602B712B822B932BC230D10559F0D5
:101AA000C330D10559F0219719F00E949312E1C07B
:101AB0000E948112DEC00E94A512DBC00E947F122C
:101AC000D8C0DD2319F08C2F817001C08695882342
:101AD00009F4CFC0402F429546954770440F440FFC
:101AE000602F6F70862F90E0A0E0B0E0042E04C05D
:101AF000880F991FAA1FBB1F0A94D2F704FF10C0BA
:101B00000FE010E020E030E004C0000F111F221FA2
:101B1000331F4A95D2F7009510952095309503C054
:101B200000E010E09801C695C695C370D0E0BC01F6
:101B3000CD01602B712B822B932BC230D10559F034
:101B4000C330D10559F0219719F00E94591391C063
:101B50000E9447138EC00E946B138BC00E94BA1262
:101B600088C0CF70DD2339F08C2F0E94E012802FC7
:101B70000E94F90B7EC0802F0E94000C8C2F0E94C7
:101B8000011377C0023F01F128F4003F41F0013F0B
:101B9000A1F03FC0033FF9F0043F39F13AC0DD2323
:101BA00041F0153008F05EC08C2F8F710E94261313
:101BB00059C0163008F056C0F7CFDD2339F08C2F0E
:101BC0008F710E94E0124EC0DD23C9F38C2F8F71FC
:101BD0000E94011347C0DD2329F08C2F8F710E94D2
:101BE000CB1240C00E94C6123DC0DD2349F0CF7128
:101BF0008C2F0E94E01263E08C2F0E94DB1432C015
:101C000081E00E94F014123068F182E00E94F0142A
:101C100029C0DD2331F0112391F2802F0E94600A48
:101C200021C0112399F2093349F49FEFE7EEF3E065
:101C30009150E040F040E1F700C00000802F0E948A
:101C40007E0B10C04C2F4F70602FC7010E94810582
:101C50000E94F21112C04C2F4F70602FC7010E94DA
:101C600084050BC028E0C21AD10884E0C816D1044C
:101C700020F40E9415090E94BE03BB20D1F00E94EF
:101C80004E1480FD16C0F70112820E9448140E9473
:101C9000E012C7010E94630E0E944814DF91CF91A9
:101CA0001F910F91FF90EF90DF90CF90BF900C9419
:101CB0000113DF91CF911F910F91FF90EF90DF9073
:101CC000CF90BF9008950F931F93CF93DF93EC01B4
:101CD000888199812B813C81232BB9F09F3F11F49E
:101CE0008F3F99F0CE010E94D003882371F0688164
:101CF00079818A810E9425148C010E947D130E94A3
:101D00007E12B801CE010E94070CDF91CF911F9186
:101D10000F9108950E9479140E9489140E94A514BD
:101D20000E949E1A0E94F81980E090E00E943A09F1
:101D300080E090E00C9450098091000190910101A5
:101D40000E94F0150C948A0E0E9469140C949C0E4B
:101D5000E92FE295EF70F0E03297EE30F105B0F444
:101D6000E45AFF4F0C94D921803F91F018F4883E3B
:101D700068F40EC0843F51F40BC0883E48F0813FA8
:101D800029F406C093FB882780F9089580E0089520
:101D900081E008950E941A140E94A80E0895CF931E
:101DA000DF9300D000D01F92CDB7DEB70F900F9019
:101DB0000F900F900F90DF91CF910895CF93DF9305
:101DC00000D000D000D0CDB7DEB726960FB6F8947D
:101DD000DEBF0FBECDBFDF91CF9108951F93CF938C
:101DE000DF93C091660116E080916701C81799F0F2
:101DF000D0E01C9FF0011D9FF00D1124E859FE4F0B
:101E00004081518162817381848195810E94DE0EBF
:101E10002196C770E9CFDF91CF911F91089540912E
:101E200098015091990160919A0170919B01809164
:101E30009C0190919D010C94DE0E80919D018295F4
:101E40008F7009F054C080919A01882309F44FC023
:101E500080916601A091670160919801709199014C
:101E600040919B0150919C01B6E08A1709F43FC054
:101E700090E041155105C1F17F3F11F46F3FA1F191
:101E8000B89FF001B99FF00D1124E859FE4F218150
:101E900072132AC02081621327C02281211124C01D
:101EA000238134812417350710F421503109241B74
:101EB000350B283C3105C0F420919D012F70206125
:101EC00020939D0126E0289FF001299FF00D112409
:101ED000E359FE4F80818F708061808388E991E0B3
:101EE0000E94630E0C94EE0E01968770BECF08958B
:101EF000CF92DF92EF92FF920F931F93CF93DF93D6
:101F0000CDB7DEB762970FB6F894DEBF0FBECDBF78
:101F10008C0185E0F801DE011D9601900D928A95F5
:101F2000E1F7D8014C9111965C91119712966C9142
:101F300012971396CD90DC90149730919801709180
:101F4000990180919B0190919C01009709F46BC1CC
:101F50007F3F19F43F3F09F466C1E0909A01EE20FB
:101F600009F4C0C020919D01C816D90628F0F601D9
:101F7000E81BF90BCF0104C0809590958C0D9D1D39
:101F8000FF24F394883C910578F0F12C207F09F030
:101F9000C6C07C2DD98AC88A89890E94CF0E88E95B
:101FA00091E00E94630EB1C0822F807F09F046C08D
:101FB000751314C0341312C0611110C02F7020614A
:101FC00020939D010E940F0F88E991E00E94630E0B
:101FD00080919D01D80115968C932EC0CD2819F1C2
:101FE0005F3F11F44F3FF9F0F62E61111CC0809154
:101FF00066012091670136E0821709F45AC090E02B
:10200000389FF001399FF00D1124E859FE4F71817E
:10201000571306C07081471303C07281711103C04A
:1020200001968770E9CFF62E662309F427C18091C7
:102030009D01816080939D01F12C20C1751308C022
:10204000341306C0611104C080919D01D801C3C042
:102050004D875E878D859E856A8B0E94CA0E6A8930
:102060008823E1F16623D1F120919D01822F829591
:102070008F7090E0029774F080919801909199018F
:1020800098878F831986DB86CA862C87CE010796B0
:102090000E94630E86E0F801A8E9B1E001900D927C
:1020A0008A95E1F70E941D0F0E940F0FFF24F39401
:1020B000E5C04D875E878D859E850E941A14292F65
:1020C00022952F7030E0223031050CF0CBC09F708C
:1020D00009F0C5C0805E883008F4D0C0C8010E94F5
:1020E000630EE4CFC816D90608F453C0F601E81B06
:1020F000F90BCF01883C910508F450C0F12C7C2DE0
:10210000D98AC88A89890E94CF0EE8E9F1E086E081
:10211000DF011D928A95E9F70E940F0FAFC075137A
:1021200014C0341312C0611110C080919D01F801D8
:102130008583C8010E94630E86E0E8E9F1E0DF01D3
:102140001D928A95E9F7FE2C99C04D875E878D8593
:102150009E856A8B0E94CA0E6A89882309F4BECFC5
:10216000662309F4BBCF20919D01822F82958F7049
:1021700090E002970CF48ECF809198019091990194
:102180009A8389831B82DD82CC822E83CE010196C5
:102190007FCF809590958C0D9D1DACCFF62E66233C
:1021A00009F49CCF75132EC034132CC020919D01CF
:1021B00020FD1FC0822F82958F70D9F0D80115960F
:1021C0002C9315978F3049F08F5F982F9295907FC1
:1021D000822F8F70892B15968C93C8010E94630EF5
:1021E00086E0F801A8E9B1E001900D928A95E1F747
:1021F00093CF86E0F801A8E9B1E001900D928A95AD
:10220000E1F73CC04D875E878D859E850E94CA0E92
:10221000811140CF80919D01816080939D01C80113
:102220000E94630E2BC0662309F458CF4D875E874A
:102230008D859E850E94CA0EF82E882309F44ECF04
:1022400086E0F801A8E9B1E001900D928A95E1F7E6
:1022500088E991E00E945A0A0E941D0F5DCF81110A
:1022600039CF0CC0243031050CF038CF9F7009F401
:1022700031CFF8019581907F09F02CCF8F2D629698
:102280000FB6F894DEBF0FBECDBFDF91CF911F9187
:102290000F91FF90EF90DF90CF9008951F93CF9311
:1022A000DF93CDB7DEB72C970FB6F894DEBF0FBE25
:1022B000CDBF4F83588769877A878B879C87CE01EC
:1022C00007960E94780F882369F08F8198852A8568
:1022D0003B85232BF1F19F3F09F063C08F3F09F04D
:1022E00060C037C086E0FE013796DE01119601908E
:1022F0000D928A95E1F76F817885EA85FB853097A5
:1023000041F17F3F11F46F3F21F12091670130E0EF
:10231000C9010196877099274091660150E08417A2
:10232000950709F447C069837A83FD83EC8396E0BF
:10233000929FD001939FB00D1124A859BE4FFE016A
:10234000319601900D929A95E1F7809367010E9472
:10235000EE0E16E080916601909167018917C1F138
:10236000189FC001112488599E4F0E94780F88231E
:1023700079F1E09166011E9FF0011124E859FE4FAA
:102380004081518162817381848195810E94DE0E3A
:102390008091660190E0019687709927809366018D
:1023A000D9CF4F81588569857A858B859C850E9418
:1023B000DE0ECFCF0E94A40E10926701109266012C
:1023C000E8E9F1E086E0DF011D928A95E9F7C1CFE7
:1023D0002C960FB6F894DEBF0FBECDBFDF91CF9124
:1023E0001F910895EF92FF920F931F93CF93DF9366
:1023F0008C01892B09F46CC0F12CEE24E394E801E4
:102400002196F8018491843740F4843008F051C05B
:10241000813081F0823019F15BC0853709F444C006
:10242000A8F19CE7980F903708F052C08F770E9470
:102430007E0B41C00E5F1F4FFE01C49180E28C0FE6
:10244000883048F4C7708E2D01C0880FCA95EAF70E
:102450000E947C1414C08C2F0E94600A2DC00E5F55
:102460001F4FFE01C49180E28C0F883058F4C77072
:102470008E2D01C0880FCA95EAF70E9482140E942F
:10248000A5141AC08C2F0E947E0B16C00E5F1F4F22
:10249000FE01C491CC2381F08FE99FE00197F1F711
:1024A00000C00000C150F6CF0E5F1F4FFE01F49038
:1024B00003C00E94600A8E018F2D882309F49FCFEC
:1024C000EFE9FFE03197F1F700C000008150F5CF50
:1024D000DF91CF911F910F91FF90EF900895089594
:1024E0000C946F120E9470126093E8017093E901DE
:1024F0008093EA019093EB010C948A0E08950C945A
:1025000072120F931F930091E8011091E90120913D
:10251000EA013091EB01602B712B822B932B1F91E1
:102520000F910C9472120F931F930091E801109178
:10253000E9012091EA013091EB01602371238223AC
:1025400093231F910F910C9472120F931F9300917C
:10255000E8011091E9012091EA013091EB01602737
:102560007127822793271F910F910C94721208955F
:102570000C94B7120E94B8126093E4017093E501C5
:102580008093E6019093E7010C948A0E60E070E07E
:10259000CB010C94BA120F931F9341E050E060E01E
:1025A00070E08A019B0104C0000F111F221F331F1E
:1025B0008A95D2F7C901B8011F910F910C94BA12F4
:1025C0000F931F9341E050E060E070E004C0440FBF
:1025D000551F661F771F8A95D2F78091E40190916D
:1025E000E501A091E601B091E7018A019B01082B6A
:1025F000192B2A2B3B2BC901B8011F910F910C9469
:10260000BA120F931F9341E050E060E070E004C005
:10261000440F551F661F771F8A95D2F74095509536
:10262000609570958091E4019091E501A091E6019B
:10263000B091E7018A019B01082319232A233B2338
:10264000C901B8011F910F910C94BA120F931F93F7
:1026500041E050E060E070E004C0440F551F661F89
:10266000771F8A95D2F78091E4019091E501A091BE
:10267000E601B091E7018A019B01082719272A2763
:102680003B27C901B8011F910F910C94BA120F9307
:102690001F930091E4011091E5012091E601309132
:1026A000E701602B712B822B932B1F910F910C94C0
:1026B000BA120F931F930091E4011091E50120914C
:1026C000E6013091E70160237123822393231F9158
:1026D0000F910C94BA120F931F930091E401109183
:1026E000E5012091E6013091E701602771278227FB
:1026F00093271F910F910C94BA12089527E0929F8F
:10270000800D1124A82FA695A695A695877051E057
:1027100001C0550F8A95EAF785E0A89FD0011124E2
:1027200020E030E070E0F901EA0FFB1FE256FE4FB7
:102730004081CB01022E02C0969587950A94E2F75C
:1027400081709927819584278523842780832F5F33
:102750003F4F2530310539F7089527E0929F800DCE
:102760001124682F669566956695982F977085E079
:10277000689FB001112440E050E080E0FA01E60FCC
:10278000F71FE256FE4F208130E0092E02C0369539
:1027900027950A94E2F721703327042E01C0220FF7
:1027A0000A94EAF7822B4F5F5F4F4530510531F7AE
:1027B0000895BF92CF92DF92EF92FF920F931F93F3
:1027C000CF93DF938C01C090E801D090E901E090B5
:1027D000EA01F090EB018091E4019091E501A09174
:1027E000E601B091E701C82AD92AEA2AFB2ACFE1FB
:1027F000D0E0D701C6010C2E04C0B695A7959795D9
:1028000087950A94D2F780FF07C0BC2EB8018C2FA1
:102810000E949F05019719F4219758F7B12C8B2D31
:10282000DF91CF911F910F91FF90EF90DF90CF90AC
:10283000BF900895CF93DF93EC010E94D913BE019E
:102840000E949F05DF91CF9108951F93CF93DF934F
:10285000EB0190916501992321F0CB010E941A149C
:1028600013C0882349F0CB010E94D913182F682F79
:10287000CE010E947E1304C0CB010E94AD13182F1D
:10288000BE01812F0E949F05DF91CF911F91089576
:102890008091EC0185958595859508958091EC0151
:1028A000877008959091EC01977081E009F480E0C1
:1028B00008958091F80108959091F801892B8093F3
:1028C000F801089580959091F80189238093F8018B
:1028D00008951092F80108959091F701892B809343
:1028E000F701089580959091F70189238093F7016E
:1028F00008951092F70108959091F601892B809325
:10290000F601089580959091F60189238093F60150
:1029100008951092F60108958091ED0108950895AB
:102920000C948F149091ED01981721F08093ED0194
:102930000C94901408958091ED01882329F0109251
:10294000ED0180E00C9490140895E0910001F09165
:1029500001018091F8018083E0910001F091010173
:1029600090818091F701892B8083E0910001F091A3
:10297000010190818091F601892B80838091ED0186
:10298000882381F0E0910001F09101019081892B71
:10299000808380910001909101010E94BA158111FC
:1029A0000E949B1480910001909101010C942109D7
:1029B00008950C94D81498E0899F90011124262B37
:1029C0002093EC010E94E0128091EC0185958595A1
:1029D00085950C94D9141092EC0180E00C94D914D4
:1029E0002091EC01809582238093EC01982F9770C1
:1029F00079F430E0482F082E000C550B24173507CA
:102A000039F08595859585950E9401130C94EB14FA
:102A1000089580E090E00E94FE2121E08C3E9E4FD0
:102A200009F020E0822F089582E090E00C94F621D6
:102A3000682F82E090E00C94042283E090E00C94F4
:102A4000F621682F83E090E00C940422CF9384E079
:102A500090E00E94F621C82F81E290E00E94F621CA
:102A60002C2F30E0A901582BCA01CF910895CF93A4
:102A7000C92F682F84E090E00E9404226C2F81E22D
:102A800090E0CF910C940422AB01BC018FE090E068
:102A90000C941622AB01BC0183E190E00C94162249
:102AA00060E070E0CB010C944A1560E070E0CB016F
:102AB0000E9444150C9450156CEE7EEF80E090E07F
:102AC0000E94222260E082E090E00E94042260E006
:102AD00083E090E00E9404221092E8011092E90144
:102AE0001092EA011092EB0160E084E090E00E9415
:102AF000042260E081E290E00E94042260E085E030
:102B000090E00E94042260E086E090E00E940422AF
:102B10006FEF87E090E00E94042240E050E0BA01AD
:102B200088E090E00E94162260E08DE090E00E9434
:102B3000042240E050E0BA0188E190E00E941622B1
:102B400060E087E190E00E94042240E050E0BA019A
:102B50008CE190E00E94162260E080E290E00E940A
:102B600004220C9455150C945C15682F8EE090E0AF
:102B70000C940422FC01329697E080E0915029F0F9
:102B800021912223D9F38F5FF9CF08959C01FC0195
:102B900032969FEF80E04191461789F09F3F19F4EC
:102BA000411101C0982F8F5F8630A9F79F3F39F000
:102BB000F901E90FF11D97FDFA95628308950895D3
:102BC000FC01329608962081261301C010823196AE
:102BD000E817F907C1F708950C94C6150C94E01591
:102BE000029626E0FC0111922A95E9F708950895CE
:102BF0000C94F7150E94F81580911C02843049F15D
:102C00001092FA0120E488E190E00FB6F894A895BC
:102C1000809360000FBE2093600080E00E94BE039E
:102C20000E94F81583B7817F846083BF83B781607A
:102C300083BF7894889583B78E7F83BF0FB6F8944F
:102C4000A895809160008861809360001092600078
:102C50000FBE089508950895CF930E942A160E94EA
:102C6000D0020E942B16C0E08C2F0E94800281119E
:102C700004C0CF5FCF30C1F701C081E0CF9108958C
:102C800008950C9440160E94A40E0E9415090E94FB
:102C9000BE030C9441161F920F920FB60F9211248F
:102CA0008F939F93AF93BF938091FA01811113C0CB
:102CB0008091120290911302A0911402B09115021A
:102CC0004196A11DB11D8093120290931302A0930F
:102CD0001402B0931502BF91AF919F918F910F9005
:102CE0000FBE0F901F90189582E084BD93E095BDB4
:102CF0009AEF97BD80936E0008952FB7F894809156
:102D0000120290911302A0911402B09115022FBFEC
:102D10000895CF92DF92EF92FF920F931F932FB7F8
:102D2000F894409112025091130260911402709134
:102D300015022FBF6A017B01EE24FF248C0120E0E5
:102D400030E0C016D106E206F30610F441505109F6
:102D50009A01281B390BC9011F910F91FF90EF9029
:102D6000DF90CF90089578941F920F920FB60F9234
:102D700011248F939F93AF93BF93809112029091F0
:102D80001302A0911402B09115020196A11DB11D6C
:102D90008093120290931302A0931402B093150231
:102DA000BF91AF919F918F910F900FBE0F901F9089
:102DB0001895F89481E08093E00080E28093D80039
:102DC000E9ECF0E010828FE19EE40197F1F700C09A
:102DD00000001DBA109268001CBC10BE1FBA1092F1
:102DE0007A0010926E0010926F0010927000109294
:102DF000710010821092BC0011B814B817B81AB83C
:102E00001DB810BA12B815B818B81BB81EB811BA48
:102E10000C9400FE0895CF92DF92EF92FF920F93F1
:102E20001F93CF93C0E0E82EF12C8C2F0E948002DC
:102E300000E010E0C82ED12CC601002E02C09595EE
:102E400087950A94E2F780FD06C00F5F1F4F073099
:102E5000110591F70AC0602F7C2F80E00E94850544
:102E6000E816F90691F781E004C0CF5FCF30E9F6AC
:102E700080E0CF911F910F91FF90EF90DF90CF9066
:102E80000895CF93C82F8CE20E940B17882321F05E
:102E90008C2FCF910C940B1780E0CF910895CF9396
:102EA0000E940915811102C00E94B315C5E6C150E8
:102EB00049F00E94D0028FE39CE90197F1F700C02E
:102EC0000000F5CF89E20E944117811120C18AE2FA
:102ED0000E94411781110E94B31585E00E9441179D
:102EE00081110E94D9160E9414158093F90187E080
:102EF0000E9441178823A9F18BE10E944117882382
:102F000051F08091F90181FB222720F991E092276D
:102F100090FB81F90EC08EE00E944117882361F07A
:102F20008091F90182FB222720F991E0922790FB02
:102F300082F98093F90115C080E10E9441179091B8
:102F4000F901882341F093FB222720F981E08227B1
:102F500080FB93F904C0892F809580FB90F99093B2
:102F6000F9018091F9010E9418150E94261590938D
:102F700017028093160280EE0E944117882341F0C9
:102F800080911602982F909590FB80F980931602FD
:102F900089E30E944117882359F08091160281FB32
:102FA000222720F991E0922790FB81F98093160265
:102FB00082EE0E944117882359F08091160282FB0D
:102FC000222720F991E0922790FB82F98093160244
:102FD00086EE0E944117882359F08091160283FBE8
:102FE000222720F991E0922790FB83F98093160223
:102FF00083EE0E944117882359F08091160284FBCA
:10300000222720F991E0922790FB84F98093160201
:1030100085E30E944117882359F08091160285FBB1
:10302000222720F991E0922790FB85F980931602E0
:1030300081E30E944117882359F08091160286FB94
:10304000222720F991E0922790FB86F980931602BF
:1030500081E10E944117882359F08091160287FB75
:10306000222720F991E0922790FB87F9809316029E
:1030700080911602909117020E94371587E20E94F4
:103080004117C82F8EE10E9441178111C2608FE164
:103090000E9441178111C46080E20E944117811192
:1030A000C86081E20E9441178111C06182E20E94E2
:1030B00041178111C06283E20E9441178111C064EF
:1030C00084E20E944117882311F0C06802C0CC231B
:1030D00029F08C2F0E9421156C2F03C00E941D1512
:1030E000682F70E080E090E00E947F128FE00E94E5
:1030F0004117882319F081E00E94B51585E10E94EF
:103100004117882321F080E0CF910C94B515CF9121
:1031100008958091FE0180FF0BC06091050185E05C
:10312000689FB001112475956795759567952BC0BB
:1031300081FF09C06091050185E0689FB0011124FD
:103140007595679520C082FF07C06091050185E0F5
:10315000689FB001112417C09091FD019923D1F00F
:1031600060910401961788F72091050185E0289F5A
:1031700090011124929FA001939F500D112470E0A3
:10318000CA010E94C5216038710540F461157105BE
:1031900039F002C065E070E0862F08958FE708954A
:1031A00081E008958091FE0180FF08C060910301D5
:1031B00070E0759567957595679521C081FF06C08C
:1031C0006091030170E07595679519C082FF04C096
:1031D0006091030170E010C09091FD019923C1F04E
:1031E000609102019617A0F780910301899FC001A9
:1031F000112470E00E94C5216038710528F4611522
:10320000710521F0862F08958FE7089581E00895D4
:1032100061E070E0F4CF803F21F40E94891881952D
:1032200004C0813F29F40E94891880930202089506
:10323000823F21F40E948918819504C0833F29F4BC
:103240000E948918809301020895893F19F40E9411
:10325000D21805C08A3F31F40E94D218819580931C
:10326000030208958B3F21F40E94D218819504C077
:103270008C3F29F40E94D218809304020895843F61
:1032800021F480910002816017C0853F21F4809174
:103290000002826011C0863F21F4809100028460A8
:1032A0000BC0873F21F480910002886005C0883FF1
:1032B00031F48091000280618093000208958D3F77
:1032C00021F48091FE0181600BC08E3F21F480913A
:1032D000FE01826005C08F3F29F48091FE01846069
:1032E0008093FE010895803F39F48091020287FFA8
:1032F0006CC01092020269C0813F29F480910202E1
:103300001816BCF362C090910102823F29F497FF26
:103310005CC01092010259C0833F19F41916CCF316
:1033200054C0893F41F48091030218160CF04DC03F
:10333000109203024AC08A3F29F48091030287FF5A
:1033400044C0F6CF8B3F39F48091040287FF3DC023
:10335000109204023AC08C3F29F48091040218169E
:10336000BCF333C0843F21F4809100028E7F17C0EC
:10337000853F21F4809100028D7F11C0863F21F4AA
:10338000809100028B7F0BC0873F21F48091000267
:10339000877F05C0883F31F4809100028F7E809343
:1033A000000213C08D3F21F48091FE018E7F0BC07F
:1033B0008E3F21F48091FE018D7F05C08F3F29F45F
:1033C0008091FE018B7F8093FE018091010281112B
:1033D0000EC08091020281110AC080910302811106
:1033E00006C080910402811102C01092FD0108956F
:1033F0008FEF91E00E942C090E947D169093FC01B2
:103400008093FB0108951F93CF93DF938091FB017D
:103410009091FC010E948916AC019091FD019923C5
:1034200021F02091060130E006C0209107018AE0DA
:10343000289F900111244217530708F47BC0809104
:103440000102C0910202D091030210910402811185
:1034500007C0C1116BC0D11169C0111167C06AC02A
:103460009F3F19F09F5F9093FD01181624F40E946E
:103470008918809301028091010287FF05C00E9494
:1034800089188195809301021C1624F40E948918E2
:10349000809302028091020287FF05C00E94891872
:1034A000819580930202309101023323E1F0209153
:1034B00002022223C1F045EB3403C0011124892FFD
:1034C000990F990B009709F481E08093010235EB85
:1034D0002303C0011124892F990F990B009709F438
:1034E00081E0809302021D1624F40E94D21880937A
:1034F00003028091030287FF05C00E94D2188195C4
:1035000080930302111624F40E94D21880930402BF
:103510008091040287FF05C00E94D2188195809394
:103520000402DF91CF911F910C94F8199F3F09F08D
:1035300099CFA1CFDF91CF911F910895EFEFF1E0E7
:1035400086E0DF011D928A95E9F71092FD01109245
:10355000FE01089580910D0208950F931F93CF935C
:10356000DF9300D01F92CDB7DEB78C010E94051DFE
:10357000823011F0843021F584E089831B830A8333
:1035800082E08093E9008FEF9091E800815095FDF3
:1035900006C095ED9A95F1F700008111F5CF809165
:1035A000E80085FF0DC040E050E063E070E0CE0130
:1035B00001960E94221D8091E8008E778093E8009A
:1035C0000F900F900F90DF91CF911F910F91089561
:1035D000CF93DF9300D01F92CDB7DEB720911C02AE
:1035E000243031F523E02983805891099B838A8315
:1035F00082E08093E9008FEF9091E800815095FD83
:1036000006C095ED9A95F1F700008111F5CF8091F4
:10361000E80085FF0DC040E050E063E070E0CE01BF
:1036200001960E94221D8091E8008E778093E80029
:103630000F900F900F90DF91CF910895CF93DF936C
:10364000EC010E94051D823011F08430F9F482E013
:103650008093E9009FEF8091E800915085FD06C0BE
:1036600085ED8A95F1F700009111F5CF8091E80082
:1036700085FF0CC040E050E066E070E0CE010E94A3
:10368000221D8091E8008E778093E800DF91CF9132
:103690000895CF93DF93EC010E94051D823011F055
:1036A000843039F581E08093E9008FEF9091E80054
:1036B000815095FD06C095ED9A95F1F700008111B6
:1036C000F5CF8091E80085FF14C040E050E068E04D
:1036D00070E0CE010E94221D8091E8008E778093D9
:1036E000E80088E0FE01A5E0B2E001900D928A9525
:1036F000E1F7DF91CF91089580911B02811109C0FC
:103700000E94B31E0E94151F8091E2008460809386
:10371000E200089510921B020895089508950C94F4
:10372000431642E061EC81E00E942D1E42E261EC12
:1037300082E00C942D1E80911E02833009F45EC03D
:1037400030F4813071F0823009F497C008958A30E6
:1037500009F483C08B3009F469C0893009F0A5C031
:1037600020C080911D02813A09F09FC08091E8003D
:10377000877F8093E8008091210290912202892B1B
:1037800021F468E085E092E003C060E080E090E032
:1037900070E00E946D1D8091E8008B778093E800B7
:1037A000089580911D02813209F07FC0809121022D
:1037B00090912202029708F078C08091E800877FFC
:1037C0008093E8008091E80082FD05C080911C0292
:1037D0008111F8CF6AC08091F2009091F3000297B6
:1037E00029F48091F1008B7F813021F48091F100E8
:1037F00080930D028091E8008B7753C080911D0269
:10380000813A09F052C08091210290912202892BC5
:1038100009F04BC08091E800877F8093E800809199
:10382000E80080FFFCCF8091120136C080911D021C
:103830008132D9F58091210290912202892BA9F53C
:103840008091E800877F8093E8000E94621E80914B
:103850001F02809312010C94A40E80911D028132EC
:1038600021F58091E800877F8093E8000E94621E26
:103870008091200280930E02089580911D02813A6A
:10388000A1F48091E800877F8093E8008091E800B0
:1038900080FFFCCF80910E028093F1008091E800C0
:1038A0008E778093E8000C94621E089584B7877F1A
:1038B00084BF0FB6F894A8958091600088618093CA
:1038C0006000109260000FBE80E88093610010924B
:1038D00061000E9474090E94B31E0E94151F80910E
:1038E000E20084608093E20078940E94AA210E9402
:1038F0007C0988E091E00E94100980911C028530CB
:1039000069F40E94FA1580911A028823B1F30E948B
:103910002C16882391F30E940C1DEFCF0E9484097E
:10392000ECCF0C94931C292F332723303105C9F099
:1039300064F42130310581F02230310509F04CC0AA
:103940008BE390E02CEA33E04BC02132310521F1CA
:103950002232310589F140C082E190E027EE33E068
:103960003FC099278130910571F02CF4892BA1F586
:10397000E8EAF3E00DC08230910541F0039761F56C
:10398000EEE5F3E005C0EEE9F3E002C0E4E6F3E0C3
:10399000849190E09F0124C06115710541F0613070
:1039A0007105D1F489E090E027ED33E019C089E09A
:1039B00090E02EEB33E014C06115710541F06130E9
:1039C000710551F485E890E029EF33E009C080E407
:1039D00090E02EE734E004C080E090E020E030E0AA
:1039E000FA013183208308950895CF93C82F0E9450
:1039F000F41CC0930F02CF91089580911C02843073
:103A000011F081E0089582E0089580910F02811104
:103A100002C00C94FD1C089584E189BD86E189BD36
:103A200009B400FEFDCF8091D8008F7D8093D8002F
:103A30008091E00082608093E0008091E00081FD51
:103A4000FCCF0895CF92DF92EF92FF920F931F93D6
:103A5000CF93DF93EC018B016A010E94811E8111DB
:103A600033C0C114D10439F0F60180819181081B63
:103A7000190BC80FD91FE12CF12C0115110519F1F3
:103A80008091E80085FD16C08091E8008E778093D4
:103A9000E800C114D10449F0F60180819181E80E5B
:103AA000F91EF182E08285E00FC00E94811E88230A
:103AB00021F30AC089918093F10001501109FFEFB1
:103AC000EF1AFF0ADACF80E0DF91CF911F910F91BB
:103AD000FF90EF90DF90CF900895209123023091D6
:103AE00024022617370748F06115710539F4209133
:103AF000E8002E772093E80001C0B90140E061158D
:103B0000710599F120911C02222309F441C025304E
:103B100009F440C02091E80023FD3EC02091E80058
:103B200022FD30C02091E80020FFE9CF2091F20073
:103B30003091F300FC01CF016115710559F0283077
:103B4000310540F481918093F100615071092F5F3C
:103B50003F4FF1CF41E02830310509F040E020919E
:103B6000E8002E772093E800CACF4111CBCF0AC0DE
:103B700080911C02882361F0853061F08091E8001B
:103B800083FD0AC08091E80082FFF2CF80E00895B3
:103B900082E0089583E0089581E008952091230252
:103BA000309124022617370748F06115710539F462
:103BB0002091E8002E772093E80001C0B901FC01B4
:103BC00020E06115710581F180911C02882309F4C0
:103BD0003EC0853009F43DC08091E80083FD3BC0C4
:103BE0008091E80082FD2DC08091E80080FFE9CF40
:103BF0008091F2009091F3006115710559F08830C1
:103C0000910540F424912093F1003196615071099F
:103C10000196F2CF21E0089709F020E08091E800BA
:103C20008E778093E800CDCF2111CECF0AC080914E
:103C30001C02882361F0853061F08091E80083FDEB
:103C40000AC08091E80082FFF2CF80E0089582E010
:103C5000089583E0089581E00895982F973058F5EE
:103C60009093E900981739F07091EC002091ED00E5
:103C70005091F00003C0242F762F50E021FF19C08F
:103C80003091EB003E7F3093EB003091ED003D7FB3
:103C90003093ED003091EB0031603093EB00709386
:103CA000EC002093ED005093F0002091EE0027FFF0
:103CB00007C09F5FD3CF8F708093E90081E00895A4
:103CC00080E0089580911D0287FF11C08091E80077
:103CD00082FD05C080911C028111F8CF11C0809136
:103CE000E8008B770BC080911C02882349F08091FB
:103CF000E80080FFF8CF8091E8008E778093E8009D
:103D000008952091E4003091E50095E64091EC00A3
:103D1000842F817040FF22C08091E80080FD1CC08C
:103D200080911C02882391F0853091F08091EB0006
:103D300085FD10C04091E4005091E5004217530703
:103D400029F39A01915011F784E0089582E00895D3
:103D500083E0089581E0089580E008954091E800AF
:103D600042FFDECF08950E94241F0E942C1FE0EE28
:103D7000F0E0808181608083E8EDF0E080818F77E2
:103D8000808319BCA7EDB0E08C918E7F8C938081ED
:103D90008F7E808310921B0208950F931F93CF9301
:103DA000DF930E94241F0E942C1FC8EDD0E0888161
:103DB0008F77888388818068888388818F7D8883D6
:103DC000E7EDF0E080818068808319BC10921C02CE
:103DD0001092180210921A021092190200EE10E0CE
:103DE000F80180818B7F808388818160888342E0B5
:103DF00060E080E00E942D1EE1EEF0E080818E7F89
:103E00008083E2EEF0E08081816080838081886041
:103E10008083F80180818E7F8083888180618883A0
:103E2000DF91CF911F910F910895E8EDF0E080812F
:103E30008F7E8083E7EDF0E080818160808381E088
:103E400080931B020C94CD1EE8EDF0E080818C7F06
:103E500080831092E20008951092DA001092E1003F
:103E600008951F920F920FB60F9211240BB60F9266
:103E70002F933F934F935F936F937F938F939F9372
:103E8000AF93BF93EF93FF938091E10082FF0BC04C
:103E90008091E20082FF07C08091E1008B7F8093D8
:103EA000E1000E94A9218091DA0080FF1FC080916B
:103EB000D80080FF1BC08091DA008E7F8093DA00EB
:103EC0008091D90080FF0DC084E189BD86E189BD64
:103ED00009B400FEFDCF81E080931C020E947C1B90
:103EE00005C019BC10921C020E948A1B8091E1003F
:103EF00080FF19C08091E20080FF15C08091E20030
:103F00008E7F8093E2008091E20080618093E200E6
:103F10008091D80080628093D80019BC85E080939E
:103F20001C020E948E1B8091E10084FF30C08091B2
:103F3000E20084FF2CC084E189BD86E189BD09B41B
:103F400000FEFDCF8091D8008F7D8093D8008091B6
:103F5000E1008F7E8093E1008091E2008F7E80936C
:103F6000E2008091E20081608093E200809118027B
:103F7000882311F084E007C08091E30087FD02C030
:103F800081E001C083E080931C020E948F1B80911E
:103F9000E10083FF29C08091E20083FF25C080916A
:103FA000E100877F8093E10082E080931C02109201
:103FB00018028091E1008E7F8093E1008091E20001
:103FC0008E7F8093E2008091E20080618093E20026
:103FD00042E060E080E00E942D1E8091F000886049
:103FE0008093F0000E948D1BFF91EF91BF91AF91E4
:103FF0009F918F917F916F915F914F913F912F9101
:104000000F900BBE0F900FBE0F901F9018951F9230
:104010000F920FB60F9211240BB60F922F933F936E
:104020004F935F936F937F938F939F93AF93BF93C0
:10403000CF93DF93EF93FF93C091E900CF7080910E
:10404000EC00D82FD17080FDD0E81092E90080916B
:10405000F000877F8093F00078940E944F201092A8
:10406000E9008091F00088608093F000CD2BCF7044
:10407000C093E900FF91EF91DF91CF91BF91AF9194
:104080009F918F917F916F915F914F913F912F9170
:104090000F900BBE0F900FBE0F901F9018951F939F
:1040A000CF93DF93CDB7DEB7AA970FB6F894DEBFF4
:1040B0000FBECDBFEDE1F2E088E08E0F9091F100F0
:1040C00091938E13FBCF0E949B1B8091E80083FF8E
:1040D00028C180911D0290911E02492F50E04A3064
:1040E000510508F01EC1FA01E659FF4F0C94D92181
:1040F000803821F0823809F014C108C0809119027B
:1041000090911A02992389F082600FC08091210258
:104110008F70873008F005C18093E9008091EB0033
:1041200085FB882780F91092E9009091E800977F3D
:104130009093E8008093F1001092F100D0C0282FF6
:104140002D7F09F0EEC0882319F0823061F0E9C0BC
:1041500080911F02813009F0E4C0933009F080E0C3
:1041600080931A022EC080911F0281112AC0809173
:1041700021028F702FEF280F263008F0D2C08093D5
:10418000E9002091EB0020FF1CC0933021F48091C6
:10419000EB00806214C09091EB0090619093EB0073
:1041A00021E030E0A90102C0440F551F8A95E2F7D3
:1041B0004093EA001092EA008091EB0088608093BF
:1041C000EB001092E9008091E800877F8093E8007F
:1041D0000E94621EA6C08111A4C010911F021F7709
:1041E0008091E3008078812B8093E3008091E80048
:1041F000877F8093E8000E94621E8091E80080FF24
:10420000FCCF8091E30080688093E300111102C02D
:1042100082E001C083E080931C0283C0805882301A
:1042200008F07FC080911F02909120028C3D53E0E6
:10423000950779F583E08A838AE289834FB7F894FA
:10424000DE01139620E03EE051E2E32FF0E05093D0
:104250005700E49120FF03C0E295EF703F5FEF70DD
:104260008E2F90E0EA3010F0C79601C0C0968D9373
:104270009D932F5F243149F74FBF8091E800877FDE
:104280008093E8006AE270E0CE0101960E946D1D05
:1042900015C06091210270912202AE014F5F5F4F05
:1042A0000E94911CBC01892BE1F19091E800977F5D
:1042B0009093E80089819A810E94CE1D8091E80048
:1042C0008B778093E8002DC0803859F58091E80005
:1042D000877F8093E800809118028093F10080919D
:1042E000E8008E7773CF81111CC090911F0292302D
:1042F000C0F48091E800877F8093E80090931802D3
:104300000E94621E80911802811106C08091E30014
:1043100087FD02C081E001C084E080931C020E94FE
:10432000911B8091E80083FF0AC08091E800877F9D
:104330008093E8008091EB0080628093EB00AA9666
:104340000FB6F894DEBF0FBECDBFDF91CF911F91A6
:1043500008950895CF9380911C028823A1F0C09105
:10436000E900CF709091EC00892F817090FD80E87A
:10437000C82B1092E9008091E80083FD0E944F2035
:10438000CF70C093E900CF91089597FB072E16F4E4
:10439000009407D077FD09D00E94E22107FC05D0E8
:1043A0003EF4909581959F4F0895709561957F4F4C
:1043B0000895EE0FFF1F0024001C0BBE0790F6911E
:1043C000E02D0994AA1BBB1B51E107C0AA1FBB1F0C
:1043D000A617B70710F0A61BB70B881F991F5A9591
:1043E000A9F780959095BC01CD010895F999FECF6C
:1043F00092BD81BDF89A992780B50895A8E1B0E0F3
:1044000042E050E00C942A22262FF999FECF92BD6B
:1044100081BDF89A019700B4021639F01FBA20BD89
:104420000FB6F894FA9AF99A0FBE08950396272FBB
:104430000E9405220E940422252F0E940522242F7B
:104440000C9405220196272F0E9405220C94042229
:10445000DC01CB01FC01F999FECF06C0F2BDE1BD44
:10446000F89A319600B40D9241505040B8F7089533
:04447000F894FFCFEE
:10447400EE0101010A041406AA1A491B1E1BE81ABC
:10448400AD1A01303132333435369091929394958C
:0A449400969760616263646566003C
:00000001FF
