:100000000C94EA020C9407030C9407030C94070366
:100010000C9407030C9407030C9407030C94070338
:100020000C9407030C9407030C940F1F0C94E11F0E
:100030000C94CF190C9407030C9407030C9407033A
:100040000C9407030C9407030C9407030C94070308
:100050000C9407030C94371A0C9407030C940703B1
:100060000C9407030C9407030C9407030C940703E8
:100070000C9407030C9407030C9407030C940703D8
:100080000C9407030C9407030C9407030C940703C8
:100090000C9407030C9407030C9407030C940703B8
:1000A0000C9407030C9407030C9407035F0362038B
:1000B000650368036B036E0371038D0692069C064D
:1000C000900695069A069806F607F8070308FA07B9
:1000D000FC07FE07000802080508070809081408BD
:1000E0000B080D080F08110813081608670F670F93
:1000F000990F990FD00F751117117511F00F751118
:100100009D109D100E11751175116F11AA10AA1076
:10011000AA10AA10AA10AA10AA10AA10AA10AA100F
:10012000AA10AA10AA10AA10AA10AA10BB10C810D0
:10013000CF10D610E010FE11FE111012101207128F
:10014000101210121012FE11FE110C1210121012C9
:100150000C124E207520672175206721C120E420F4
:1001600067213A2149216572676F646F785F657A0C
:100170002F346461616166333161666564313731A2
:100180006364323864204020302E362E3232302DD7
:10019000362D673438346338352D646972747900CC
:1001A0000000F0A13500E000E100E3004A0000009B
:1001B0001E00140004001D004D00E2001F001A0084
:1001C00015001B004B002B00200009001600060044
:1001D0004E002C00210013001700190001514A00A5
:1001E00022000A00070005000000005C2F002E001E
:1001F00000002B0000002C0030002D0000002B0020
:100200000000E20023000D000B000E0000004C0077
:1002100024000F001100100001514A0025001800B1
:10022000080036005100280026001C000C00370092
:1002300052002A0027003300120038005000E2006C
:100240003100E000E100E3004F0000000100010088
:10025000010001000100000001001E023400310213
:100260000100010001001F02340231000100010001
:10027000010020022F020100010001000100210203
:1002800030022A0001000100010022022E004C0071
:100290000000010001000100000001000000010059
:1002A0000100010000000100000001000100230224
:1002B0002D002D0200000100AC0024022602510096
:1002C00001000100AE0025022702520001000100DA
:1002D000AB0056002F005000010001000100350066
:1002E00030004F0001000100010001000100010089
:1002F00001000000010001000100010001000000F8
:10030000010042003E003A000100010001004300EC
:100310003F003B00010001000100440040003C00A0
:10032000010001000100450041003D000100010005
:100330000100A900AA00A8000000010001000100BE
:1003400000000100000001000100010000000100A8
:100350000000010001000100010001000000010097
:100360000100240021001E00010001000100250001
:1003700022001F00010001000100260023002000D0
:10038000010001000100010027000100010001003F
:100390000100010001000100010000000000000058
:1003A000000000002A2B28000000000000000000D0
:1003B0000000000000000029000000002C1E342076
:1003C000212224342627252E362D3738271E1F209C
:1003D0002122232425263333362E37381F040506E1
:1003E0000708090A0B0C0D0E0F1011121314151625
:1003F0001718191A1B1C1D2F3130232D3504050623
:100400000708090A0B0C0D0E0F1011121314151604
:100410001718191A1B1C1D2F3130354C0000000015
:1004200000000000000000000000000000000000CC
:1004300000000000000000000000000000010101B9
:1004400001010100010101010000000000000000A5
:100450000000000000000100010001010101010194
:10046000010101010101010101010101010101017C
:100470000101010101010100000001010000000073
:10048000000000000000000000000000000000006C
:100490000000000000000001010101000403300021
:1004A000000016034500720067006F0044006F00F3
:1004B0007800200045005A00000016034500720035
:1004C00067006F0044006F007800200045005A006C
:1004D00000000403090409023B00020100A0FA091C
:1004E0000400000103010100092111010001224063
:1004F000000705810308000A090401000103000048
:10050000000921110100012271000705820320006A
:100510000A1201100100000008EDFE07130100019E
:1005200002030105010980A10185031601002603CC
:10053000001A81002A8300751095018100C0050C06
:100540000901A1018504160100269C021A01002A56
:100550009C02751095018100C005010906A1018565
:1005600005050719E029E7150025019508750181A2
:100570000205081901290595057501910295017576
:100580000391010507190029EF1500250195F07564
:10059000018102C005010906A101050719E029E74B
:1005A00015002501950875018102950175088101E5
:1005B0000508190129059505750191029501750335
:1005C00091010507190029FF150026FF0095067502
:1005D000088100C011241FBECFEFDAE0DEBFCDBF1F
:1005E00011E0A0E0B1E0EAECF3E402C005900D9266
:1005F000A83BB107D9F723E0A8EBB1E001C01D92F9
:10060000A033B207E1F70E94331C0C94E3210C9451
:10061000000080B38C7080BB81B3836F81BB089571
:1006200084B1807F84B985B1807F85B98AB1837FA9
:100630008AB98BB1837F8BB93E9846980895CF9342
:10064000E82F873090F58091000190910101892B6E
:1006500009F049C0CE2F64E670E080E40E94A00457
:100660009093010180930001892BD1F464E670E03E
:1006700082E10E94F7049093010180930001892B8D
:1006800079F481E090E001C0880FCA95EAF764E64A
:1006900070E080950E94F70490930101809300011F
:1006A00084E690E0CF910C944C0590E0FC013797E4
:1006B000E730F105C0F4EA5AFF4F0C949B21209AD1
:1006C000289811C0219A29980EC0229A2A980BC006
:1006D000239A2B9808C0529A5A9805C0539A5B984F
:1006E00002C03E9A4698CF910895089508950C94BB
:1006F0007603CF93DF930E94DE0590E09093010193
:10070000809300010E9410030E940903ADE0B2E053
:1007100029EB31E0EBE1F2E04EE04E0F11921D9239
:1007200080E090E0E901C80FD91F18820196863059
:100730009105C1F72A5F3F4F4E13F0CFDF91CF9164
:100740000C9405070E94DE0590E0909301018093D0
:1007500000010E9410030E940903EBE1F2E08EE029
:100760008E0F11928E13FDCF0895CF93DF93E62F56
:10077000F0E0E35FFD4F40814827808386E0689F7B
:10078000F0011124E754FE4F20E030E080E061E00A
:1007900070E050E0AAE0B22F9081992319F09150B7
:1007A000908307C0EB01022E01C0CC0F0A94EAF738
:1007B0008C2BEA0102C0D595C795BA95E2F7C0FD2A
:1007C000A0832F5F3F4F31962630310521F7DF910F
:1007D000CF910895CF93DF93D82F873008F040C092
:1007E0008091000190910101892B09F042C064E6DB
:1007F00070E080E40E94A0049093010180930001C6
:10080000892B11F0C0E027C064E670E083E10E940C
:10081000F7049093010180930001892B99F764E616
:1008200070E081E40E94A004909301018093000194
:10083000892B41F784E690E00E94270597FF05C0C9
:100840009093010180930001DDCFC82FC0951092D5
:1008500001011092000184E690E00E944C050AC05C
:100860009FB1CFB1C07FC695C6959370C92BC09577
:1008700001C0C0E06D2F8C2F0E94B503282F20955A
:10088000ED2FF0E0E55EFD4F908192238C23892BC4
:10089000DF91CF910895EF92FF920F931F93CF9323
:1008A000DF938091000190910101892B91F080915B
:1008B000B8018F5F8093B80181110BC00E94DE05E3
:1008C00090E09093010180930001892B11F40E9424
:1008D00070058BE1E82E82E0F82E02E212E0C0E023
:1008E0008C2F0E941F03D7E0DC0F8D2F0E941F0367
:1008F0008C2F0E94EA03F70181937F018D2F0E94C4
:10090000EA03F80181938F010E941003CF5FC73083
:1009100039F70E940F0781E0DF91CF911F910F916E
:10092000FF90EF900895E82FF0E0E55EFD4F8081A5
:10093000089508951092B9008CE08093B80008954E
:10094000EF92FF920F931F93CF93DF93182FEB013A
:100950001092BC0084EA8093BC000E94011A7C01C2
:100960009091BC0097FD0EC0CF3F8FEFD807C1F329
:100970000E94011A8E199F098C179D0788F38EEF2C
:100980009FEF2EC09091B900987F983041F09091E0
:10099000B900987F903119F08FEF9FEF21C010932D
:1009A000BB0084E88093BC000E94011A8C019091E6
:1009B000BC0097FD0CC0CF3F8FEFD807C1F30E945A
:1009C000011A801B910B8C179D0788F3D8CF80915B
:1009D000B900887F883111F08034F1F680E090E032
:1009E000DF91CF911F910F91FF90EF9008950F939A
:1009F0001F93CF93DF93EB018093BB0084E8809338
:100A0000BC000E94011A8C019091BC0097FD0EC0A1
:100A1000CF3F8FEFD807C1F30E94011A801B910BC3
:100A20008C179D0788F38EEF9FEF0CC02091B900C3
:100A3000287F81E090E0283211F480E090E09195E9
:100A400081959109DF91CF911F910F9108950F9397
:100A50001F93CF93DF93EC0184E88093BC000E9446
:100A6000011A8C019091BC0097FD0EC0CF3F8FEF13
:100A7000D807C1F30E94011A801B910B8C179D07A8
:100A800088F38EEF9FEF03C08091BB0090E0DF9171
:100A9000CF911F910F9108950F931F93CF93DF93E1
:100AA000EC0184E98093BC000E94011A8C019091B2
:100AB000BC0094FF0EC0CF3F8FEFD807C1F30E9458
:100AC000011A801B910B8C179D0788F38EEF9FEF07
:100AD00002C080E090E0DF91CF911F910F910895C7
:100AE00056985E9825982D9826982E9827982F9896
:100AF0008FEF90E0909389008093880090938B0013
:100B000080938A0090938D0080938C00259A2D9A73
:100B10002FEF80E792E0215080409040E1F700C045
:100B20000000269A2E9A2FEF80E792E02150804015
:100B30009040E1F700C00000279A2F9A2FEF80E73E
:100B400092E0215080409040E1F700C000002598DD
:100B50002D982FEF80E792E0215080409040E1F700
:100B600000C0000026982E982FEF80E792E02150D9
:100B700080409040E1F700C0000027982F985698D9
:100B80005E9825982D9826982E9827982F98089546
:100B900089EA8093800089E08093810024982C98D2
:100BA0003F988AB18F7C8AB96E98479A8BB18063DF
:100BB0008BB9769A0E9470050C94750380E290E0E0
:100BC00090930101809300018091290281110EC050
:100BD0000E949A0481E0809329022FEF83ED90E335
:100BE000215080409040E1F700C0000064E670E0D2
:100BF00080E40E94A0049093010180930001892B5E
:100C000009F050C064E670E080E00E94F704909321
:100C1000010180930001892B09F044C064E670E073
:100C200080E00E94F7049093010180930001892BDA
:100C3000C9F564E670E08FE30E94F7049093010128
:100C400080930001892B71F584E690E00E944C05A9
:100C500064E670E080E40E94A00490930101809318
:100C60000001892BF9F464E670E08CE00E94F7043F
:100C70009093010180930001892BA1F464E670E058
:100C800080E00E94F7049093010180930001892B7A
:100C900049F464E670E08FE30E94F7049093010149
:100CA0008093000184E690E00E944C058091000151
:100CB0000895611108C0FC018281882321F086E635
:100CC00091E00E94020780E090E00895863E9C45F6
:100CD00041F4FB018281882329F00E94ED1880E015
:100CE000089581E00895CF92DF92EF92FF926B0119
:100CF0007C010E942F1856985E9825982D9826986A
:100D00002E9827982F9890E0FC013197E730F10555
:100D1000A8F4E35AFF4F0C949B21259A2D9A0EC0FC
:100D2000259A2D9A269A2E9A09C0259A2D9A04C0A2
:100D3000259A2D9A269A2E9A279A2F9AC701B6019C
:100D4000FF90EF90DF90CF90089581E008950C948C
:100D50006606CF93282F30E0F901E456FC4FC4918A
:100D6000F901E45EFB4F2491222359F081EE0E94A9
:100D7000A70D8C2F0E94A70D8C2F0E94BE0E81EE16
:100D800004C08C2F0E94A70D8C2FCF910C94BE0E07
:100D90000F931F93CF93DF93EC01062FFE018491F5
:100DA000882359F19E012F5F3F4F813041F4E901C3
:100DB000F9011491812F0E94A70D812F0DC082305F
:100DC00031F4E901F90184910E94A70D0AC0833032
:100DD00031F4E901F90184910E94BE0E02C00E9423
:100DE000A9062196802F8823C9F2EFE9FFE0319709
:100DF000F1F700C000008150F6CFDF91CF911F9135
:100E00000F91089560E00C94C8060E947F1881112C
:100E100002C00E94ED180E945B0B0C94C8050C9454
:100E20007703282F2F7041F0822F90E02A3010F4A2
:100E30004D9608950697089587E290E008950895E5
:100E40000C941F070C94200708950E94EC110E9437
:100E500024072FEF84E39CE0215080409040E1F78D
:100E600000C000000C945D1AFF920F931F93CF9364
:100E7000DF938C01FC01C081D181809155028111E9
:100E800013C08281882349F0CE010E941F17F82EDB
:100E9000682FCE010E94C21604C0CE010E94F21635
:100EA000F82EBE018F2D04C0CE010E941F17BE0177
:100EB0000E94CD08EC01B8010E94A706882309F41E
:100EC00064C1B801CE010E94D60B882309F45DC12C
:100ED000C63DFCE5DF0761F5F8018281882351F00A
:100EE00010922F020E94011A90932C0280932B02E1
:100EF00082E03BC00E94F01785FF05C081E080932F
:100F00002F028093300280912F0281110FC08091B7
:100F10002B0290912C020E940D1A883C910530F40E
:100F200086E20E94A70D86E20E94BE0E82E02FC0DC
:100F3000C73D8CE5D80770F1CB3D8CE5D80709F4A7
:100F4000D6C008F0DBC0C73DFCE5DF0709F0F4C000
:100F5000F8018281882361F0109230020E94011A08
:100F600090932E0280932D0280E20E94250F0DC1E6
:100F70000E94F01781FF05C081E080932F028093CB
:100F8000300280913002882309F4C5C080E20E94BB
:100F90002C0FFBC0C531ECE5DE0708F07EC0C23087
:100FA000FCE5DF0708F452C0F8018281882309F4C8
:100FB00059C00E947F18811102C00E94ED180E9442
:100FC000921890E09093220380932103FE01E35056
:100FD000FC45E231F10530F4EC59FF4F80912103DB
:100FE0000C949B2180912103816027C0826025C0E1
:100FF000846023C0806121C080621FC080641DC0E6
:1010000080681BC08460886018C08E7F16C08D7F8A
:1010100014C08B7F12C08F7E10C08F7D0EC08F7B5F
:101020000CC08F770AC08B7F877F07C087FB222782
:1010300020F991E0922790FB87F98093210380911A
:1010400021030E9496180E94EC119FC0C1158CE5E7
:10105000D80781F0C130DC45A9F081E080932F02F0
:1010600080933002C801DF91CF911F910F91FF90C3
:101070000C94A506F8018281882309F486C00E9499
:10108000250783C0F8018281882309F47EC08091FE
:10109000F40281608093F40278C0C631DC45E9F641
:1010A0000E94F017282FF80182814091020150918F
:1010B0000301882379F02A7A91E009F490E0909373
:1010C0002A02911102C069E201C065E3CA010E94CF
:1010D00054190AC080912A02811102C069E201C03C
:1010E00065E3CA010E945F190E94BD174EC0F80156
:1010F0008281882309F449C080E00AC0CC3DECE538
:10110000DE07D1F5F8018281882309F43EC082E030
:101110000E94D21C3AC080912D0290912E020E9412
:101120000D1A883C910508F031CF87E20E94A70D87
:1011300087E20E94BE0E2ACFC83DDC4509F08DCF64
:10114000F8018281811108CF8091300281111ECF78
:1011500080912D0290912E020E940D1A883C9105DB
:1011600008F014CF80E20E942C0F88E20E94A70DA5
:1011700088E20E94BE0E09C0CD3DDC4509F06DCF6E
:10118000F801828181110E94ED1880E0DF91CF91FA
:101190001F910F91FF900895089596E0799FF001B7
:1011A000112494E5899FE00DF11D1124E60FF11D36
:1011B000EE0FFF1FEC55FE4F859194910895880F17
:1011C000991FFC01E056FE4F859194910895CF93AD
:1011D000DF930E94CD080E94A40AEC01811520E54E
:1011E0009207F0F5811530E4930708F029C1883E95
:1011F000910500F5803E910508F0A2C1883A91055D
:1012000070F4853A910508F0A3C08130910509F486
:1012100097C108F448C1049708F092C144C18F3BBC
:10122000910508F4A0C0803C910508F43CC1805CA5
:101230009109F8C08115904258F4C11581E0D80792
:1012400008F07EC1C03FD10508F42DC1D06578C13A
:10125000C11590E3D90708F0E9C0CE019F70E2C044
:10126000811525E5920708F043C0811534E5930701
:1012700008F0FDC0811542E5940708F5C11581E528
:10128000D80708F0E0C02C2F237081E090E002C066
:10129000880F991F2A95E2F79C689E0174E03695A5
:1012A00027957A95E1F72370922BCF70C695C69556
:1012B00040E2C49FE0011124C82BD92B41C186957F
:1012C00086959E0123703327C115D34508F0C0C011
:1012D00040E2849FC0011124C1E0D0E002C0CC0FE5
:1012E000DD1F2A95E2F78C2B9D2BEC01DC6828C1D1
:1012F00081152AE5920798F4811539E5930708F0DE
:10130000C1C08115964508F4B7C0C11588E5D80756
:1013100008F4C9C0DC2FCC27C06FD06A11C1C11539
:101320009BE5D90708F4BFC0C1152CE5D20708F426
:10133000B7C0CE0190568115904208F0B4C08D2FF1
:101340008F710E94210BDD27D0628F71D82BF8C0DE
:10135000853A910509F4AAC0863A910509F0A9C019
:10136000C2E8D0E4EDC0883A910509F4A5C0893AF5
:10137000910509F4A4C08A3A910509F4A3C08B3AF7
:10138000910509F4A2C08C3A910509F4A1C08B3BE8
:10139000910509F4A0C08C3B910509F49FC08D3ADA
:1013A000910509F49EC0803B910509F49DC08E3AD9
:1013B000910509F49CC08F3A910509F49BC0813BCB
:1013C000910509F49AC0823B910509F499C0833BC9
:1013D000910509F498C0843B910509F497C0853BB9
:1013E000910509F496C0863B910509F495C0873BA9
:1013F000910509F494C0883B910509F493C0893B99
:10140000910509F492C08D3B910509F491C08E3B82
:10141000910509F490C08A3B910509F48FC0C0E0A2
:10142000D4E48EC00E94DF08EC018AC0CE01992767
:10143000D3FF03C0EC01D86C83C0EC01D06C80C03A
:10144000DF70D06A7DC0DC2FCC27C16FD06A78C036
:1014500040E2849FC0011124C1E0D0E002C0CC0F63
:10146000DD1F2A95E2F7C82BD92BDA6869C0D82F7F
:10147000CC27C46FD06A64C0CF71DD27DC2FCC27A6
:10148000D0625EC08F70806E90E0906A24E0D69546
:10149000C7952A95E1F7CF709C013C2BE90150C01C
:1014A000DD27D0664DC0C0E0D0E04AC0C1E8D0E43E
:1014B00047C0C3E8D0E444C0C2EED4E441C0C9EEA2
:1014C000D4E43EC0CAEED4E43BC0C5EBD4E438C09B
:1014D000C6EBD4E435C0C3EBD4E432C0C4EBD4E4EF
:1014E0002FC0C7EBD4E42CC0CCECD4E429C0CDECA5
:1014F000D4E426C0C3E8D5E423C0CAE8D5E420C0BC
:10150000C2E9D5E41DC0C4E9D5E41AC0C1E2D6E4FD
:1015100017C0C3E2D6E414C0C4E2D6E411C0C5E2E9
:10152000D6E40EC0C6E2D6E40BC0C7E2D6E408C0DB
:10153000CFE6D4E405C0C0E7D4E402C0CAE2D6E4F2
:10154000CE01DF91CF9108958238910549F1B0F431
:101550008133910509F458C048F48932910509F4A2
:101560004EC08A32910509F454C00895853391051F
:1015700009F440C08933910599F00895833E91059F
:1015800029F138F4803E910591F0823E9105A1F059
:101590000895863E9105F9F0873E910531F1089551
:1015A0002091210320FD3AC021FD38C0089580918B
:1015B000210380FD35C032C08091210382FF32C0FB
:1015C0008091210384FD30C083EE39C080912103D6
:1015D00082FD28C0F5CF8091210383FF27C0809131
:1015E000210384FD21C087EE2AC08091210383FD61
:1015F0001DC0F5CF8091210385FD1AC01BC08091CD
:10160000210385FD17C014C08091210386FD14C0FD
:1016100015C08091210386FD11C00EC080EE0FC061
:1016200089E30DC082EE0BC080E009C086EE07C0E2
:1016300089E205C085E303C08AE201C081E390E04E
:1016400008959091210392FF0DC0282F2871283012
:1016500019F4877F846006C0282F2471243011F488
:101660008B7F886093FF0DC0282F2871283119F4D3
:10167000877E846106C0282F2471243111F48B7E6B
:10168000886194FD877E0895CF93DF93813020E8B1
:10169000920768F0FB012281222349F0EC010E94AD
:1016A000710BCE019F770E94B90B0E94A60B81E0BF
:1016B000DF91CF9108958CE090E00E94A12190E00D
:1016C000A0E0B0E08093190390931A03A0931B034A
:1016D000B0931C030895609119038CE090E00C9482
:1016E000AF210E94F017809331020E94031880916D
:1016F0001903813071F048F08230D9F08430F9F468
:1017000086EE0E941D0F88E118C082EE0E94A70D90
:1017100016C080EE0E94A70D81EE0E94A70D88E101
:101720000E941D0F81EE0E94BE0E80EE0E94BE0E32
:1017300006C082EE0E94A70D87E50E941D0F8FE371
:101740009CE90197F1F700C000000895809119030A
:10175000813021F038F0823029F007C08CE20E94FD
:101760001D0F03C082EE0E94BE0E809131020C94C8
:1017700000180F931F93CF93DF938C01CCE0D0E040
:10178000C8010C2E02C0969587950A94E2F78F70D7
:101790000E9411070E941D0F2497CC3F8FEFD8079E
:1017A00079F7DF91CF911F910F9108950F931F93B8
:1017B000CF93DF93EC018B01FB018281882319F128
:1017C000C23EFCE5DF07C1F050F4C03EECE5DE07A9
:1017D00081F0C13EFCE5DF07B1F481E010C0C33EFB
:1017E0008CE5D80759F0C43EECE5DE0761F484E0EF
:1017F00006C01092190305C082E001C083E0809307
:1018000019030E946B0BB801CE01DF91CF911F919C
:101810000F910C94440B90933702809336020895F5
:10182000E0913602F0913702309721F00190F0817B
:10183000E02D099480E00895E0913602F09137029E
:10184000309799F020910E01222359F02091210325
:1018500027FF07C0DC012C9111962C93119725E0EE
:101860002C930280F381E02D099408952091340295
:10187000309135028217930771F09093350280936F
:101880003402E0913602F0913702309721F0068061
:10189000F781E02D099408952091320230913302AE
:1018A0008217930771F09093330280933202E09194
:1018B0003602F0913702309721F00084F185E02D57
:1018C0000994089585B7806885BF85B7806885BF0E
:1018D000089508950E94620C0C94690C81E00895AB
:1018E0000E94F8190E9479030C948F1ACF92DF920C
:1018F000EF92FF920F931F93CF93DF93CDB7DEB795
:101900002B970FB6F894DEBF0FBECDBF0E944B04DD
:101910000E946E0C811111C08FEF89838A831B8214
:101920000E94011A8160782F9D838C8349815A819E
:101930006B818D810E94580D56C089E3C82E82E0CC
:10194000D82E00E010E0E02E802F0E949304F601D4
:1019500041916F01F42EF82631F40F5F1F4F0E30C6
:10196000110589F7D9CF9091F40291FF04C08B87BC
:101970000E9499048B8520E030E04F2D50E0922F9B
:10198000BA01022E02C0759567950A94E2F760FFCE
:1019900024C02E83EF8221E030E0690102C0CC0C2C
:1019A000DD1C9A95E2F790E08C219D21892B09F4AA
:1019B00020E028870E94011A8160782F9A87898702
:1019C0004E815F8168858A850E94580DF801E75C29
:1019D000FD4F8081C826C08206C02F5F3F4F263052
:1019E000310569F6BACF109138020E94100C181711
:1019F000A1F00E94100C809338022B960FB6F89439
:101A0000DEBF0FBECDBFDF91CF911F910F91FF9031
:101A1000EF90DF90CF900C9422072B960FB6F8949E
:101A2000DEBF0FBECDBFDF91CF911F910F91FF9011
:101A3000EF90DF90CF900895DC0111962C911197D3
:101A40008C91682F70E041E050E001C0440F8A950E
:101A5000EAF712968C91129730E0882329F0809152
:101A600057028823E9F006C0F901E95BFD4F908138
:101A70009423B1F086E0829FF001839FF00D112442
:101A8000E60FF71FEE0FFF1FE15FFE4F8081918190
:101A90008D939C93F901E95BFD4F8081482B06C033
:101AA000F901E95BFD4F409580814823408308950B
:101AB000CF93DF93CDB7DEB72B970FB6F894DEBF89
:101AC0000FBECDBF942F4F83252F588769877A8704
:101AD0008B874A855B85452B21F02F3F09F59F3F7A
:101AE000F9F4DE01119686E0FD0111928A95E9F77D
:101AF00085E0FE01379601900D928A95E1F74981C4
:101B00005A816B817C818D819E810E9493142B96DA
:101B10000FB6F894DEBF0FBECDBFDF91CF91089511
:101B2000CE0107960E941C0DDCCFFC0180819181C3
:101B30000E945E1792959F70963041F480915702F3
:101B400091E0892780935702909356020895882345
:101B500009F413C1682F8238C1F40E94100C81FD72
:101B60000CC169E380910201909103010E94541914
:101B70000E94BD172FEF81EE94E0215080409040ED
:101B8000E1F700C0000069E319C08338F9F40E944E
:101B9000100C80FDF2C063E5809102019091030179
:101BA0000E9454190E94BD172FEF81EE94E021503E
:101BB00080409040E1F700C0000063E580910201A1
:101BC000909103010E945F190C94BD178438C1F4F1
:101BD0000E94100C82FDD1C067E4809102019091B7
:101BE00003010E9454190E94BD172FEF81EE94E06B
:101BF000215080409040E1F700C0000067E4DECF54
:101C00008CEF860F813A38F48091020190910301A4
:101C10000E945419D9CF80E2860F883048F467704B
:101C200081E001C0880F6A95EAF70E94F317CCCFD4
:101C30008BE5860F833070F4653A29F0663A31F00F
:101C400083E890E005C081E890E002C082E890E07F
:101C50000C94360C88E5860F873108F08EC0683A00
:101C600009F445C0693A09F445C06A3A09F445C027
:101C70006B3A09F445C06C3A09F445C06B3B09F472
:101C800045C06C3B09F445C06D3A09F445C0603B62
:101C900009F445C06E3A09F445C06F3A09F445C0ED
:101CA000613B09F445C0623B09F445C0633B09F45C
:101CB00045C0643B09F445C0653B09F445C0663B3B
:101CC00009F445C0673B09F445C0683B09F445C0C9
:101CD000693B09F445C06D3B09F445C06E3B09F40E
:101CE00045C06A3B09F445C080E090E044C082EE04
:101CF00090E041C089EE90E03EC08AEE90E03BC0AB
:101D000085EB90E038C086EB90E035C083EB90E047
:101D100032C084EB90E02FC087EB90E02CC08CECBD
:101D200090E029C08DEC90E026C083E891E023C0CC
:101D30008AE891E020C082E991E01DC084E991E049
:101D40001AC081E292E017C083E292E014C084E2FC
:101D500092E011C085E292E00EC086E292E00BC0F4
:101D600087E292E008C08FE690E005C080E790E04F
:101D700002C08AE292E00C944C0C0895882309F486
:101D80005BC0682F823879F40E94100C81FF54C028
:101D900069E380910201909103010E9454190E940D
:101DA000BD1769E310C08338B1F40E94100C80FFA6
:101DB00043C063E580910201909103010E94541990
:101DC0000E94BD1763E580910201909103010E947A
:101DD0005F190C94BD17843879F40E94100C82FFAF
:101DE0002BC067E480910201909103010E94541975
:101DF0000E94BD1767E4E7CF8CEF860F813A18F396
:101E000080E2860F883048F4677081E001C0880F57
:101E10006A95EAF70E94F917DCCF8BE5860F8330CD
:101E200020F480E090E00C94360C685A673120F47E
:101E300080E090E00C944C0C0895CF93C82F0E9442
:101E4000A70D8C2FCF910C94BE0E882321F00E94F9
:101E5000F3170C94BD170895882321F00E94F917F9
:101E60000C94BD1708958F929F92AF92BF92DF920C
:101E7000EF92FF920F931F93CF93DF937C01D62FA6
:101E8000C72FFC01058102950F70128111110E946C
:101E900013180E94B617882379F0112369F080E2A5
:101EA0008D0F883048F082E00E949F170E94B6177D
:101EB00091E0D82ED92601C0D12CAC2EA2948FE06F
:101EC000A822B12CF501EA58FF4F0C949B218C2FCE
:101ED000807FCF70882311F0C295C07F112399F0C5
:101EE000CC2309F486C180E28D0F883010F0D11127
:101EF00004C08C2F0E94F31703C08C2F0E94061879
:101F00000E94BD1776C18D2F0E94BE0ECC2309F40E
:101F1000ECC180E28D0F883010F0D11104C08C2FFD
:101F20000E94F91703C08C2F0E940C180E94BD1745
:101F3000DCC18C2F807FCF70803211F0C295C07FC2
:101F4000DD2319F0D130C9F021C0112371F0002335
:101F500041F0013031F40E942C188C2B0E9426187D
:101F6000C4C10E942C188C2BFDC0002319F0013035
:101F700009F4BBC10E94291811C0112321F00230BD
:101F800008F0B3C107C00111B0C108C0112321F08E
:101F900001112FC18C2FE6C001113CC18C2FE8C06C
:101FA0008C2F86958695837090E0009719F00197A5
:101FB00061F09BC1112321F08D2F9C2F937002C0E3
:101FC00080E090E00E94360CA0C1112321F08D2FFB
:101FD0009C2F937002C080E090E00E944C0C95C151
:101FE0008C2F837009F050C011118BC18D2F8295F9
:101FF00086958770880F880F9D2F9F70892E912C52
:10200000A12CB12C082E04C0880C991CAA1CBB1C46
:102010000A94D2F7D4FF14C00FE010E020E030E0C3
:10202000B901A80104C0440F551F661F771F8A9588
:10203000D2F7CB01BA01609570958095909503C059
:1020400060E070E0CB01C695C695C370D0E0C230A9
:10205000D10561F0C330D10581F0682979298A2939
:102060009B29219771F00E94D8154BC168297929C5
:102070008A299B290E94EA1544C10E94D815C501EE
:10208000B4010E94C6153DC1112319F08C2F817037
:1020900001C08695882309F434C18D2F82958695D9
:1020A0008770880F880F9D2F9F70892E912CA12CEF
:1020B000B12C082E04C0880C991CAA1CBB1C0A94C5
:1020C000D2F7D4FF14C00FE010E020E030E0B901F7
:1020D000A80104C0440F551F661F771F8A95D2F7C9
:1020E000CB01BA01609570958095909503C060E032
:1020F00070E0CB01C695C695C3704C2F50E04230BE
:10210000510569F04330510589F0682979298A29F8
:102110009B294130510571F00E949D16F2C068293B
:1021200079298A299B290E94AF16EBC00E949D162F
:10213000C501B4010E948B16E4C08D2F90E0FC0114
:10214000E05EF109E531F10508F04FC0EA57FF4FB5
:102150000C949B21DF708C2F8F71112331F00E9422
:1021600024168D2F0E94250FC0C00E9445168D2F6A
:102170000E942C0FBAC0112339F00111B6C08C2F68
:102180008F710E946A16B1C0023008F0AEC0F7CF5E
:10219000112339F08C2F8F710E942416A6C01123B1
:1021A000C9F38C2F8F710E9445169FC0112329F00F
:1021B0008C2F8F710E940F1698C00E940A1695C02E
:1021C000112349F0CF718C2F0E94241663E08C2FCD
:1021D0000E9496178AC081E00E949F17023008F47F
:1021E00084C082E00E949F1780C0112331F0002339
:1021F00089F28D2F0E94A70D78C0002391F2D93368
:1022000049F45FEF67EE73E0515060407040E1F7D2
:1022100000C000008D2F0E94BE0E67C04C2F4F7073
:102220006D2FC7010E9459060E9437156EC0D23F1C
:10223000B1F028F4D03F49F0D13FF9F028C0D43FA5
:10224000B9F058F0D53F71F022C0112309F447C00E
:102250009091570281E0892708C081E018271093E8
:1022600057023DC011113BC081E08093570237C037
:10227000111135C01092570232C0112329F08091FC
:102280005602882329F329C0002311F328C0809126
:1022900056020023C1F0882341F09091570281E05B
:1022A000892780935702109256028D2F112319F01F
:1022B0000E94A70D14C00E94BE0E86E0F701119285
:1022C0008A95E9F70CC0882351F0111108C090914C
:1022D000570281E0892780935702109256024C2FB3
:1022E0004F706D2FC7010E94CC08F8E0AF16B10403
:1022F00041F05CF04AE0A41AB10852E0A516B1041E
:1023000020F40E94100C0E942207DD20E1F00E94C0
:10231000921780FD18C0F70112820E948C170E944C
:102320002416C7010E94AF110E948C17DF91CF9134
:102330001F910F91FF90EF90DF90BF90AF909F9013
:102340008F900C944516DF91CF911F910F91FF90C4
:10235000EF90DF90BF90AF909F908F9008950F9374
:102360001F93CF93DF93EC01888199812B813C816E
:10237000232BB9F09F3F11F48F3F99F0CE010E94BB
:102380003407882371F0688179818A810E946917F6
:102390008C010E94C1160E94C315B801CE010E9493
:1023A000330FDF91CF911F910F9108950E94131861
:1023B0000E9423180E94BD1780E090E00E94360C16
:1023C00080E090E00C944C0C80910201909103010C
:1023D0000E946A190C94D6110E9403180C94E411FF
:1023E0000E945E17E92FE295EF70F0E03297EE3031
:1023F000F105B0F4E556FF4F0C949B21803F91F01E
:1024000018F4803E68F40EC0843F51F40BC0803E47
:1024100048F0813F29F406C093FB882780F908958E
:1024200080E0089581E00895CF93DF9300D000D03D
:102430001F92CDB7DEB70F900F900F900F900F90B7
:10244000DF91CF910895CF93DF9300D000D000D0DB
:10245000CDB7DEB726960FB6F894DEBF0FBECDBF60
:10246000DF91CF9108951F93CF93DF93C0915802CE
:1024700016E080915902C81799F0D0E01C9FF00136
:102480001D9FF00D1124E65AFD4F4081518162815C
:102490007381848195810E9423122196C770E9CFB0
:1024A000DF91CF911F91089540918A0250918B0244
:1024B00060918C0270918D0280918E0290918F02BA
:1024C0000C94231280918F0282958F7009F054C072
:1024D00080918C02882309F44FC080915802A0910A
:1024E000590260918A0270918B0240918D02509145
:1024F0008E02B6E08A1709F43FC090E041155105FD
:10250000C1F17F3F11F46F3FA1F1B89FF001B99F76
:10251000F00D1124E65AFD4F218172132AC020814B
:10252000621327C02281211124C023813481241702
:10253000350710F421503109241B350B283C310597
:10254000C0F420918F022F70206120938F0226E02B
:10255000289FF001299FF00D1124E15AFD4F808141
:102560008F70806180838AE892E00E94AF110C94A2
:10257000331201968770BECF0895CF92DF92EF920B
:10258000FF920F931F93CF93DF93CDB7DEB7629780
:102590000FB6F894DEBF0FBECDBF8C0185E0F80109
:1025A000DE011D9601900D928A95E1F7D8014C91BC
:1025B00011965C91119712966C9112971396CD908B
:1025C000DC90149730918A0270918B0280918D0279
:1025D00090918E02009709F46BC17F3F19F43F3F41
:1025E00009F466C1E0908C02EE2009F4C0C020918D
:1025F0008F02C816D90628F0F601E81BF90BCF01A7
:1026000004C0809590958C0D9D1DFF24F394883C0B
:10261000910578F0F12C207F09F0C6C07C2DD98A75
:10262000C88A89890E9414128AE892E00E94AF1138
:10263000B1C0822F807F09F046C0751314C03413D7
:1026400012C0611110C02F70206120938F020E9470
:1026500054128AE892E00E94AF1180918F02D80153
:1026600015968C932EC0CD2819F15F3F11F44F3F82
:10267000F9F0F62E61111CC0809158022091590288
:1026800036E0821709F45AC090E0389FF001399F74
:10269000F00D1124E65AFD4F7181571306C0708169
:1026A000471303C07281711103C001968770E9CF8F
:1026B000F62E662309F427C180918F0281608093F2
:1026C0008F02F12C20C1751308C0341306C06111AC
:1026D00004C080918F02D801C3C04D875E878D856D
:1026E0009E856A8B0E94F0116A898823E1F1662336
:1026F000D1F120918F02822F82958F7090E0029706
:1027000074F080918A0290918B0298878F8319864A
:10271000DB86CA862C87CE0107960E94AF1186E021
:10272000F801AAE8B2E001900D928A95E1F70E94C3
:1027300062120E945412FF24F394E5C04D875E8715
:102740008D859E850E945E17292F22952F7030E07F
:10275000223031050CF0CBC09F7009F0C5C0805EFF
:10276000883008F4D0C0C8010E94AF11E4CFC81669
:10277000D90608F453C0F601E81BF90BCF01883CD9
:10278000910508F450C0F12C7C2DD98AC88A89891A
:102790000E941412EAE8F2E086E0DF011D928A95B9
:1027A000E9F70E945412AFC0751314C0341312C05D
:1027B000611110C080918F02F8018583C8010E94C9
:1027C000AF1186E0EAE8F2E0DF011D928A95E9F7B1
:1027D000FE2C99C04D875E878D859E856A8B0E94F1
:1027E000F0116A89882309F4BECF662309F4BBCFB0
:1027F00020918F02822F82958F7090E002970CF4C7
:102800008ECF80918A0290918B029A8389831B825A
:10281000DD82CC822E83CE0101967FCF809590956C
:102820008C0D9D1DACCFF62E662309F49CCF75133D
:102830002EC034132CC020918F0220FD1FC0822F88
:1028400082958F70D9F0D80115962C9315978F30FB
:1028500049F08F5F982F9295907F822F8F70892BF0
:1028600015968C93C8010E94AF1186E0F801AAE882
:10287000B2E001900D928A95E1F793CF86E0F801DE
:10288000AAE8B2E001900D928A95E1F73CC04D872D
:102890005E878D859E850E94F011811140CF8091C9
:1028A0008F02816080938F02C8010E94AF112BC0FC
:1028B000662309F458CF4D875E878D859E850E94DB
:1028C000F011F82E882309F44ECF86E0F801AAE82B
:1028D000B2E001900D928A95E1F78AE892E00E94B9
:1028E000950D0E9462125DCF811139CF0CC024304A
:1028F00031050CF038CF9F7009F431CFF801958184
:10290000907F09F02CCF8F2D62960FB6F894DEBF22
:102910000FBECDBFDF91CF911F910F91FF90EF9030
:10292000DF90CF9008951F93CF93DF93CDB7DEB79D
:102930002C970FB6F894DEBF0FBECDBF4F835887DC
:1029400069877A878B879C87CE0107960E94BD1284
:10295000882369F08F8198852A853B85232BF1F1A7
:102960009F3F09F063C08F3F09F060C037C086E029
:10297000FE013796DE01119601900D928A95E1F7DE
:102980006F817885EA85FB85309741F17F3F11F4AF
:102990006F3F21F12091590230E0C9010196877003
:1029A00099274091580250E08417950709F447C0D1
:1029B00069837A83FD83EC8396E0929FD001939F95
:1029C000B00D1124A65ABD4FFE01319601900D9213
:1029D0009A95E1F7809359020E94331216E0809194
:1029E0005802909159028917C1F1189FC001112412
:1029F000865A9D4F0E94BD12882379F1E0915802BA
:102A00001E9FF0011124E65AFD4F408151816281E1
:102A10007381848195810E9423128091580290E0F5
:102A200001968770992780935802D9CF4F81588596
:102A300069857A858B859C850E942312CFCF0E9461
:102A4000EC111092590210925802EAE8F2E086E086
:102A5000DF011D928A95E9F7C1CF2C960FB6F89445
:102A6000DEBF0FBECDBFDF91CF911F910895EF92D2
:102A7000FF920F931F93CF93DF938C01892B09F45F
:102A80006CC0F12CEE24E394E8012196F8018491C6
:102A9000843740F4843008F051C0813081F08230B6
:102AA00019F15BC0853709F444C0A8F19CE7980F81
:102AB000903708F052C08F770E94BE0E41C00E5F63
:102AC0001F4FFE01C49180E28C0F883048F4C7701C
:102AD0008E2D01C0880FCA95EAF70E94161814C0FF
:102AE0008C2F0E94A70D2DC00E5F1F4FFE01C491B9
:102AF00080E28C0F883058F4C7708E2D01C0880F8B
:102B0000CA95EAF70E941C180E94BD171AC08C2FA4
:102B10000E94BE0E16C00E5F1F4FFE01C491CC2353
:102B200081F08FE99FE00197F1F700C00000C150EC
:102B3000F6CF0E5F1F4FFE01F49003C00E94A70D59
:102B40008E018F2D882309F49FCFEFE9FFE03197A5
:102B5000F1F700C000008150F5CFDF91CF911F91B8
:102B60000F91FF90EF90089508950C94B4150E9472
:102B7000B5156093CB027093CC028093CD029093F5
:102B8000CE020C94D61108950C94B7150F931F9391
:102B90000091CB021091CC022091CD023091CE0257
:102BA000602B712B822B932B1F910F910C94B715D7
:102BB0000F931F930091CB021091CC022091CD0274
:102BC0003091CE0260237123822393231F910F91B2
:102BD0000C94B7150F931F930091CB021091CC0268
:102BE0002091CD023091CE02602771278227932752
:102BF0001F910F910C94B7150C9473060E94FC154D
:102C00006093C7027093C8028093C9029093CA026E
:102C10000C94D61160E070E0CB010C94FE150F937C
:102C20001F9341E050E060E070E08A019B0104C026
:102C3000000F111F221F331F8A95D2F7C901B80157
:102C40001F910F910C94FE150F931F9341E050E0DC
:102C500060E070E004C0440F551F661F771F8A951F
:102C6000D2F78091C7029091C802A091C902B09199
:102C7000CA028A019B01082B192B2A2B3B2BC90165
:102C8000B8011F910F910C94FE150F931F9341E013
:102C900050E060E070E004C0440F551F661F771FCE
:102CA0008A95D2F740955095609570958091C702AE
:102CB0009091C802A091C902B091CA028A019B01F9
:102CC000082319232A233B23C901B8011F910F911F
:102CD0000C94FE150F931F9341E050E060E070E00C
:102CE00004C0440F551F661F771F8A95D2F7809145
:102CF000C7029091C802A091C902B091CA028A018C
:102D00009B01082719272A273B27C901B8011F91D2
:102D10000F910C94FE150F931F930091C702109111
:102D2000C8022091C9023091CA02602B712B822BFC
:102D3000932B1F910F910C94FE150F931F930091ED
:102D4000C7021091C8022091C9023091CA026023C3
:102D50007123822393231F910F910C94FE150F93DF
:102D60001F930091C7021091C8022091C9023091AF
:102D7000CA0260277127822793271F910F910C9415
:102D8000FE150895292F220F920F990F890FA82F52
:102D9000A695A695A695877051E001C0550F8A9516
:102DA000EAF785E0A89FD001112420E030E070E030
:102DB000F901EA0FFB1FE057FD4F4081CB01022EC6
:102DC00002C0969587950A94E2F7817099278195BC
:102DD00084278523842780832F5F3F4F253031054B
:102DE00039F70895292F220F920F990F890F682F15
:102DF000669566956695982F977085E0689FB001F7
:102E0000112440E050E080E0FA01E60FF71FE057A0
:102E1000FD4F208130E0092E02C0369527950A9497
:102E2000E2F721703327042E01C0220F0A94EAF73B
:102E3000822B4F5F5F4F4530510531F70895CF9298
:102E4000DF92EF92FF920F931F93CF93DF938C014A
:102E5000C090CB02D090CC02E090CD02F090CE0298
:102E60008091C7029091C802A091C902B091CA0294
:102E7000C82AD92AEA2AFB2ACFE1D0E0D701C60125
:102E80000C2E04C0B695A795979587950A94D2F70E
:102E900080FF06C0B8018C2F0E94E708019721F43B
:102EA000219760F780E001C08C2FDF91CF911F91B7
:102EB0000F91FF90EF90DF90CF900895CF93DF9325
:102EC000EC010E941F17BE010E94E708DF91CF911D
:102ED00008951F93CF93DF93EB01909155029923AF
:102EE00021F0CB010E945E1713C0882349F0CB016B
:102EF0000E941F17182F682FCE010E94C21604C00F
:102F0000CB010E94F216182FBE01812F0E94E70804
:102F1000DF91CF911F9108958091CF02859585957E
:102F2000859508958091CF028770089598E0899FD4
:102F300090011124262B2093CF020C94241620916B
:102F4000CF02809582238093CF02982F977069F4E7
:102F500030E0482F082E000C550B2417350729F0B8
:102F60008595859585950C94451608959091CF0289
:102F7000977081E009F480E00895E0910201F091FA
:102F800003018091F3028083E0910201F09103013B
:102F900090818091F202892B8083E0910201F0916F
:102FA000030190818091F102892B80838091D0026E
:102FB000882381F0E0910201F09103019081892B37
:102FC000808380910201909103010E94EF1881118A
:102FD0001092D00280910201909103010C941C0C7C
:102FE0008091F30208959091F302892B8093F3026C
:102FF000089580959091F30289238093F3020895B8
:103000008093F30208951092F30208959091F202D2
:10301000892B8093F202089580959091F202892382
:103020008093F20208951092F20208959091F102B5
:10303000892B8093F102089580959091F102892364
:103040008093F10208951092F10208958093D002C6
:1030500008951092D00208958091D0020895CF92E1
:10306000DF92EF92FF926C01EE24FF24C114D10491
:10307000E104F10421F0C701B60120E101C020E024
:10308000C72ED82EE92EFF24C114D104E104F10487
:1030900019F0285FC701B6016B017C0154E0F6947A
:1030A000E794D794C7945A95D1F7C114D104E10499
:1030B000F10419F02C5FC701B6016B017C0142E0FD
:1030C000F694E794D794C7944A95D1F7C114D104E4
:1030D000E104F10419F02E5FC701B601DC01CB0158
:1030E000B695A79597958795892B8A2B8B2B09F0F9
:1030F0002F5F822FFF90EF90DF90CF90089580E0B8
:1031000090E00E94A92121E08D3E9E4F09F020E031
:10311000822F089582E090E00C94A12183E090E05A
:103120000C94A12184E090E00C94A121682F84E00C
:1031300090E00C94AF21AB01BC018FE090E00C94C7
:10314000C121AB01BC0183E190E00C94C12160E09E
:1031500070E0CB010C94A11860E070E0CB010E94FC
:103160009B180C94A7186DEE7EEF80E090E00E9413
:10317000CD2160E082E090E00E94AF2160E083E03A
:1031800090E00E94AF211092CB021092CC021092DC
:10319000CD021092CE0260E084E090E00E94AF2168
:1031A00060E085E090E00E94AF2160E086E090E082
:1031B0000E94AF216FEF87E090E00E94AF2140E0D6
:1031C00050E0BA0188E090E00E94C12160E08DE00B
:1031D00090E00E94AF210C94AC180C94B318FC0141
:1031E000329680910E01882331F08091210387FF70
:1031F00002C09EE101C096E080E0915028F021914C
:103200002223D9F38F5FF9CF08959C01FC013296F8
:103210009FEF80E04191461789F09F3F19F44111DB
:1032200001C0982F8F5F8630A9F79F3F39F0F901D1
:10323000E90FF11D97FDFA95628308950895FC0149
:10324000329608962081261301C010823196E81725
:10325000F907C1F70895262F2695269526952E3134
:1032600068F4FC01E20FF11D677021E030E001C05D
:10327000220F6A95EAF78281282B22830895262F50
:103280002695269526952E3170F4FC01E20FF11D4E
:10329000677021E030E001C0220F6A95EAF72095BF
:1032A000828128232283089520910E01222329F070
:1032B0002091210327FD0C942B190C9405192091C2
:1032C0000E01222329F02091210327FD0C943F19A0
:1032D0000C941F1920910E01FC013296222331F02B
:1032E0008091210387FF02C08EE101C086E0DF01EB
:1032F0001D928A95E9F7089508950C947C190E940F
:103300007D1980912703843049F11092F50220E461
:1033100088E190E00FB6F894A895809360000FBE06
:103320002093600080E00E9422070E947D1983B7ED
:10333000817F846083BF83B7816083BF78948895E1
:1033400083B78E7F83BF0FB6F894A89580916000F5
:10335000886180936000109260000FBE0895089508
:10336000CF930E94A2030E944B040E94AF19C0E0B9
:103370008C2F0E949304811104C0CF5FCE30C1F71F
:1033800001C081E0CF91089508950C94C4190E9462
:10339000EC110E94100C0E9422070C94C5191F9278
:1033A0000F920FB60F9211248F939F93AF93BF93F9
:1033B0008091F502811113C080911D0390911E032D
:1033C000A0911F03B09120034196A11DB11D8093D0
:1033D0001D0390931E03A0931F03B0932003BF917E
:1033E000AF919F918F910F900FBE0F901F901895E6
:1033F00082E084BD93E095BD9AEF97BD80936E0007
:1034000008952FB7F89480911D0390911E03A09109
:103410001F03B09120032FBF0895CF92DF92EF9248
:10342000FF920F931F932FB7F89440911D03509173
:103430001E0360911F03709120032FBF6A017B015F
:10344000EE24FF248C0120E030E0C016D106E20615
:10345000F30610F4415051099A01281B390BC90198
:103460001F910F91FF90EF90DF90CF900895789487
:103470001F920F920FB60F9211248F939F93AF93C9
:10348000BF9380911D0390911E03A0911F03B091E3
:1034900020030196A11DB11D80931D0390931E036F
:1034A000A0931F03B0932003BF91AF919F918F9181
:1034B0000F900FBE0F901F901895F89481E08093A5
:1034C000E00080E28093D800E9ECF0E010828FE128
:1034D0009EE40197F1F700C000001DBA1092680049
:1034E0001CBC10BE1FBA10927A0010926E0010928F
:1034F0006F0010927100109272001082ECEBF0E0FD
:10350000108214B817B81AB81DB810BA108215B8BE
:1035100018B81BB81EB811BA0C94003F08950E9449
:103520007F18811102C00E94ED180E948A188093B2
:10353000F4020E94921890E090932203809321035A
:103540000E948E18682F70E080E090E00C94C41503
:1035500080911603089508950F931F93CF93DF93DF
:1035600000D01F92CDB7DEB78C010E94E21C8230E2
:1035700011F0843021F584E089831B830A8382E083
:103580008093E9008FEF9091E800815095FD06C08F
:1035900095ED9A95F1F700008111F5CF8091E80043
:1035A00085FF0DC040E050E063E070E0CE01019681
:1035B0000E94FF1C8091E8008E778093E8000F90B6
:1035C0000F900F90DF91CF911F910F910895CF939E
:1035D000DF9300D01F92CDB7DEB7209127032430B0
:1035E00031F523E02983805891099B838A8382E007
:1035F0008093E9008FEF9091E800815095FD06C01F
:1036000095ED9A95F1F700008111F5CF8091E800D2
:1036100085FF0DC040E050E063E070E0CE01019610
:103620000E94FF1C8091E8008E778093E8000F9045
:103630000F900F90DF91CF910895CF93DF93EC011E
:103640000E94E21C823011F08430D9F580910E0185
:10365000882339F08091210387FF03C060E282E074
:1036600002C068E081E08093E9008FEF9091E8006C
:10367000815095FD06C095ED9A95F1F700008111F6
:10368000F5CF8091E80085FF1CC080910E0181116B
:1036900005C040E050E068E070E003C070E040E04A
:1036A00050E0CE010E94FF1C8091E8008E7780934D
:1036B000E80080E2FE01A6EFB2E001900D928A954B
:1036C000E1F7DF91CF91089580912603811109C020
:1036D0000E94941E0E94F11E8091E20084608093FB
:1036E000E2000895109226030895089508950C9419
:1036F000C71942E061EC81E00E940E1E42E261ECDB
:1037000082E00C940E1E80912903833009F453C08B
:1037100030F4813071F0823009F48CC008958A3021
:1037200009F478C08B3009F45EC0893009F09AC082
:1037300020C080912803813A09F094C08091E8006C
:10374000877F8093E80080912C0390912D03892B33
:1037500021F460E286EF92E003C060E080E090E058
:1037600070E00E944A1D8091E8008B778093E8000A
:10377000089580912803813209F074C080912C0350
:1037800090912D03029708F06DC08091E800877F2B
:103790008093E8008091E80082FD05C080912703B6
:1037A0008111F8CF5FC08091F10080931603809162
:1037B000E8008B7753C080912803813A09F052C00A
:1037C00080912C0390912D03892B09F04BC080919F
:1037D000E800877F8093E8008091E80080FFFCCFBD
:1037E00080910E0136C0809128038132D9F58091F5
:1037F0002C0390912D03892BA9F58091E800877FF8
:103800008093E8000E94431E80912A0380930E015A
:103810000C94EC1180912803813221F58091E8000D
:10382000877F8093E8000E94431E80912B03809342
:103830001703089580912803813AA1F48091E8004C
:10384000877F8093E8008091E80080FFFCCF809123
:1038500017038093F1008091E8008E778093E80051
:103860000C94431E089584B7877F84BF0FB6F894E5
:10387000A89580916000886180936000109260003C
:103880000FBE80E880936100109261000E946A0C74
:103890000E94941E0E94F11E8091E2008460809339
:1038A000E20078940E9480210E94700C84E091E0F4
:1038B0000E940B0C80912703853069F40E947F19C8
:1038C000809125038823B1F30E94B019882391F3D6
:1038D0000E94E91CEFCF0E94760CECCF0C94701C78
:1038E000292F332723303105C9F064F42130310505
:1038F00081F02230310509F04CC08BE390E026EDD9
:1039000034E04BC02132310521F12232310589F1F9
:1039100040C082E190E021E135E03FC0992781304D
:10392000910571F02CF4892BA1F5E2EDF4E00DC0C6
:103930008230910541F0039761F5ECE9F4E005C0B0
:10394000EAEBF4E002C0E2EAF4E0849190E09F0147
:1039500024C06115710541F061307105D1F489E031
:1039600090E021E035E019C089E090E028EE34E0F5
:1039700014C06115710541F06130710551F481E7A2
:1039800090E023E235E009C080E490E024E935E0EE
:1039900004C080E090E020E030E0FA013183208331
:1039A00008950895CF93C82F0E94D11CC093180387
:1039B000CF91089580912703843011F081E008951C
:1039C00082E0089580911803811102C00C94DA1CE2
:1039D000089580E189BD82E189BD09B400FEFDCF73
:1039E0008091D8008F7D8093D8008091E000826024
:1039F0008093E0008091E00081FDFCCF0895CF929C
:103A0000DF92EF92FF920F931F93CF93DF93EC011E
:103A10008B016A010E94621E811133C0C114D1045E
:103A200039F0F60180819181081B190BC80FD91F4D
:103A3000E12CF12C0115110519F18091E80085FDAB
:103A400016C08091E8008E778093E800C114D104FD
:103A500049F0F60180819181E80EF91EF182E08241
:103A600085E00FC00E94621E882321F30AC089915D
:103A70008093F10001501109FFEFEF1AFF0ADACF2E
:103A800080E0DF91CF911F910F91FF90EF90DF9039
:103A9000CF90089520912E0330912F0326173707DA
:103AA00048F06115710539F42091E8002E772093D4
:103AB000E80001C0B90140E061157105A9F120914C
:103AC0002703222309F443C0253009F442C0209182
:103AD000E80023FD40C02091E80022FD32C0209183
:103AE000E80020FFE9CF4091F3002091F20030E0A0
:103AF000342BFC01CF016115710559F028303105D7
:103B000040F481918093F100615071092F5F3F4F24
:103B1000F1CF41E02830310509F040E02091E80084
:103B20002E772093E800C8CF4111C9CF0AC08091F9
:103B30002703882361F0853061F08091E80083FDE0
:103B40000AC08091E80082FFF2CF80E0089582E011
:103B5000089583E0089581E0089520912E03309127
:103B60002F032617370748F06115710539F42091A6
:103B7000E8002E772093E80001C0B901FC0120E0A5
:103B80006115710591F180912703882309F440C0E4
:103B9000853009F43FC08091E80083FD3DC08091ED
:103BA000E80082FD2FC08091E80080FFE9CF2091DE
:103BB000F3008091F20090E0922B6115710559F0AD
:103BC0008830910540F424912093F10031966150A2
:103BD00071090196F2CF21E0089709F020E0809169
:103BE000E8008E778093E800CBCF2111CCCF0AC0BC
:103BF00080912703882361F0853061F08091E8008F
:103C000083FD0AC08091E80082FFF2CF80E0089532
:103C100082E0089583E0089581E00895982F973019
:103C200058F59093E900981739F07091EC002091C5
:103C3000ED005091F00003C0242F762F50E021FFBB
:103C400019C03091EB003E7F3093EB003091ED00D6
:103C50003D7F3093ED003091EB0031603093EB000D
:103C60007093EC002093ED005093F0002091EE0053
:103C700027FF07C09F5FD3CF8F708093E90081E05B
:103C8000089580E008958091280387FF11C08091F6
:103C9000E80082FD05C0809127038111F8CF11C093
:103CA0008091E8008B770BC080912703882349F02F
:103CB0008091E80080FFF8CF8091E8008E778093B4
:103CC000E80008952091E4003091E50095E64091E8
:103CD000EC00842F817040FF22C08091E80080FDBD
:103CE0001CC080912703882391F0853091F080914A
:103CF000EB0085FD10C04091E4005091E5004217B3
:103D0000530729F39A01915011F784E0089582E056
:103D1000089583E0089581E0089580E0089540913A
:103D2000E80042FFDECF08950E94021F0E940A1F92
:103D3000E0EEF0E0808181608083E8EDF0E080815A
:103D40008F77808319BCA7EDB0E08C918E7F8C9328
:103D500080818F7E80831092260308950F931F9396
:103D6000CF93DF930E94021F0E940A1FC8EDD0E08C
:103D700088818F77888388818068888388818F7D18
:103D8000888319BC109227031092230310922503F5
:103D90001092240300EE10E0F80180818B7F808375
:103DA00088818160888342E060E080E00E940E1E8E
:103DB000E1EEF0E080818E7F8083E2EEF0E08081B2
:103DC00081608083808188608083F80180818E7F1C
:103DD0008083888180618883DF91CF911F910F91CB
:103DE0000895E8EDF0E080818F7E8083E7EDF0E0DC
:103DF00080818160808384E082BF81E0809326039C
:103E00000C94AE1EE8EDF0E080818E7F80831092EE
:103E1000E20008951092DA001092E10008951F92D6
:103E20000F920FB60F9211242F933F934F935F93EE
:103E30006F937F938F939F93AF93BF93EF93FF9372
:103E40008091E10082FF0BC08091E20082FF07C0F9
:103E50008091E1008B7F8093E1000E947F2180911F
:103E6000DA0080FF1FC08091D80080FF1BC08091C6
:103E7000DA008E7F8093DA008091D90080FF0DC038
:103E800080E189BD82E189BD09B400FEFDCF81E0FA
:103E9000809327030E94641B05C019BC109227035E
:103EA0000E94721B8091E10080FF19C08091E200A6
:103EB00080FF15C08091E2008E7F8093E2008091A8
:103EC000E20080618093E2008091D800806280935C
:103ED000D80019BC85E0809327030E94761B80914F
:103EE000E10084FF30C08091E20084FF2CC080E1BB
:103EF00089BD82E189BD09B400FEFDCF8091D80063
:103F00008F7D8093D8008091E1008F7E8093E100C7
:103F10008091E2008F7E8093E2008091E2008160D8
:103F20008093E20080912303882311F084E007C08E
:103F30008091E30087FD02C081E001C083E08093AF
:103F400027030E94771B8091E10083FF29C08091A5
:103F5000E20083FF25C08091E100877F8093E1002C
:103F600082E080932703109223038091E1008E7FEB
:103F70008093E1008091E2008E7F8093E200809147
:103F8000E20080618093E20042E060E080E00E9415
:103F90000E1E8091F00088608093F0000E94751BD7
:103FA000FF91EF91BF91AF919F918F917F916F9111
:103FB0005F914F913F912F910F900FBE0F901F90E7
:103FC00018951F920F920FB60F9211242F933F93C3
:103FD0004F935F936F937F938F939F93AF93BF9311
:103FE000CF93DF93EF93FF93C091E900CF7080915F
:103FF000EC00D82FD17080FDD0E81092E9008091BC
:10400000F000877F8093F00078940E942520109222
:10401000E9008091F00088608093F000CD2BCF7094
:10402000C093E900FF91EF91DF91CF91BF91AF91E4
:104030009F918F917F916F915F914F913F912F91C0
:104040000F900FBE0F901F9018951F93CF93DF9383
:10405000CDB7DEB7AA970FB6F894DEBF0FBECDBFBF
:10406000E8E2F3E088E08E0F9091F10091938E13D7
:10407000FBCF0E94831B8091E80083FF28C18091C1
:10408000280390912903492F50E04A30510508F048
:104090001EC1FA01E755FF4F0C949B21803821F097
:1040A000823809F014C108C080912403909125033F
:1040B000992389F082600FC080912C038F70873024
:1040C00008F005C18093E9008091EB0085FB88270B
:1040D00080F91092E9009091E800977F9093E800B2
:1040E0008093F1001092F100D0C0282F2D7F09F0AD
:1040F000EEC0882319F0823061F0E9C080912A0374
:10410000813009F0E4C0933009F080E0809325030A
:104110002EC080912A0381112AC080912C038F70B8
:104120002FEF280F263008F0D2C08093E9002091AD
:10413000EB0020FF1CC0933021F48091EB008062E3
:1041400014C09091EB0090619093EB0021E030E07F
:10415000A90102C0440F551F8A95E2F74093EA0077
:104160001092EA008091EB0088608093EB0010923F
:10417000E9008091E800877F8093E8000E94431E59
:10418000A6C08111A4C010912A031F778091E3007B
:104190008078812B8093E3008091E800877F809373
:1041A000E8000E94431E8091E80080FFFCCF8091D0
:1041B000E30080688093E300111102C082E001C037
:1041C00083E08093270383C08058823008F07FC04B
:1041D00080912A0390912B038C3D53E0950779F54C
:1041E00083E08A838AE289834FB7F894DE011396CD
:1041F00020E03EE051E2E32FF0E050935700E491DD
:1042000020FF03C0E295EF703F5FEF708E2F90E0CC
:10421000EA3010F0C79601C0C0968D939D932F5F32
:10422000243149F74FBF8091E800877F8093E800F1
:104230006AE270E0CE0101960E944A1D15C06091AD
:104240002C0370912D03AE014F5F5F4F0E946E1CD7
:10425000BC01892BE1F19091E800977F9093E800F1
:1042600089819A810E94AD1D8091E8008B778093AF
:10427000E8002DC0803859F58091E800877F809351
:10428000E800809123038093F1008091E8008E770D
:1042900073CF81111CC090912A039230C0F4809199
:1042A000E800877F8093E800909323030E94431ED9
:1042B00080912303811106C08091E30087FD02C035
:1042C00081E001C084E0809327030E94791B8091E4
:1042D000E80083FF0AC08091E800877F8093E800B0
:1042E0008091EB0080628093EB00AA960FB6F89461
:1042F000DEBF0FBECDBFDF91CF911F91089508950E
:10430000CF93809127038823A1F0C091E900CF705B
:104310009091EC00892F817090FD80E8C82B10925D
:10432000E9008091E80083FD0E942520CF70C093B2
:10433000E900CF910895EE0FFF1F0590F491E02D55
:104340000994F999FECF92BD81BDF89A992780B55D
:104350000895A8E1B0E042E050E00C94D521262F6A
:10436000F999FECF92BD81BDF89A019700B402166B
:1043700039F01FBA20BD0FB6F894FA9AF99A0FBE19
:1043800008950396272F0E94B0210E94AF21252F68
:104390000E94B021242F0C94B0210196272F0E9457
:1043A000B0210C94AF21DC01CB01FC01F999FECFC7
:1043B00006C0F2BDE1BDF89A319600B40D924150AD
:0A43C0005040B8F70895F894FFCFBD
:1043CA002000D102A81A1D1BAB1AE71AAC1A010069
:1043DA000D010D020D030D040D050D000C010C025B
:1043EA000C030C040C050C000B010B020B030B0451
:1043FA000B050B000A010A020A030A040A050A004D
:10440A00090109020903090409050900080108024A
:10441A000803080408050800070107020703070440
:10442A00070507000601060206030604060506003C
:10443A00050105020503050405050500040104023A
:10444A000403040404050400030103020303030430
:10445A00030503000201020202030204020502002C
:10446A00010101020103010401050100000100022A
:08447A0000030004000500002E
:00000001FF
