:100000000C948F030C94AC030C94AC030C94AC03D1
:100010000C94AC030C94AC030C94AC030C94AC03A4
:100020000C94AC030C94AC030C94172E0C94E92E96
:100030000C9484240C94AC030C94AC030C94AC038B
:100040000C94AC030C94AC030C94AC030C94AC0374
:100050000C94AC030C94EC240C94AC030C94AC0303
:100060000C94AC030C94AC030C94AC030C94AC0354
:100070000C94AC030C94AC030C94AC030C94AC0344
:100080000C94AC030C94AC030C94AC030C94AC0334
:100090000C94AC030C94AC030C94AC030C94AC0324
:1000A0000C94AC030C94AC030C94AC030204050454
:1000B00008040B040E0411041404BB19BB19ED1938
:1000C000ED19331A531AAC1B0A1C951A321B431B29
:1000D000431BA31B0A1C0A1C041C8C1C8C1C9E1C8E
:1000E0009E1C951C9E1C9E1C9E1C8C1C8C1C9A1C71
:1000F0009E1C9E1C9A1C5E2854286C28C528CC285F
:10010000CC28C528CC28CC288D28CC289728A128F5
:10011000CC28CC28CC28CC28C528CC28CC28C5284D
:10012000CC287A28CC28CC28B128B128B128B128ED
:10013000B128B128B128B128B128C728CC285E2819
:100140005128CC28CC28CC28CC28CC28CC28CC288A
:10015000CC28CC28CC28C728CC28CC28C528CC280B
:10016000AF28AF28AF28AF28AF28AF28AF28AF28D7
:10017000AF28C728562F7D2F6F307D2F6F30C92FA6
:10018000EC2F6F30423051303500E000E100E300E9
:100190004A0000001E00140004001D004D00E20093
:1001A0001F001A0015001B0050002B422000090000
:1001B00016000600E6002C002100130017001900AD
:1001C00001514A0022000A00070005000000005CFF
:1001D0002F002E0000002B000000025130002D00E7
:1001E00000002B000000E20023000D000B000E00B9
:1001F00000004C0024000F001100100001514A00C3
:100200002500180008003600E600280026001C0023
:100210000C00370051002A0027003300120038007C
:100220005000E2003100E000E100E3004F00000078
:1002300001000100010001000100000001001E0298
:10024000340031020100010001001F0234023100BC
:1002500001000100010020022F0201000100010045
:100260000100210230022A000100010001002202E7
:100270002E005700000001000100010000000100F5
:100280000000010001000100000001000000010069
:10029000010023022D002D0200000100AC00240209
:1002A0002602510001000100AE0025022702520083
:1002B00001000100AB0056002F00500001000100BA
:1002C0000100350030004F00010001000100010075
:1002D0000100010001000000010001000100010017
:1002E00001000000010042003E003A000100010050
:1002F000010043003F003B000100010001004400F9
:1003000040003C00010001000100450041003D00AB
:10031000010001000100A900AA00A80000000100DE
:1003200001000100000001000000010001000100C7
:1003300000000100000001000100010001000100B7
:10034000000001000100240021001E000100010046
:100350000100250022001F0001000100010026000D
:10036000230020000100010001000100270001001E
:100370000100010001000100010001000100000076
:1003800000047F3F1F643214643214783C1E1E1434
:100390000A052223252628292A2C2D2F30323335F1
:1003A00036383A3B3D3E4042434547494A4C4E5021
:1003B00051535557595A5C5E6062646668696B6D4B
:1003C0006F71737577797B7D7F81838587898A8C4F
:1003D0008E90929496989A9C9E9FA1A3A5A7A8AA56
:1003E000ACAEAFB1B3B4B6B8B9BBBCBEBFC1C2C38B
:1003F000C5C6C7C9CACBCCCDCED0D1D2D2D3D4D525
:10040000D6D7D7D8D9D9DADADBDBDBDCDCDCDCDC4D
:10041000DDDDDDDDDCDCDCDCDCDBDBDBDADAD9D925
:10042000D8D7D7D6D5D4D3D2D2D1D0CECDCCCBCAB3
:10043000C9C7C6C5C3C2C1BFBEBCBBB9B8B6B4B3D9
:10044000B1AFAEACAAA8A7A5A3A19F9E9C9A98966F
:100450009492908E8C8A89878583817F7D7B797742
:100460007573716F6D6B6968666462605E5C5A5922
:1004700057555351504E4C4A4947454342403E3DE3
:100480003B3A3836353332302F2D2C2A2928262571
:100490002322FFAA7F554000010101010101010152
:1004A0000102020202020202020203030303030327
:1004B00003030404040404040405050505050606F5
:1004C00006060607070707070808080809090909B3
:1004D0000A0A0A0B0B0B0C0C0C0D0D0D0E0E0E0F59
:1004E0000F0F1010111111121213131414151516E9
:1004F000161717181819191A1A1B1B1C1D1D1E1E5A
:100500001F202021222223242425262627282929AA
:100510002A2B2C2D2D2E2F303132323334353637D5
:1005200038393A3B3C3D3E3F4041424344454647D3
:1005300048494A4C4D4E4F50515354555658595AAC
:100540005B5D5E5F616264656668696B6C6D6F7050
:1005500072737577787A7B7D7E8082838587888ABF
:100560008C8E8F91939596989A9C9EA0A2A3A5A7F6
:10057000A9ABADAFB1B3B5B7BABCBEC0C2C4C6C9F2
:10058000CBCDCFD1D4D6D8DBDDDFE2E4E7E9EBEEAB
:10059000F0F3F5F8FAFDFF04033000000016034500
:1005A00000720067006F0044006F00780020004573
:1005B000005A00000016034500720067006F0044F7
:1005C000006F007800200045005A00000004030975
:1005D0000409023B00020100A0FA09040000010323
:1005E00001010009211101000122400007058103DA
:1005F00008000A090401000103000000092111019B
:10060000000122C0000705820320000A1201100128
:1006100000000008EDFE07130100010203010501BF
:100620000902A10185020901A10005091901290595
:10063000150025019505750181029501750381015C
:100640000501093009311581257F9502750881065C
:1006500009381581257F950175088106050C0A3832
:10066000021581257F950175088106C0C005010925
:1006700080A10185031A81002A8300160100260348
:1006800000950175108100C0050C0901A1018504C8
:100690001A01002A9C02160100269C029501751081
:1006A0008100C005010906A1018505050719E0299A
:1006B000E715002501950875018102050719002934
:1006C000EF1500250195F075018102050819012932
:1006D00005950575019102950175039101C005010C
:1006E0000906A101050719E029E71500250195086C
:1006F000750181029501750881010507190029FF1F
:10070000150026FF009506750881000508190129C6
:1007100005950575019102950175039101C011249C
:100720001FBECFEFDAE0DEBFCDBF12E0A0E0B1E048
:10073000EAEAF4E602C005900D92A230B107D9F7BB
:1007400023E0A2E0B2E001C01D92AF38B207E1F7AA
:100750000E94392B0C9453320C94000080B38C709F
:1007600080BB81B3836F81BB089584B1807F84B9DE
:1007700085B1807F85B98AB1837F8AB98BB1837F48
:100780008BB93E9846980895CF93E82F873080F52F
:100790008091060190910701892B09F047C0CE2F67
:1007A00064E670E080E40E945F15909307018093F7
:1007B0000601892BD1F464E670E082E10E94B6154F
:1007C0009093070180930601892B79F481E090E0F2
:1007D00001C0880FCA95EAF764E670E080950E9430
:1007E000B6159093070180930601CF910C940B16D8
:1007F00090E0FC013797E730F105C0F4EA5AFF4F6B
:100800000C94CB30209A289811C0219A29980EC0B8
:10081000229A2A980BC0239A2B9808C0529A5A9869
:1008200005C0539A5B9802C03E9A4698CF910895AE
:10083000CF93873008F03FC0809106019091070167
:10084000892B09F041C064E670E080E40E945F15E6
:100850009093070180930601892B11F0C0E027C017
:1008600064E670E083E10E94B615909307018093DF
:100870000601892B99F764E670E081E40E945F1518
:100880009093070180930601892B41F784E690E05D
:100890000E94E61597FF05C090930701809306011B
:1008A000DDCFC82FC09510920701109206010E945B
:1008B0000B168C2F0AC09FB18FB1807F86958695CD
:1008C0009370892B809501C080E0CF9108950895A1
:1008D00008950C9468040E94940590E09093070199
:1008E000809306010E94B5030E94AE03A1E1B2E02D
:1008F000E3E0F2E08EE08E0F11921D928E13FCCF9A
:100900008EE00E94AA0C0C94FA060E94940590E0D6
:1009100090930701809306010E94B5030E94AE03E5
:10092000E3E0F2E08EE08E0F11928E13FDCF08957A
:10093000CF92DF92EF92FF920F931F93CF93DF93AB
:100940008091060190910701892B91F0809102021C
:100950008F5F8093020281110BC00E94940590E08A
:100960009093070180930601892B11F40E940605DC
:1009700091E1E92E92E0F92E08E112E0C0E0D12CDD
:1009800087E0C82ECC0E8C2F0E94C4038C2D0E94B1
:10099000C4038C2F0E941804F7019081981719F056
:1009A0008083D1E001C0D0E08C2D0E941804F801B2
:1009B0009081981719F0808381E001C080E0D82BE6
:1009C000DD2A0E94B503CF5FFFEFEF1AFF0A0F5F2A
:1009D0001F4FC730A9F62D2D4EE063E072E081E194
:1009E00092E00E941C0D0E94040781E0DF91CF91EC
:1009F0001F910F91FF90EF90DF90CF900895E82F17
:100A0000F0E0ED5FFD4F80810895089556985E985F
:100A100025982D9826982E9827982F988FEF90E05C
:100A2000909389008093880090938B0080938A0034
:100A300090938D0080938C00259A2D9A2FEF80E75C
:100A400092E0215080409040E1F700C00000269ADB
:100A50002E9A2FEF80E792E0215080409040E1F7FE
:100A600000C00000279A2F9A2FEF80E792E02150D4
:100A700080409040E1F700C0000025982D982FEFAE
:100A800080E792E0215080409040E1F700C00000F4
:100A900026982E982FEF80E792E0215080409040DA
:100AA000E1F700C0000027982F9856985E98259887
:100AB0002D9826982E9827982F98089589EA809344
:100AC000800089E08093810024982C983F988AB117
:100AD0008F7C8AB96E98479A8BB180638BB9769A6E
:100AE0000E94172360932C0370932D0380932E0391
:100AF00090932F0367708FEF689FB0011124759555
:100B0000679575956795772770938900609388003E
:100B100070938B0060938A0070938D0060938C00BB
:100B20000E9406050C94670480E290E09093070110
:100B30008093060180911F0281110EC00E945915F9
:100B400081E080931F022FEF83ED90E321508040DE
:100B50009040E1F700C0000064E670E080E40E948D
:100B60005F159093070180930601892B09F04EC011
:100B700064E670E080E00E94B615909307018093D0
:100B80000601892B09F042C064E670E080E00E9413
:100B9000B6159093070180930601892BB9F564E699
:100BA00070E08FE30E94B6159093070180930601D1
:100BB000892B61F50E940B1664E670E080E40E94C8
:100BC0005F159093070180930601892BF9F464E681
:100BD00070E08CE00E94B6159093070180930601A7
:100BE000892BA1F464E670E080E00E94B615909332
:100BF000070180930601892B49F464E670E08FE3D6
:100C00000E94B61590930701809306010E940B166F
:100C100080910601089510922C0310922D031092DA
:100C20002E0310922F0384E0806180932C03609147
:100C30002C0370912D0380912E0390912F030E941D
:100C40001B230C9427230F931F93CF93DF939C01B7
:100C50003A9521153F4148F5EB018C0190FF03C007
:100C600080EEFB01099511FF03C081EEFE0109959D
:100C700012FF03C082EEFE01099513FF03C083EE4D
:100C8000FE0109950115104180F084EEFE010995E1
:100C900085EEFE01099586EEFE01099587EEFE01BF
:100CA000DF91CF911F910F910994DF91CF911F9107
:100CB0000F910895877091E001C0990F8A95EAF726
:100CC000892F0E9449220C948222877091E001C0F2
:100CD000990F8A95EAF7892F0E9449220C94822263
:100CE000877091E001C0990F8A95EAF7892F0E94D9
:100CF0004F220C948222877091E001C0990F8A954F
:100D0000EAF7892F0E944F220C948222CF93DF931F
:100D1000EC01805E9109089710F0209719F465E6C0
:100D200076E002C06AE576E0CE010E9423068C2FB1
:100D3000DF91CF910C94C717CF93DF93EC010E9402
:100D40000019CE01805E9109089710F0209719F4E0
:100D50006BE776E002C060E776E0CE01DF91CF91ED
:100D60000C942306CF93DF93EC010E948606CE01FC
:100D7000DF91CF910C949C0681E0089581E0089565
:100D80000C94BE061F93CF93DF9300D000D01F9228
:100D9000CDB7DEB749835A832091590289819A8160
:100DA000211112C0662349F00E94B321182F682F29
:100DB00089819A810E94562103C00E948621182FA2
:100DC00069817A81812F04C00E94B32169817A816F
:100DD0000F900F900F900F900F90DF91CF911F9178
:100DE0000C94F609FC0140815181628173818481F8
:100DF0000C94C2060E94E622811102C00E94832345
:100E00000E94760D0C945E050C946904282F2F70B7
:100E100041F0822F90E02A3010F44D960895069705
:100E2000089587E290E0089508950C9414070C94B7
:100E3000150708950E947C1C0E9419072FEF84E378
:100E40009CE0215080409040E1F700C000000C94ED
:100E500012250F931F93CF93DF938C010E94F2060C
:100E6000EC01B8010E94C006882309F4B5C2B8019C
:100E7000CE010E94EA0D882309F4AEC2B801CE016A
:100E80000E941815882309F4A7C2CB3CFCE5DF07B4
:100E900041F4F8018281882309F49EC20E940C0F5C
:100EA0009BC2CC3C8CE5D80708F0D1C1C33C9CE583
:100EB000D90761F4F8018281882309F48DC20E9468
:100EC00033228272F1F00E94F01286C2C43CECE53B
:100ED000DE07D0F0F8018281C73CFCE5DF0709F4AA
:100EE0008BC108F09BC1C53CECE5DE0709F48AC163
:100EF00008F08EC1882309F46FC20E9433228272E7
:100F000011F30E94E31268C2C631FCE5DF0708F066
:100F10003CC1C2308CE5D80708F413C1F8018281C6
:100F2000882309F415C10E94E622811102C00E94A3
:100F300083230E94F92290937D0380937C03C03128
:100F4000FCE5DF0709F4BFC008F03FC0C8309CE5EE
:100F5000D90709F496C0F0F4C430FCE5DF0709F4C2
:100F600083C068F4C2309CE5D90709F473C0C3306C
:100F7000DC4509F0DDC080917C03826072C0C63020
:100F8000FCE5DF0709F46AC008F077C080917C03B4
:100F9000886067C0CC309CE5D90709F481C058F45B
:100FA000CA30FCE5DF0709F470C008F075C0809115
:100FB0007C03806856C0CE309CE5D90709F474C024
:100FC00008F07DC080917C0389C0CB3FFCE5DF0742
:100FD00009F44DC008F5C3319CE5D90709F47BC07D
:100FE00068F4C131FCE5DF0709F471C0C231DC45AA
:100FF00009F09EC080917C038F7733C0C5319CE59A
:10100000D90709F472C008F486C0CA3FDC4509F06C
:101010008FC080917D033EC0CF3F8CE5D80709F497
:101020005FC058F4CD3FECE5DE0709F444C008F496
:101030003FC080917D0382602DC0C1308DE5D8070F
:1010400009F473C008F45DC0C230DD4509F070C01A
:1010500080E06CC080917C03816003C080917C0340
:10106000806180937C0364C080917C0311C0809177
:101070007D03826080937D035BC080917C038062EE
:10108000F0CF80917C038064ECCF80917C038860FA
:101090008460E7CF8160EECF80917C038E7FE1CFCB
:1010A00080917C038D7FDDCF80917C03877FD9CFBA
:1010B00080917D0318C080917D038D7FDBCF80916F
:1010C0007C038F7ECECF80917C038F7DCACF8091B1
:1010D0007C038F7BC6CF80917C03877F8B7FC1CFC2
:1010E00080917D038D7F8E7FC5CF80917C0382FBB5
:1010F000222720F991E0922790FB82F990FB83F957
:10110000B0CF80917D03982F909591708E7F892B21
:1011100090FB81F9AFCF80917C0387FB222720F9D8
:1011200091E0922790FB87F99CCF81E00E94852374
:1011300080917C0390917D030E940A230E947C1C75
:101140004BC1C1159CE5D90751F0C130DC4579F0A0
:10115000C801DF91CF911F910F910C94BC06F8014B
:101160008281882309F438C10E941A0735C1F80129
:101170008281882309F430C18091F802982F9095DC
:1011800090FB80F98093F80227C1C631FCE5DF07A8
:1011900039F50E943322282FF801828140911801ED
:1011A00050911901882379F02A7A91E009F490E0AE
:1011B00090932002911102C069E201C065E3CA0167
:1011C0000E94EF230AC080912002811102C069E2CF
:1011D00001C065E3CA010E94FA230E948222FCC07A
:1011E000C23CDC4509F0B4CFF8018281882309F4C0
:1011F000F3C00E94FE12F0C0882309F4EDC00E94E3
:10120000A110EAC0882309F4E7C00E948510E4C059
:10121000882309F4E1C00E949210DEC0C93C9CE51D
:10122000D90731F4882309F4D7C00E94BF10D4C075
:10123000CA3CDC4530F4882309F4CEC00E94B010CB
:10124000CBC0882309F4C8C00E94CE10C5C0C33DDE
:10125000FCE5DF0749F4F8018281882309F4BCC06A
:1012600088E10E94F312B8C0C43D8CE5D80708F0AD
:1012700069C0F8018281CF3CFCE5DF0771F4882367
:1012800009F4AAC00E94040F863028F00E94040FBF
:10129000883008F436CE86E0E4CFC03D9CE5D9071F
:1012A00000F5CD3CECE5DE0729F4882309F494C071
:1012B00081E0D7CFCE3CDC4530F4882309F48CC0E4
:1012C0000E941D0F89C0882309F486C00E94040F64
:1012D000823028F00E94040F853008F412CE82E09C
:1012E000C0CFC13D9CE5D90771F4882309F474C0CF
:1012F0000E94040F8F3028F00E94040F843108F4FC
:1013000000CE8FE0AECFC23DDC4570F4882309F4F7
:1013100063C00E94040F893028F00E94040F8E30B1
:1013200008F4EFCD89E09DCF882309F455C00E94D1
:10133000040F853128F00E94040F873108F4E1CDB5
:1013400085E18FCFCD3DFCE5DF0749F4F8018281CF
:10135000882309F441C082E00E94DA2B3DC0CE3DD3
:101360008CE5D80738F5C53D9CE5D90731F4F8017F
:101370008281882389F183E274CFC53DECE5DE07E5
:1013800078F4F8018281882339F10E94040F8931B1
:1013900028F00E94040F823208F4B3CD89E161CFB6
:1013A000CC3DDC4509F0D4CEF80182818823A1F040
:1013B00080E0D2CFCE3D8CE5D80739F4F8018281A8
:1013C000882351F00E94832307C0CE018A5F9C4589
:1013D000099708F4A3CDBCCE80E0DF91CF911F9197
:1013E0000F91089580E090E00895089596E0799F28
:1013F000F001112494E5899FE00DF11D1124E60F01
:10140000F11DEE0FFF1FE857FE4F8591949108954F
:10141000880F991FFC01E058FC4F85919491089525
:10142000CF93DF930E94F6090E94D30BEC01811544
:1014300020E59207F0F5811530E4930708F029C103
:10144000883E910500F5803E910508F0A8C1883AD4
:10145000910570F4853A910508F0A4C0813091059A
:1014600009F49DC108F44EC1049708F098C14AC11F
:101470008F3B910508F4A1C0803C910508F442C15E
:10148000805C9109F9C0811540E2940758F4C115B8
:1014900081E0D80708F083C1C03FD10508F432C10C
:1014A000D0657DC1811520E3920708F0E9C09F70E7
:1014B000E3C0811535E5930708F044C0811544E584
:1014C000940708F0FDC0C11582E5D80708F5C115DD
:1014D00021E5D20708F0E0C08C2F837021E030E0D6
:1014E00002C0220F331F8A95E2F73C68CE0174E0F8
:1014F000969587957A95E1F78370382BCF70C695CE
:10150000C69540E2C49FE0011124C22BD32B47C1F2
:101510002C2F26952695CE0183709927C115D3458A
:1015200008F0BFC040E2249F90011124C1E0D0E048
:1015300002C0CC0FDD1F8A95E2F72C2B3D2BE90171
:10154000DC682DC181154AE59407A0F4C11589E531
:10155000D80708F0C4C0C11526E5D20708F4B5C005
:10156000C11538E5D30708F4CDC0DC2FCC27C06FF8
:10157000D06A15C181159B4508F4C4C0C1158CE51E
:10158000D80708F4BCC0CE0190568115904208F0EF
:10159000B9C08D2F8F710E94670CDD27D0628F71CB
:1015A000D82BFDC0853A910509F4AFC0863A910564
:1015B00009F0AEC0C2E8D0E4F2C0883A910509F45F
:1015C000AAC0893A910509F4A9C08A3A910509F49B
:1015D000A8C08B3A910509F4A7C08C3A910509F48B
:1015E000A6C08B3B910509F4A5C08C3B910509F47D
:1015F000A4C08D3A910509F4A3C0803B910509F47C
:10160000A2C08E3A910509F4A1C08F3A910509F460
:10161000A0C0813B910509F49FC0823B910509F46C
:101620009EC0833B910509F49DC0843B910509F45C
:101630009CC0853B910509F49BC0863B910509F44C
:101640009AC0873B910509F499C0883B910509F43C
:1016500098C0893B910509F497C08D3B910509F429
:1016600096C08E3B910509F495C08A3B910509F41B
:1016700094C0C0E0D4E493C00E94080AEC018FC07B
:101680009927D3FF03C0EC01D86C89C0EC01D06C62
:1016900086C0DF70D06A83C0DC2FCC27C16FD06AD0
:1016A0007EC040E2249F90011124C1E0D0E002C03E
:1016B000CC0FDD1F8A95E2F7C22BD32BDA686FC0FF
:1016C000D82FCC27C46FD06A6AC08C2F0E94670CB9
:1016D0008F71C82FD0E0DC2FCC27D06260C08C2F58
:1016E0008F700E94670C94E0D695C7959A95E1F7A4
:1016F000CF70D0E0DC2FCC27D069C82B50C0DD27BD
:10170000D0664DC0C0E0D0E04AC0C1E8D0E447C0D8
:10171000C3E8D0E444C0C2EED4E441C0C9EED4E48E
:101720003EC0CAEED4E43BC0C5EBD4E438C0C6EB3F
:10173000D4E435C0C3EBD4E432C0C4EBD4E42FC04E
:10174000C7EBD4E42CC0CCECD4E429C0CDECD4E479
:1017500026C0C3E8D5E423C0CAE8D5E420C0C2E966
:10176000D5E41DC0C4E9D5E41AC0C1E2D6E417C06F
:10177000C3E2D6E414C0C4E2D6E411C0C5E2D6E4A4
:101780000EC0C6E2D6E40BC0C7E2D6E408C0CFE67E
:10179000D4E405C0C0E7D4E402C0CAE2D6E4CE0176
:1017A000DF91CF9108958238910569F1B0F48133CA
:1017B000910509F46DC048F48932910509F463C0BC
:1017C0008A32910509F469C008958533910509F4B9
:1017D00055C089339105B9F00895833E910569F1AB
:1017E00038F4803E9105B1F0823E910509F10895EB
:1017F000863E9105A9F1873E9105B9F1843E910598
:1018000009F064C023C020917C0320FD4FC021FD5E
:101810004DC0089580917C0380FD44C080917D037C
:1018200080FF44C080917C0384FD42C083EE4DC0A4
:1018300080917C0382FF38C0F5CF80917C0382FDCC
:1018400033C080917D0380FD31C0ECCF80917D035A
:1018500081FF32C080917C0384FD2AC087EE35C0B1
:1018600080917C0383FF26C0F5CF80917C0383FDAC
:1018700021C080917D0381FD1FC0ECCF80917C034E
:1018800085FD1CC01DC080917C0385FD19C016C05C
:1018900080917C0386FD16C017C080917C0386FD75
:1018A00013C010C089E311C082EE0FC080EE0DC0DE
:1018B00080E00BC086EE09C084EE07C089E205C057
:1018C00085E303C08AE201C081E390E0089590912E
:1018D0007C0392FF0DC0282F2871283019F4877FD0
:1018E000846006C0282F2471243011F48B7F886017
:1018F00093FF0DC0282F2871283119F4877E846149
:1019000006C0282F2471243111F48B7E8861209128
:101910007D0320FF0DC0382F3871383019F4877FD0
:10192000816006C0382F3171313011F48E7F8860AC
:1019300021FF0DC0282F2871283119F4877E81617D
:1019400006C0282F2171213111F48E7E886194FD0B
:10195000877E0895CF93C82F90E00E94D130809366
:10196000220290932302282FFC019BEF8E2F821BD3
:101970008C1710F49193FACFCF9108950F931F9382
:10198000CF93DF931092210250912202E52FF09124
:10199000230240E0A62FB0E07BEFCAEFD0E09E2FFD
:1019A000951B9817D0F490819B3FA9F0292F30E028
:1019B000691728F08D01021B130B980106C08E01D8
:1019C000021B130B98012A0F3B1F2530310514F021
:1019D000708301C041E03196E2CF40932102DF9154
:1019E000CF911F910F910895CF93DF93109224020E
:1019F0005091220230912102DB01EC01E52FF091A0
:101A0000230290E08E2F851B841778F489916C91C6
:101A1000681741F060816B3F21F420838C9331E0A3
:101A200001C091E031961196EDCF30932102909351
:101A30002402DF91CF910895DF92EF92FF920F93EE
:101A40001F93CF93DF9300D0CDB7DEB78C017B011E
:101A5000D22E4A830E94B6246AEF70E00E94A3301F
:101A6000282F809121024A81882341F1622F842FFF
:101A700029830E94BE0C29814A81DD2069F0B701CB
:101A8000C8010F900F90DF91CF911F910F91FF90A0
:101A9000EF90DF900C94F40C80912102882379F36D
:101AA000809124028111EBCF0F900F90DF91CF91A5
:101AB0001F910F91FF90EF90DF900895DD2081F34B
:101AC000DECFCF93DF9397FF0DC0FB01228122234E
:101AD00049F0EC010E948C0DCE019F770E94CD0D44
:101AE0000E94B60D81E0DF91CF9108958CE090E0E7
:101AF0000E940B3290E0A0E0B0E08093300390931E
:101B00003103A0933203B0933303089560913003FF
:101B10008CE090E00C941F320E94332280933403B7
:101B20000E94462280913003813071F048F082306B
:101B300081F08430A1F486EE0E94681988E10DC01E
:101B400082EE0E94C7170BC088E193E00E94B206A4
:101B500006C082EE0E94C71787E50E9468198FE3CE
:101B60009CE90197F1F700C00000089580913003CF
:101B7000813039F040F0823031F0843051F488E225
:101B800006C08CE204C082EE0E94001902C00E94CE
:101B90006819809134030C9443220F931F93CF93C1
:101BA000DF938C01CCE0D0E0C8010C2E02C09695EA
:101BB00087950A94E2F78F700E9406070E946819C1
:101BC0002497CC3F8FEFD80779F7DF91CF911F9102
:101BD0000F9108950F931F93CF93DF93EC018B0127
:101BE000FB018281882319F1C33EFCE5DF07C1F0C8
:101BF00050F4C13EECE5DE0781F0C23EFCE5DF07B4
:101C0000B1F481E010C0C43E8CE5D80759F0C53E60
:101C1000ECE5DE0761F484E006C01092300305C0F5
:101C200082E001C083E0809330030E94860DB801FA
:101C3000CE01DF91CF911F910F910C94610DAF9266
:101C4000BF92CF92DF92FF920F931F93CF93DF93B8
:101C5000D62E372FE82FF0E0711106C0E956FB4F62
:101C60006491762F862F75C0C72FD0E0E956FB4FC1
:101C70002491F22E022F10E046E0649FC00111244F
:101C8000EFEFF0E0BF010E94A330AB016BEA640309
:101C9000C001659F900D11248D0D911D8D0D911D1D
:101CA000982F990F890FDF01AC1BBD0B0A9FB00164
:101CB0000B9F700D1A9F700D1124972F839FD001D9
:101CC0001124AB2FBB276F01CA1ADB0A0C9DD00170
:101CD0000D9DB00D1C9DB00D11245F01A81AB10817
:101CE000AC9E6001AD9ED00CBC9ED00C1124CD2DBD
:101CF000DD27EC1BFD0B0E9FE0010F9FD00D1E9FFB
:101D0000D00D1124ED2F4230510591F04CF44115C6
:101D10005105E1F041305105B9F4E22F2B2F16C0E7
:101D20004430510569F044F04630510579F00CC05B
:101D3000E22F272F9D2F0AC0272F9F2DEB2F06C0A4
:101D4000E72F922F2D2F02C0E72F9B2F6E2F722F80
:101D5000892FDF91CF911F910F91FF90DF90CF904E
:101D6000BF90AF9008950895CF93DF93762FE90148
:101D7000682F842F0E941F0E798368838A83DF91E6
:101D8000CF91089580913503282F269530E02115B5
:101D9000310519F48170826005C02532310524F0C7
:101DA0008170886480933503089588E090E00C94F6
:101DB0001332CF93DF9300D000D0CDB7DEB7AB01A5
:101DC000BC0149835A836B837C830E94C20E498184
:101DD0005A816B817C8188E090E00F900F900F908A
:101DE0000F90DF91CF910C943132E5E3F3E083E083
:101DF000808311828FEF828383831482608171815B
:101E0000828193810C94D90E8091350380FF02C0AA
:101E10008695089580E0089580913903833018F401
:101E20008F5F809339036091350370913603809101
:101E30003703909138030C94D90E8091390388238D
:101E400019F0815080933903609135037091360306
:101E500080913703909138030C94D90E60910C0156
:101E600070E08091350380FF0AC08091290224E050
:101E7000829FC0011124865C9C4F0C946914809150
:101E8000280290910B01891780F724E0829FF001CE
:101E90001124E65CFC4F1182108212828F5FF3CF17
:101EA0009091350390FF13C09091280220910B016F
:101EB000921758F434E0939FF0011124E65CFC4F34
:101EC0008183608342839F5FF3CF0C942E0F08952C
:101ED000CF93DF9300D000D0CDB7DEB7909135031C
:101EE00090FF0AC09E012F5F3F4F0E94B40E4B81AE
:101EF00069818A810E94500F0F900F900F900F9070
:101F0000DF91CF910895CF93DF93EC01EC81F0E066
:101F1000EE56FC4F4491E5E3F3E0628181810E943B
:101F2000680F8C818F5F8C83DF91CF910895CF9361
:101F3000DF93EC01E5E3F3E0438162818C810E9451
:101F4000680F8C818F5F8C83DF91CF9108950F9301
:101F50001F93CF93DF9300D000D0CDB7DEB78C01B5
:101F60008091250281110AC09E012F5F3F4F4FEFE4
:101F70006FEF0E94B40E8A8180932502F80184815C
:101F8000813051F028F0823061F4409125020AC07E
:101F90008091250240E007C06091250240E080E08A
:101FA00003C040E080E060E00E94500FF80124810F
:101FB00030E0C901019663E070E00E94B73084838D
:101FC0000F900F900F900F90DF91CF911F910F9175
:101FD0000895AF92BF92CF92DF92EF92FF920F934C
:101FE0001F93CF93DF9300D000D0CDB7DEB7182F6B
:101FF000F62E042FE22E9091350390FF6DC0E92F4D
:10200000E695AE2FB0E0AE52BE4F8C918093310278
:102010009E7F923061F49E012F5F3F4F812F0E947F
:10202000B40E4B8169818A810E94500F43C0823077
:1020300019F4009138033EC0863019F4109136032C
:1020400039C08930D9F38931A9F5E9518E2F8170D2
:10205000D82EE695F0E0EE56FB4FA590B490C12C3B
:10206000BB2460910A01C61618F5EC2DF0E0EA9D3C
:10207000C001EB9D900DFA9D900D112470E00E941F
:10208000A330812FD11002C0860F01C0861B909112
:1020900028029F01290F311D220F331F220F331FEA
:1020A000265C3C4F402F6F2D0E94B40EC394D9CFB5
:1020B0000E942E0F10933603F092370300933803DB
:1020C000EE2051F060913503709136038091370313
:1020D000909138030E94D90E0F900F900F900F909F
:1020E000DF91CF911F910F91FF90EF90DF90CF90F4
:1020F000BF90AF900895E5E3F3E09181282F4381ED
:1021000062818CE0890F0C94E90F81E00C947B10C4
:10211000E5E3F3E09181282F4381628184EF890F09
:102120000C94E90F81E00C948810E5E3F3E0628100
:102130002FEF620F08F46FEF282F438181810C94F9
:10214000E90F81E00C949510E5E3F3E062812FEF55
:10215000621B08F460E0282F438181810C94E90F11
:1021600081E00C94A410E5E3F3E043812CE0420FFE
:1021700008F44FEF282F628181810C94E90F81E0F0
:102180000C94B310E5E3F3E043812CE0421B08F428
:1021900040E0282F628181810C94E90F81E00C944A
:1021A000C21020E00C94E90FFF920F931F93CF937E
:1021B000DF93EC01F12C0FEF10E060910A01F616AD
:1021C000E0F42091280230E02F0D311D220F331F43
:1021D000220F331F265C3C4F70E0C8010E94B730CD
:1021E000962F8C814091380360913703F99E800DC2
:1021F00011240E94B40EF394E0CF0E942E0F9A8116
:102200008C8190FF02C08F5F01C081508C83DF9171
:10221000CF911F910F91FF900895AF92BF92DF92DF
:10222000EF92FF920F931F93CF93DF93FC01828174
:1022300080FF02C00FEF01C001E010E080910A01B1
:102240001817D8F5A12EB12C80912802E501C80FEE
:10225000D11DCC0FDD1FCC0FDD1FC65CDC4F1982FA
:1022600018821A8224E0E22EF12CD12C80912702D0
:102270008D0D87FF03C090910A01890F082E000C75
:10228000990BA816B90691F4809138038E9DA00190
:102290008F9D500D112455954795559547959E0155
:1022A00060913703809136030E94B40ED00EF1E0A6
:1022B000EF1AF108D9F61F5FC1CF0E942E0F80914F
:1022C0002702013031F4811102C080910A0181504E
:1022D00007C090E0019660910A0170E00E94B7305B
:1022E00080932702DF91CF911F910F91FF90EF9084
:1022F000DF90BF90AF9008950F931F93CF9380917D
:10230000280290910B01891758F424E0829FF00174
:102310001124E65CFC4F1182108212828F5FF3CF92
:10232000C0E060910A01C61788F50C2F10E070E03C
:10233000C8010E94B730E0912802E80F8091260280
:10234000082E000C990BF0E0EE0FFF1FEE0FFF1FA1
:1023500008171907A4F020910901022E000C330B75
:102360002017310764F09F01265C3C4F40913803F1
:1023700060913703809136030E94B40E05C0E65C7D
:10238000FC4F118210821282CF5FCBCF0E942E0FA2
:102390002091080180912602820F8093260290915D
:1023A0000901920F9093090119165CF4082E000C94
:1023B000990B40910A0150E041505109841795074B
:1023C0001CF0219520930801CF911F910F91089542
:1023D0000F931F93CF93DF938C01FC018481958130
:1023E00001968170992795838483C0E0D5E580911B
:1023F0000A01C817F0F42091280230E02C0F311D9B
:10240000220F331F220F331F265C3C4F4C2F469563
:10241000F80184819581840F911D8170409138036A
:10242000609137038D9F802D11240E94B40ECF5FE1
:10243000DECFDF91CF911F910F910C942E0F0F9350
:102440001F93CF93DF93EC0100E010E080910A012D
:10245000282F30E0021713071CF5909128029801ED
:10246000290F311D220F331F220F331F265C3C4FD3
:10247000869590E04C81081719071CF4442331F02D
:1024800002C0411103C04091380301C040E0609197
:102490003703809136030E94B40E0F5F1F4FD6CFD3
:1024A0000E942E0F2C8130E02F5F3F4F2170332789
:1024B0002C83DF91CF911F910F910895E5E3F3E015
:1024C00080818E7F808360817181828193810E946F
:1024D000D90E109232022FEF80E792E02150804017
:1024E0009040E1F700C000000C942E0FE5E3F3E00C
:1024F00080818E7F8083109232022FEF80E792E0FE
:10250000215080409040E1F700C000000C942E0F55
:1025100060913503669570E04BE050E08DE091E00E
:102520000E94FE31892B19F481E0809332020E94CF
:10253000B62490932B0280932A020895909135033C
:1025400090FF35C09170811102C0926006C0853243
:1025500010F0986402C0880F982B9093350366237F
:1025600051F060913503709136038091370390915B
:1025700038030E94D90E60913503669570E04BE0F8
:1025800050E08DE091E00E94FE31892B19F010920D
:10259000320202C00E94881281E080932D02409195
:1025A000380360913703809136030C94D11008955D
:1025B000682F90913503969581E0890F853208F058
:1025C00081E00C949E1281E00C94D812682F9091B7
:1025D000350396958FEF890F09F484E20C949E12CF
:1025E00081E00C94E61261E00C949E12E5E3F3E0C6
:1025F00080818160808386950C94F31280913503ED
:1026000080FD0C945E120C94F61260E00C949E1205
:1026100080913002811133C08091F80281608093F3
:10262000F8020E94E622811104C00E9483230E94C6
:10263000F50E0E94D50E6093350370933603809398
:102640003703909338036E7F61F40E94F50E0E9469
:10265000D50E6093350370933603809337039093C0
:1026600038030E94C20E109232028091350380FF1F
:1026700003C086950E94051381E08093300208957F
:10268000E5E3F3E080818160808386950C940513F7
:102690001092320208950F931F93CF93DF9380918E
:1026A0003202882309F48CC080913102E091350315
:1026B000E695E81BE0932C02823049F4F0E0E25703
:1026C000FC4FE491CE2FD0E003E81FE049C08630F4
:1026D00049F4F0E0E557FC4FE491CE2FD0E007E954
:1026E0001FE03EC0893051F4E695F0E0E857FC4F1A
:1026F000E491CE2FD0E004ED10E132C08F3051F4E0
:10270000E695F0E0EB57FC4FE491CE2FD0E00DE0E2
:1027100011E126C0853149F4F0E0EE57FC4FE49119
:10272000CE2FD0E00CE711E11BC0883181F083325D
:1027300039F4E0E8F3E0C591D49107EA1FE010C056
:10274000843251F4C4EFD1E00FE112E109C0C8EEC8
:10275000D3E008EE11E104C0C0EDD7E003EB1EE0CA
:1027600080912D02882389F010922D020E94B624B8
:102770009E0120953095820F931F90932B0280939A
:102780002A0210922F0210922E0280912A0290911A
:102790002B020E94C2248C179D0790F0E0912A0220
:1027A000F0912B02CE0FDF1FD0932B02C0932A0291
:1027B0008AE292E0F801DF91CF911F910F91099485
:1027C000DF91CF911F910F910895882319F05198AF
:1027D000599A02C0519A59985098589A95E09A95EA
:1027E000F1F70000509A589895E09A95F1F700009B
:1027F000882311F0519A599885E08A95F1F70000E5
:1028000008958BB18C7F8BB95098589A5198599AEA
:1028100085E08A95F1F7000008958AB18C7F8AB926
:1028200085E08A95F1F70000519A599885E08A95DC
:10283000F1F70000509A589885E08A95F1F700006A
:1028400008955098589A85E08A95F1F700005198BC
:10285000599A85E08A95F1F700000895CF93DF93A8
:10286000D82FC8E08D2F80780E94E513DD0FC1506E
:10287000C9F780E00E94E51385E08A95F1F7000032
:1028800085E08A95F1F7000080E0DF91CF9108950F
:102890002BB1342F309523233BB1432B3FB7F89412
:1028A000FC01680F791FE617F70789F0819198E01E
:1028B0004BB9000000C087FF2BB9880F000000C093
:1028C00000C000C02BB900C09A9591F7ECCF3FBF74
:1028D0000895AF92BF92CF92DF92EF92FF920F9343
:1028E0001F93CF93DF938C01EB01CFB6D090BC0048
:1028F000F8948091BC008B7F8093BC000E940114EF
:102900000E940D1484E80E942E14CC0FDD1FCC0F02
:10291000DD1F78015801AC0EBD1EEA14FB0431F036
:10292000F70181917F010E942E14F7CF0E9421149C
:10293000CFBED092BC00579A40E8BE01C801DF91DB
:10294000CF911F910F91FF90EF90DF90CF90BF90AC
:10295000AF900C9448140F931F93CF93DF93C62F1F
:10296000D42F022FFC0182818823C9F060933502A5
:102970000E94B624909334028093330280E28C0F3D
:10298000883008F050C0C77081E001C0880FCA9538
:10299000EAF7DF91CF911F910F910C947B19109161
:1029A0003502161330C080913302909134020E9498
:1029B000C224883C910538F5C0E2CD0F1D17B9F04F
:1029C00080E2810F883040F4177081E001C0880FE9
:1029D0001A95EAF70E948219C83048F481E09D2FC9
:1029E000977001C0880F9A95EAF70E947B19802F93
:1029F0000E946819C830B8F4D77081E001C0880F10
:102A0000DA95EAF70AC080E28C0F883060F4C7706C
:102A100081E001C0880FCA95EAF7DF91CF911F913D
:102A20000F910C948219DF91CF911F910F9108950E
:102A30009C01CB01233F4CE53407F9F078F4283DA5
:102A4000FCE53F07B9F0293D4CE5340711F1273D7E
:102A50003C4531F526E241EE61EE1EC0253FFCE526
:102A60003F0799F070F0263F3C45D1F427E245EE50
:102A700066EE12C027E245EE0EC026E241EE60EEA1
:102A80000BC027E245EE64EE07C026E241EE62EE9F
:102A900003C028E241E065EE0E94AB1480E0089597
:102AA000FC018281882319F010923502089581E09B
:102AB00008951092B9008CE08093B8000895EF92C9
:102AC000FF920F931F93CF93DF93182FEB01109278
:102AD000BC0084EA8093BC000E94B6247C019091E3
:102AE000BC0097FD0EC0CF3F8FEFD807C1F30E9407
:102AF000B6248E199F098C179D0788F38EEF9FEFE0
:102B00002EC09091B900987F983041F09091B90013
:102B1000987F903119F08FEF9FEF21C01093BB0089
:102B200084E88093BC000E94B6248C019091BC0084
:102B300097FD0CC0CF3F8FEFD807C1F30E94B6249A
:102B4000801B910B8C179D0788F3D8CF8091B9001B
:102B5000887F883111F08034F1F680E090E0DF91D9
:102B6000CF911F910F91FF90EF9008950F931F93B6
:102B7000CF93DF93EB018093BB0084E88093BC008C
:102B80000E94B6248C019091BC0097FD0EC0CF3FEF
:102B90008FEFD807C1F30E94B624801B910B8C17CE
:102BA0009D0788F38EEF9FEF0CC02091B900287F1E
:102BB00081E090E0283211F480E090E091958195D9
:102BC0009109DF91CF911F910F9108950F931F935A
:102BD000CF93DF93EC0184E88093BC000E94B6247D
:102BE0008C019091BC0097FD0EC0CF3F8FEFD807AE
:102BF000C1F30E94B624801B910B8C179D0788F3AC
:102C00008EEF9FEF03C08091BB0090E0DF91CF91EA
:102C10001F910F91089584E98093BC0008959093CB
:102C20003B0280933A020895E0913A02F0913B0210
:102C3000309721F00190F081E02D099480E0089513
:102C4000E0913A02F0913B02309799F020912901EE
:102C5000222359F020917C0327FF07C0DC012C912F
:102C600011962C93119725E02C930280F381E02D8F
:102C700009940895E0913A02F0913B02309739F0BF
:102C800022E0DC012C930480F581E02D0994089565
:102C900020913802309139028217930771F0909396
:102CA000390280933802E0913A02F0913B0230976A
:102CB00021F00680F781E02D0994089520913602D5
:102CC000309137028217930771F090933702809307
:102CD0003602E0913A02F0913B02309721F00084F5
:102CE000F185E02D0994089585B7806885BF85B783
:102CF000806885BF0895089508950C947C16089502
:102D00000C947F160E9474160E947B160C947D16FC
:102D100081E008950E94AD240E946B040E94442526
:102D20000E9408130C948016CF92DF92EF92FF92CC
:102D30000F931F93CF93DF93CDB7DEB72B970FB6CB
:102D4000F894DEBF0FBECDBF0E9498040E94881683
:102D5000811111C08FEF89838A831B820E94B62460
:102D60008160782F9D838C8349815A816B818D810D
:102D70000E94781756C08DE3C82E82E0D82E00E05E
:102D800010E0E02E802F0E94FF04F60141916F01B8
:102D9000F42EF82631F40F5F1F4F0E30110589F71E
:102DA000D9CF9091F80291FF04C08B870E9405054E
:102DB0008B8520E030E04F2D50E0922FBA01022E9B
:102DC00002C0759567950A94E2F760FF24C02E83D0
:102DD000EF8221E030E0690102C0CC0CDD1C9A9545
:102DE000E2F790E08C219D21892B09F420E02887CF
:102DF0000E94B6248160782F9A8789874E815F81EF
:102E000068858A850E947817F801E35CFD4F808110
:102E1000C826C08206C02F5F3F4F2630310569F6B5
:102E2000BACF0E94D62610913C020E9414161817A1
:102E3000A1F00E94141680933C022B960FB6F894D2
:102E4000DEBF0FBECDBFDF91CF911F910F91FF90DD
:102E5000EF90DF90CF900C9417072B960FB6F89455
:102E6000DEBF0FBECDBFDF91CF911F910F91FF90BD
:102E7000EF90DF90CF900895DC0111962C9111977F
:102E80008C91682F70E041E050E001C0440F8A95BA
:102E9000EAF712968C91129730E0882329F08091FE
:102EA0005B028823E9F006C0F901E55BFD4F9081E4
:102EB0009423B1F086E0829FF001839FF00D1124EE
:102EC000E60FF71FEE0FFF1FE65DFE4F8081918139
:102ED0008D939C93F901E55BFD4F8081482B06C0E3
:102EE000F901E55BFD4F40958081482340830895BB
:102EF000CF93DF93CDB7DEB72B970FB6F894DEBF35
:102F00000FBECDBF942F4F83252F588769877A87AF
:102F10008B874A855B85452B21F02F3F09F59F3F25
:102F2000F9F4DE01119686E0FD0111928A95E9F728
:102F300085E0FE01379601900D928A95E1F749816F
:102F40005A816B817C818D819E810E94261F2B96E8
:102F50000FB6F894DEBF0FBECDBFDF91CF910895BD
:102F6000CE0107960E943C17DCCFFC018081918145
:102F70000E94F42192959F70963041F480915B02FB
:102F800091E0892780935B0290935A020895CF9332
:102F9000DF931F92CDB7DEB7882309F42DC1682FC8
:102FA0008238C1F40E94141681FD26C169E3809124
:102FB0001801909119010E94EF230E9482222FEFA5
:102FC00081EE94E0215080409040E1F700C0000085
:102FD00069E319C0833811F50E94141680FD0CC1F5
:102FE00063E580911801909119010E94EF230E94DE
:102FF00082222FEF81EE94E0215080409040E1F753
:1030000000C0000063E580911801909119010E94B1
:10301000FA230F90DF91CF910C9482228438C1F46F
:103020000E94141682FDE8C067E480911801909117
:1030300019010E94EF230E9482222FEF81EE94E07B
:10304000215080409040E1F700C0000067E4DBCFF2
:103050008CEF860F813A70F4862F69830E94DF28F7
:1030600069818111C9C080911801909119010E9454
:10307000EF23CFCF80E2860F883048F4677081E07D
:1030800001C0880F6A95EAF70E943622C2CF8BE50D
:10309000860F833088F4653A29F0663A31F083E888
:1030A00090E005C081E890E002C082E890E00F90D7
:1030B000DF91CF910C94481688E5860F873108F090
:1030C00091C0683A09F445C0693A09F445C06A3AC2
:1030D00009F445C06B3A09F445C06C3A09F445C09F
:1030E0006B3B09F445C06C3B09F445C06D3A09F4EB
:1030F00045C0603B09F445C06E3A09F445C06F3ADB
:1031000009F445C0613B09F445C0623B09F445C080
:10311000633B09F445C0643B09F445C0653B09F4D1
:1031200045C0663B09F445C0673B09F445C0683BB0
:1031300009F445C0693B09F445C06D3B09F445C03D
:103140006E3B09F445C06A3B09F445C080E090E05D
:1031500044C082EE90E041C089EE90E03EC08AEE2D
:1031600090E03BC085EB90E038C086EB90E035C046
:1031700083EB90E032C084EB90E02FC087EB90E0CF
:103180002CC08CEC90E029C08DEC90E026C083E848
:1031900091E023C08AE891E020C082E991E01DC05F
:1031A00084E991E01AC081E292E017C083E292E0E4
:1031B00014C084E292E011C085E292E00EC086E283
:1031C00092E00BC087E292E008C08FE690E005C075
:1031D00080E790E002C08AE292E00F90DF91CF9109
:1031E0000C945E16603F40F0862F0E94DE250F9003
:1031F000DF91CF910C94CB260F90DF91CF91089562
:10320000882309F464C0823879F40E94141681FF7F
:103210005EC069E380911801909119010E94EF232B
:103220000E94822269E310C08338B1F40E94141610
:1032300080FF4DC063E580911801909119010E94B3
:10324000EF230E94822263E5809118019091190179
:103250000E94FA230C948222843879F40E94141676
:1032600082FF35C067E480911801909119010E9496
:10327000EF230E94822267E4E7CF9CEF980F913AF8
:1032800010F4682FE1CF90E2980F983050F48770D7
:1032900091E001C0990F8A95EAF7892F0E943C229C
:1032A000D9CF9BE5980F933020F480E090E00C9408
:1032B000481698E5980F973120F480E090E00C9440
:1032C0005E16803F20F00E9446260C94CB2608957F
:1032D000CF93C82F0E94C717C93349F42FEF87EE49
:1032E00093E0215080409040E1F700C000008C2F17
:1032F000CF910C940019882321F00E9436220C945F
:1033000082220895882321F00E943C220C9482227C
:103310000895BF92CF92DF92EF92FF920F931F9387
:10332000CF93DF937C01062FC72FFC0115811295E7
:103330001F70D281D1110E9456220E942C22882314
:1033400079F0DD2369F080E2800F883048F082E078
:103350000E94CD220E942C2291E0B82EB92601C0F5
:10336000B12CCC2EC2948FE0C822D12CF601E35AA6
:10337000FF4F0C94CB308C2F807FCF70882311F0BF
:10338000C295C07FDD2399F0CC2309F4C7C180E248
:10339000800F883010F0011104C08C2F0E9436225B
:1033A00003C08C2F0E9449220E948222B7C1802F25
:1033B0000E940019CC2309F42DC280E2800F8830CE
:1033C00010F0011104C08C2F0E943C2203C08C2FEE
:1033D0000E944F220E9482221DC28C2F807FCF70BC
:1033E000803211F0C295C07F002319F00130C9F07E
:1033F00024C0DD2371F0112341F0113031F40E941B
:1034000069228C2B0E946F2205C20E9469228C2B9C
:103410000EC0112319F0113009F4FCC10E9478226A
:103420001EC0DD2339F0123008F0F4C18C2F0E9449
:103430007B19F0C11111EEC112C0DD2319F0112367
:10344000A9F36CC1112359F0093309F078C1FFEFDA
:1034500027EE83E0F15020408040E1F76EC18C2FD1
:103460000E948219D7C18C2F86958695837090E033
:10347000009719F0019761F0CDC1DD2321F0802F75
:103480009C2F937002C080E090E00E944816CDC14E
:10349000DD2321F0802F9C2F937002C080E090E00C
:1034A0000E945E16C2C1DD23F9F0053F51F0063FD0
:1034B00071F0043FA9F480917603909177038160C5
:1034C0000BC08091760390917703826005C0809154
:1034D00076039091770384609093770380937603CB
:1034E000802F0E94DE251EC0053F51F0063F71F07F
:1034F000043FA9F480917603909177038E7F0BC0EF
:1035000080917603909177038D7F05C0809176033B
:10351000909177038B7F9093770380937603802F2E
:103520000E9446260E94CB2680C18C2F837009F012
:1035300049C0D11176C1402F429546954770440F3E
:10354000440F602F6F70862F90E0A0E0B0E0042E53
:1035500004C0880F991FAA1FBB1F0A94D2F704FF4B
:1035600010C00FE010E020E030E004C0000F111F99
:10357000221F331F4A95D2F700951095209530955C
:1035800003C000E010E09801C695C695C370D0E076
:10359000BC01CD01602B712B822B932BC230D10546
:1035A00059F0C330D10559F0219719F00E946B20D2
:1035B00038C10E94592035C10E947D2032C10E942D
:1035C00057202FC1DD2319F08C2F817001C0869503
:1035D000882309F426C1402F429546954770440F31
:1035E000440F602F6F70862F90E0A0E0B0E0042EB3
:1035F00004C0880F991FAA1FBB1F0A94D2F704FFAB
:1036000010C00FE010E020E030E004C0000F111FF8
:10361000221F331F4A95D2F70095109520953095BB
:1036200003C000E010E09801C695C695C370D0E0D5
:10363000BC01CD01602B712B822B932BC230D105A5
:1036400059F0C330D10559F0219719F00E9431216A
:10365000E8C00E941F21E5C00E944321E2C00E94F1
:103660009220DFC0CF70DD2339F08C2F0E94B8206C
:10367000802F0E947B19D5C0802F0E9482198C2F29
:103680000E94D920CEC0023FF9F028F4003F41F05B
:10369000013F99F03FC0033FF1F0043F31F13AC0E0
:1036A000DD2339F01111B6C08C2F8F710E94FE20DE
:1036B000B1C0123008F0AEC0F7CFDD2339F08C2F47
:1036C0008F710E94B820A6C0DD23C9F38C2F8F71A3
:1036D0000E94D9209FC0DD2329F08C2F8F710E947A
:1036E000A32098C00E949E2095C0DD2349F0CF7191
:1036F0008C2F0E94B82063E08C2F0E94B8228AC0D1
:1037000081E00E94CD22123008F484C082E00E9441
:10371000CD2280C0DD2331F0112389F2802F0E9459
:10372000C71778C0112391F2093349F49FEFE7EEF0
:10373000F3E09150E040F040E1F700C00000802F3E
:103740000E94001967C04C2F4F70602FC7010E9464
:10375000F2090E94CA1F69C0023FB1F028F4003F7D
:1037600049F0013FF9F028C0043FB9F058F0053F97
:1037700071F022C0DD2309F447C090915B0281E023
:10378000892708C081E0D827D0935B023DC0D111C2
:103790003BC081E080935B0237C0D11135C01092ED
:1037A0005B0232C0DD2329F080915A02882329F37D
:1037B00029C0112311F328C080915A021123C1F0AE
:1037C000882341F090915B0281E0892780935B021E
:1037D00010925A02802FDD2319F00E94C71714C0DF
:1037E0000E94001986E0F70111928A95E9F70CC052
:1037F000882351F0D11108C090915B0281E08927A4
:1038000080935B0210925A024C2F4F70602FC701B9
:103810000E94F509F8E0CF1AD10824E0C216D104BD
:1038200020F40E9414160E941707BB20D1F00E94BA
:10383000282280FD16C0F70112820E9422220E94D7
:10384000B820C7010E943B1C0E942222DF91CF9129
:103850001F910F91FF90EF90DF90CF90BF900C944D
:10386000D920DF91CF911F910F91FF90EF90DF90C2
:10387000CF90BF9008950F931F93CF93DF93EC01E8
:10388000888199812B813C81232BB9F09F3F11F4D2
:103890008F3F99F0CE010E942907882371F068813B
:1038A00079818A810E94FF218C010E9455210E940A
:1038B0005620B801CE010E948919DF91CF911F9146
:1038C0000F9108950E9456220E9466220E94822231
:1038D0000E9471270E94CB2680E090E00E9448164B
:1038E00080E090E00C945E1680911801909119018F
:1038F0000E9405240C94621C0E9446220C94741CA5
:10390000E92FE295EF70F0E03297EE30F105B0F478
:10391000E359FF4F0C94CB30803F91F018F4883E70
:1039200068F40EC0843F51F40BC0883E48F0813FDC
:1039300029F406C093FB882780F9089580E0089554
:1039400081E008950E94F4210E94801C0895CF9385
:10395000DF9300D000D01F92CDB7DEB70F900F904D
:103960000F900F900F90DF91CF910895CF93DF9339
:1039700000D000D000D0CDB7DEB726960FB6F894B1
:10398000DEBF0FBECDBFDF91CF9108951F93CF93C0
:10399000DF93C0915C0216E080915D02C81799F038
:1039A000D0E01C9FF0011D9FF00D1124E25AFD4F45
:1039B0004081518162817381848195810E94B61C0E
:1039C0002196C770E9CFDF91CF911F910895409163
:1039D0008E0250918F0260919002709191028091BD
:1039E0009202909193020C94B61C8091930282955E
:1039F0008F7009F054C080919002882309F44FC061
:103A000080915C02A0915D0260918E0270918F02A4
:103A10004091910250919202B6E08A1709F43FC09A
:103A200090E041155105C1F17F3F11F46F3FA1F1C5
:103A3000B89FF001B99FF00D1124E25AFD4F21818A
:103A400072132AC02081621327C02281211124C051
:103A5000238134812417350710F421503109241BA8
:103A6000350B283C3105C0F4209193022F70206162
:103A70002093930226E0289FF001299FF00D112446
:103A8000ED59FD4F80818F70806180838EE892E0D8
:103A90000E943B1C0C94C61C01968770BECF0895F3
:103AA000CF92DF92EF92FF920F931F93CF93DF930A
:103AB000CDB7DEB762970FB6F894DEBF0FBECDBFAD
:103AC0008C0185E0F801DE011D9601900D928A952A
:103AD000E1F7D8014C9111965C91119712966C9177
:103AE00012971396CD90DC90149730918E027091BE
:103AF0008F028091910290919202009709F46BC11C
:103B00007F3F19F43F3F09F466C1E0909002EE2038
:103B100009F4C0C020919302C816D90628F0F60116
:103B2000E81BF90BCF0104C0809590958C0D9D1D6D
:103B3000FF24F394883C910578F0F12C207F09F064
:103B4000C6C07C2DD98AC88A89890E94A71C8EE8A4
:103B500092E00E943B1CB1C0822F807F09F046C0DA
:103B6000751314C0341312C0611110C02F7020617E
:103B7000209393020E94E71C8EE892E00E943B1C77
:103B800080919302D80115968C932EC0CD2819F1FF
:103B90005F3F11F44F3FF9F0F62E61111CC0809188
:103BA0005C0220915D0236E0821709F45AC090E071
:103BB000389FF001399FF00D1124E25AFD4F7181B9
:103BC000571306C07081471303C07281711103C07F
:103BD00001968770E9CFF62E662309F427C18091FC
:103BE0009302816080939302F12C20C1751308C069
:103BF000341306C0611104C080919302D801C3C080
:103C00004D875E878D859E856A8B0E94A21C6A897E
:103C10008823E1F16623D1F120919302822F8295CE
:103C20008F7090E0029774F080918E0290918F02D5
:103C300098878F831986DB86CA862C87CE010796E4
:103C40000E943B1C86E0F801AEE8B2E001900D92C4
:103C50008A95E1F70E94F51C0E94E71CFF24F3946B
:103C6000E5C04D875E878D859E850E94F421292FB2
:103C700022952F7030E0223031050CF0CBC09F70C0
:103C800009F0C5C0805E883008F4D0C0C8010E9429
:103C90003B1CE4CFC816D90608F453C0F601E81B54
:103CA000F90BCF01883C910508F450C0F12C7C2D14
:103CB000D98AC88A89890E94A71CEEE8F2E086E0CA
:103CC000DF011D928A95E9F70E94E71CAFC07513CA
:103CD00014C0341312C0611110C080919302F80116
:103CE0008583C8010E943B1C86E0EEE8F2E0DF011C
:103CF0001D928A95E9F7FE2C99C04D875E878D85C8
:103D00009E856A8B0E94A21C6A89882309F4BECF13
:103D1000662309F4BBCF20919302822F82958F7086
:103D200090E002970CF48ECF80918E0290918F02DA
:103D30009A8389831B82DD82CC822E83CE010196F9
:103D40007FCF809590958C0D9D1DACCFF62E662370
:103D500009F49CCF75132EC034132CC0209193020C
:103D600020FD1FC0822F82958F70D9F0D801159643
:103D70002C9315978F3049F08F5F982F9295907FF5
:103D8000822F8F70892B15968C93C8010E943B1C43
:103D900086E0F801AEE8B2E001900D928A95E1F775
:103DA00093CF86E0F801AEE8B2E001900D928A95DB
:103DB000E1F73CC04D875E878D859E850E94A21CE1
:103DC000811140CF80919302816080939302C8015A
:103DD0000E943B1C2BC0662309F458CF4D875E8799
:103DE0008D859E850E94A21CF82E882309F44ECF53
:103DF00086E0F801AEE8B2E001900D928A95E1F715
:103E00008EE892E00E94B5170E94F51C5DCF8111EB
:103E100039CF0CC0243031050CF038CF9F7009F435
:103E200031CFF8019581907F09F02CCF8F2D6296CC
:103E30000FB6F894DEBF0FBECDBFDF91CF911F91BB
:103E40000F91FF90EF90DF90CF9008951F93CF9345
:103E5000DF93CDB7DEB72C970FB6F894DEBF0FBE59
:103E6000CDBF4F83588769877A878B879C87CE0120
:103E700007960E94501D882369F08F8198852A85B6
:103E80003B85232BF1F19F3F09F063C08F3F09F081
:103E900060C037C086E0FE013796DE0111960190C2
:103EA0000D928A95E1F76F817885EA85FB853097D9
:103EB00041F17F3F11F46F3F21F120915D0230E02D
:103EC000C90101968770992740915C0250E08417E0
:103ED000950709F447C069837A83FD83EC8396E0F4
:103EE000929FD001939FB00D1124A25ABD4FFE01A5
:103EF000319601900D929A95E1F780935D020E94B0
:103F0000C61C16E080915C0290915D028917C1F198
:103F1000189FC0011124825A9D4F0E94501D882372
:103F200079F1E0915C021E9FF0011124E25AFD4FED
:103F30004081518162817381848195810E94B61C88
:103F400080915C0290E001968770992780935C02D3
:103F5000D9CF4F81588569857A858B859C850E944C
:103F6000B61CCFCF0E947C1C10925D0210925C02A6
:103F7000EEE8F2E086E0DF011D928A95E9F7C1CF15
:103F80002C960FB6F894DEBF0FBECDBFDF91CF9158
:103F90001F910895EF92FF920F931F93CF93DF939A
:103FA0008C01892B09F46CC0F12CEE24E394E80118
:103FB0002196F8018491843740F4843008F051C090
:103FC000813081F0823019F15BC0853709F444C03B
:103FD000A8F19CE7980F903708F052C08F770E94A5
:103FE000001941C00E5F1F4FFE01C49180E28C0F8B
:103FF000883048F4C7708E2D01C0880FCA95EAF743
:104000000E94592214C08C2F0E94C7172DC00E5F2A
:104010001F4FFE01C49180E28C0F883058F4C770A6
:104020008E2D01C0880FCA95EAF70E945F220E9478
:1040300082221AC08C2F0E94001916C00E5F1F4FDB
:10404000FE01C491CC2381F08FE99FE00197F1F745
:1040500000C00000C150F6CF0E5F1F4FFE01F4906C
:1040600003C00E94C7178E018F2D882309F49FCFAC
:10407000EFE9FFE03197F1F700C000008150F5CF84
:10408000DF91CF911F910F91FF90EF9008950895C8
:104090000C9447200E9448206093CF027093D00276
:1040A0008093D1029093D2020C94621C08950C94D8
:1040B0004A200F931F930091CF021091D0022091BC
:1040C000D1023091D202602B712B822B932B1F9146
:1040D0000F910C944A200F931F930091CF021091DF
:1040E000D0022091D1023091D20260237123822329
:1040F00093231F910F910C944A200F931F930091CB
:10410000CF021091D0022091D1023091D2026027CB
:104110007127822793271F910F910C944A200895AD
:104120000C948F200E9490206093CB027093CC025D
:104130008093CD029093CE020C94621C60E070E0FC
:10414000CB010C9492200F931F9341E050E060E06C
:1041500070E08A019B0104C0000F111F221F331F52
:104160008A95D2F7C901B8011F910F910C94922042
:104170000F931F9341E050E060E070E004C0440FF3
:10418000551F661F771F8A95D2F78091CB029091B9
:10419000CC02A091CD02B091CE028A019B01082BE6
:1041A000192B2A2B3B2BC901B8011F910F910C949D
:1041B00092200F931F9341E050E060E070E004C054
:1041C000440F551F661F771F8A95D2F7409550956B
:1041D000609570958091CB029091CC02A091CD0218
:1041E000B091CE028A019B01082319232A233B2385
:1041F000C901B8011F910F910C9492200F931F9346
:1042000041E050E060E070E004C0440F551F661FBD
:10421000771F8A95D2F78091CB029091CC02A09122
:10422000CD02B091CE028A019B01082719272A27C7
:104230003B27C901B8011F910F910C9492200F9355
:104240001F930091CB021091CC022091CD023091AE
:10425000CE02602B712B822B932B1F910F910C940C
:1042600092200F931F930091CB021091CC022091CA
:10427000CD023091CE0260237123822393231F91BC
:104280000F910C9492200F931F930091CB021091E9
:10429000CC022091CD023091CE0260277127822777
:1042A00093271F910F910C9492200895292F220F8C
:1042B000920F990F890FA82FA695A695A69587709E
:1042C00051E001C0550F8A95EAF785E0A89FD0011B
:1042D000112420E030E070E0F901EA0FFB1FEC56FA
:1042E000FD4F4081CB01022E02C0969587950A941E
:1042F000E2F781709927819584278523842780831D
:104300002F5F3F4F2530310539F70895292F220FB0
:10431000920F990F890F682F669566956695982F6D
:10432000977085E0689FB001112440E050E080E084
:10433000FA01E60FF71FEC56FD4F208130E0092E01
:1043400002C0369527950A94E2F721703327042E90
:1043500001C0220F0A94EAF7822B4F5F5F4F45306E
:10436000510531F70895BF92CF92DF92EF92FF92FD
:104370000F931F93CF93DF938C01C090CF02D09007
:10438000D002E090D102F090D2028091CB029091C5
:10439000CC02A091CD02B091CE02C82AD92AEA2A35
:1043A000FB2ACFE1D0E0D701C6010C2E04C0B695A0
:1043B000A795979587950A94D2F780FF07C0BC2EE2
:1043C000B8018C2F0E94100A019719F4219758F711
:1043D000B12C8B2DDF91CF911F910F91FF90EF901A
:1043E000DF90CF90BF900895CF93DF93EC010E94B0
:1043F000B321BE010E94100ADF91CF9108951F934F
:10440000CF93DF93EB0190915902992321F0CB01D7
:104410000E94F42113C0882349F0CB010E94B321EC
:10442000182F682FCE010E94562104C0CB010E9494
:104430008621182FBE01812F0E94100ADF91CF9193
:104440001F9108958091D30285958595859508954E
:104450008091D302877008959091D302977081E084
:1044600009F480E008958091F70208959091F70291
:10447000892B8093F702089580959091F702892304
:104480008093F70208958093F70208951092F7023F
:1044900008959091F602892B8093F60208958095F5
:1044A0009091F60289238093F60208951092F60205
:1044B00008959091F502892B8093F50208958095D7
:1044C0009091F50289238093F50208951092F502E8
:1044D00008958091D402089508950C946C229091CF
:1044E000D402981721F08093D4020C946D22089581
:1044F0008091D402882329F01092D40280E00C9499
:104500006D220895E0911801F09119018091F70250
:104510008083E0911801F091190190818091F60259
:10452000892B8083E0911801F0911901908180918D
:10453000F502892B80838091D402882381F0E09159
:104540001801F09119019081892B808380911801C5
:10455000909119010E948A2381110E9478228091F2
:104560001801909119010C94201608950C94B5220D
:1045700098E0899F90011124262B2093D3020E945A
:10458000B8208091D3028595859585950C94B622A7
:104590001092D30280E00C94B6222091D302809531
:1045A00082238093D302982F977079F430E0482FBC
:1045B000082E000C550B2417350739F08595859585
:1045C00085950E94D9200C94C822089580E090E03F
:1045D0000E94193221E08C3E9E4F09F020E0822F8C
:1045E000089582E090E00C940B3283E090E00C940C
:1045F0000B32CF9384E090E00E940B32C82F81E20F
:1046000090E00E940B322C2F30E0A901582BCA01F8
:10461000CF910895CF93C92F682F84E090E00E9436
:104620001F326C2F81E290E0CF910C941F328FE00B
:1046300090E00C941332AB01BC018FE090E00C943D
:104640003132AB01BC0183E190E00C94313260E087
:1046500070E0CB010C9421236CEE7EEF80E090E0C3
:104660000E943D3260E082E090E00E941F3260E0F4
:1046700083E090E00E941F321092CF021092D0028D
:104680001092D1021092D20260E084E090E00E9489
:104690001F3260E081E290E00E941F3260E085E01E
:1046A00090E00E941F3260E086E090E00E941F329E
:1046B0006FEF87E090E00E941F3240E050E0BA01C7
:1046C00088E090E00E94313260E08DE090E00E944E
:1046D0001F3240E050E0BA0188E190E00E943132A0
:1046E00060E087E190E00E941F3240E050E0BA01B4
:1046F0008CE190E00E94313260E080E290E00E9424
:104700001F320C940B060C942C23682F8EE090E043
:104710000C941F32FC01329680912901882331F0DC
:1047200080917C0387FF02C09EE101C096E080E09B
:10473000915028F021912223D9F38F5FF9CF08956A
:104740009C01FC0132969FEF80E04191461789F071
:104750009F3F19F4411101C0982F8F5F8630A9F750
:104760009F3F39F0F901E90FF11D97FDFA9562833A
:1047700008950895FC01329608962081261301C001
:1047800010823196E817F907C1F70895262F26956C
:10479000269526952E3168F4FC01E20FF11D677015
:1047A00021E030E001C0220F6A95EAF78281282BD0
:1047B00022830895262F2695269526952E3170F46E
:1047C000FC01E20FF11D677021E030E001C0220F13
:1047D0006A95EAF720958281282322830895209103
:1047E0002901222329F020917C0327FD0C94C62364
:1047F0000C94A02320912901222329F020917C03ED
:1048000027FD0C94DA230C94BA2320912901FC0192
:104810003296222331F080917C0387FF02C08EE123
:1048200001C086E0DF011D928A95E9F70895089599
:104830000C9417240E94182480918203843009F478
:1048400039C01092F90220E488E190E00FB6F894A4
:10485000A895809360000FBE2093600080E00E94C6
:1048600017070E9448138091FA0281110AC081E063
:104870008093FA028091350381708093FB020E943D
:1048800076120E94182483B7817F846083BF83B728
:10489000816083BF7894889583B78E7F83BF0FB67E
:1048A000F894A895809160008861809360001092D0
:1048B00060000FBE08950895CF930E9485040E9462
:1048C00098040E945B24C0E08C2F0E94FF04811199
:1048D00004C0CF5FCE30C1F701C081E0CF91089511
:1048E00008950C9470240E947C1C0E9414160E944F
:1048F00017071092FA028091FB0281110E94401367
:104900000E9488120C9471241F920F920FB60F927E
:1049100011248F939F93AF93BF938091F9028111DC
:1049200013C08091780390917903A0917A03B0919C
:104930007B034196A11DB11D809378039093790369
:10494000A0937A03B0937B03BF91AF919F918F9116
:104950000F900FBE0F901F90189582E084BD93E0DA
:1049600095BD9AEF97BD80936E0008952FB7F89488
:104970008091780390917903A0917A03B0917B03A1
:104980002FBF0895CF92DF92EF92FF920F931F9364
:104990002FB7F894409178035091790360917A038E
:1049A00070917B032FBF6A017B01EE24FF248C01F1
:1049B00020E030E0C016D106E206F30610F44150C4
:1049C00051099A01281B390BC9011F910F91FF90C2
:1049D000EF90DF90CF90089578941F920F920FB6CA
:1049E0000F9211248F939F93AF93BF93809178037D
:1049F00090917903A0917A03B0917B030196A11D58
:104A0000B11D8093780390937903A0937A03B093B8
:104A10007B03BF91AF919F918F910F900FBE0F902D
:104A20001F901895F89481E08093E00080E28093D5
:104A3000D800E9ECF0E010828FE19EE40197F1F7F5
:104A400000C000001DBA109268001CBC10BE1FBA46
:104A500010927A0010926E0010926F001092710006
:104A6000109272001082ECEBF0E0108214B817B8CC
:104A70001AB81DB810BA108215B818B81BB81EB8ED
:104A800011BA0C94003F08950E94E622811102C0E1
:104A90000E9483230E94F1228093F8020E94F9224F
:104AA00090937D0380937C030E94F522682F70E031
:104AB00080E090E00C9457208091000380FF0BC0B1
:104AC00060911D0185E0689FB0011124759567957F
:104AD000759567952BC081FF09C060911D0185E028
:104AE000689FB00111247595679520C082FF07C0AB
:104AF00060911D0185E0689FB001112417C090915D
:104B0000FF029923D1F060911C01961788F720913C
:104B10001D0185E0289F90011124929FA001939F81
:104B2000500D112470E0CA010E94B7306038710541
:104B300040F46115710539F002C065E070E0862F20
:104B400008958FE7089581E008958091000380FF24
:104B500008C060911B0170E0759567957595679524
:104B600021C081FF06C060911B0170E075956795BB
:104B700019C082FF04C060911B0170E010C09091C9
:104B8000FF029923C1F060911A019617A0F7809156
:104B90001B01899FC001112470E00E94B73060386A
:104BA000710528F46115710521F0862F08958FE7AE
:104BB000089581E0089561E070E0F4CF803F21F432
:104BC0000E945C25819504C0813F29F40E945C25E8
:104BD000809304030895823F21F40E945C2581950F
:104BE00004C0833F29F40E945C2580930303089549
:104BF000893F19F40E94A52505C08A3F31F40E941F
:104C0000A52581958093050308958B3F21F40E948B
:104C1000A525819504C08C3F29F40E94A525809389
:104C200006030895843F21F480910203816017C038
:104C3000853F21F480910203826011C0863F21F4F8
:104C40008091020384600BC0873F21F480910203AE
:104C5000886005C0883F31F48091020380618093B1
:104C6000020308958D3F21F48091000381600BC001
:104C70008E3F21F480910003826005C08F3F29F4AC
:104C8000809100038460809300030895803F39F48D
:104C90008091040387FF6CC01092040369C0813FB8
:104CA00029F4809104031816BCF362C090910303A9
:104CB000823F29F497FF5CC01092030359C0833FE1
:104CC00019F41916CCF354C0893F41F480910503BF
:104CD00018160CF04DC0109205034AC08A3F29F403
:104CE0008091050387FF44C0F6CF8B3F39F4809154
:104CF000060387FF3DC0109206033AC08C3F29F49B
:104D0000809106031816BCF333C0843F21F48091D0
:104D100002038E7F17C0853F21F4809102038D7FAF
:104D200011C0863F21F4809102038B7F0BC0873F27
:104D300021F480910203877F05C0883F31F4809180
:104D400002038F7E8093020313C08D3F21F4809174
:104D500000038E7F0BC08E3F21F4809100038D7F76
:104D600005C08F3F29F4809100038B7F809300035F
:104D70008091030381110EC08091040381110AC048
:104D800080910503811106C080910603811102C044
:104D90001092FF02089581E093E00E943A160E946B
:104DA000B6249093FE028093FD0208951F93CF9343
:104DB000DF938091FD029091FE020E94C224AC011B
:104DC0009091FF02992321F020911E0130E006C04E
:104DD0002091FC028AE0289F90011124421753077A
:104DE00008F47BC080910303C0910403D0910503B4
:104DF00010910603811107C0C1116BC0D11169C0A8
:104E0000111167C06AC09F3F19F09F5F9093FF0226
:104E1000181624F40E945C258093030380910303F9
:104E200087FF05C00E945C258195809303031C16B3
:104E300024F40E945C25809304038091040387FF7F
:104E400005C00E945C258195809304033091030383
:104E50003323E1F0209104032223C1F045EB340316
:104E6000C0011124892F990F990B009709F481E053
:104E70008093030335EB2303C0011124892F990F7D
:104E8000990B009709F481E0809304031D1624F424
:104E90000E94A525809305038091050387FF05C027
:104EA0000E94A525819580930503111624F40E9484
:104EB000A525809306038091060387FF05C00E9405
:104EC000A525819580930603DF91CF911F910C94C6
:104ED000CB269F3F09F099CFA1CFDF91CF911F91B2
:104EE0000895E1E0F3E086E0DF011D928A95E9F79D
:104EF0001092FF02109200030895833081F128F48C
:104F0000813059F08230D1F00895853009F449C0DC
:104F1000B8F1863009F456C008958091FC02262F1E
:104F200030E0280F311D2F3F310524F4680F6093C6
:104F3000FC0208958FEF8093FC02089580911E017A
:104F4000262F30E0280F311D2F3F310524F4680F44
:104F500060931E0108958FEF80931E010895809144
:104F60001D01262F30E0280F311D2F3F310524F47D
:104F7000680F60931D0108958FEF80931D010895C0
:104F800080911C01262F30E0280F311D2F3F310565
:104F900024F4680F60931C0108958FEF80931C0127
:104FA000089580911B01262F30E0280F311D2F3FDF
:104FB000310524F4680F60931B0108958FEF8093EF
:104FC0001B01089580911A01262F30E0280F311D12
:104FD0002F3F310524F4680F60931A0108958FEF75
:104FE00080931A010895833011F128F4813049F03B
:104FF000823091F00895853081F120F18630C1F141
:1050000008958091FC02681720F4861B8093FC02AF
:1050100008951092FC02089580911E01681720F4F3
:10502000861B80931E01089510921E0108958091A1
:105030001D01681720F4861B80931D0108951092AE
:105040001D01089580911C01681720F4861B809330
:105050001C01089510921C01089580911B0168178E
:1050600020F4861B80931B01089510921B01089564
:1050700080911A01681720F4861B80931A01089505
:1050800010921A0108950F931F93482F50E0FA01D0
:105090003597EF33F10508F07FC0E558FF4F0C94CA
:1050A000CB300E94832371C08091F802817F8E7F74
:1050B0008093F80281E0809308036FC00E947C1CFB
:1050C0000FEF13ED20E3015010402040E1F700C046
:1050D00000000E94122559C08091F802982F9095E7
:1050E000917090FB80F98093F80291114EC0897FF6
:1050F000877F10C08091F80281FB222720F991E080
:10510000922790FB81F98093F8029923F1F1809125
:10511000F80281608093F80238C08091F80282FB27
:10512000222720F991E0922790FB82F9ECCF809121
:10513000F80283FB222720F991E0922790FB83F964
:10514000E2CF0E947C1C80917C0387FB222720F900
:1051500091E0922790FB87F980937C0316C08953D6
:1051600001C08D5141E050E060E070E08A019B0198
:1051700004C0000F111F221F331F8A95D2F7C901E7
:10518000B8010E9457200E947C1C81E006C061E0AB
:1051900070E080E090E0F5CF80E01F910F910895DE
:1051A00080E0089580E008958E518A3030F4E82F31
:1051B000F0E0E950FE4F8081089580E00895CF939C
:1051C000C82F80910803813071F018F08230E1F12E
:1051D00084C00E943322813151F00E9433228232F6
:1051E00009F07DC004C00E943322813149F48C2F24
:1051F0000E94D028811109C08C2F0E94432822C010
:105200000E943322823221F4F2CF81E090E01AC072
:105210008C2F0E94D228811114C0C43179F048F437
:10522000CB3079F0C03109F05EC082E08093080392
:1052300008C0C93219F0C83321F055C010920803D4
:1052400052C081E0817051C0C93279F108F5C43192
:1052500061F1A0F4C73009F044C01092FC0284E16F
:1052600080931E01C0931D018CE380931C0188E094
:1052700080931B0188E280931A0133C082EE8C0F69
:10528000863078F58C2F0E94D4288093070329C09C
:10529000CE34E9F020F4CB3421F56AE013C0C135F7
:1052A00079F0C235F1F461E00DC0809107038823E5
:1052B00019F01092070315C081E08093080315C010
:1052C00061E006C0809107030E947D270AC06AE062
:1052D000809107030E94F32704C01092080380E026
:1052E00004C081E002C080E0ADCFCF9108958091ED
:1052F000290308950F931F93CF93DF9300D01F923C
:10530000CDB7DEB78C010E94EA2B823011F08430D9
:1053100021F584E089831B830A8382E08093E9007E
:105320008FEF9091E800815095FD06C095ED9A951C
:10533000F1F700008111F5CF8091E80085FF0DC0E5
:1053400040E050E063E070E0CE0101960E94072C3F
:105350008091E8008E778093E8000F900F900F9077
:10536000DF91CF911F910F910895CF93DF9300D0DC
:105370001F92CDB7DEB720918203243031F523E0B0
:105380002983805891099B838A8382E08093E90076
:105390008FEF9091E800815095FD06C095ED9A95AC
:1053A000F1F700008111F5CF8091E80085FF0DC075
:1053B00040E050E063E070E0CE0101960E94072CCF
:1053C0008091E8008E778093E8000F900F900F9007
:1053D000DF91CF910895CF93DF93EC010E94EA2BE8
:1053E000823011F08430F9F482E08093E9009FEF7D
:1053F0008091E800915085FD06C085ED8A95F1F712
:1054000000009111F5CF8091E80085FF0CC040E0CD
:1054100050E066E070E0CE010E94072C8091E80029
:105420008E778093E800DF91CF910895CF93DF933B
:10543000EC010E94EA2B823011F08430D9F5809182
:105440002901882339F080917C0387FF03C060E243
:1054500082E002C068E081E08093E9008FEF9091E4
:10546000E800815095FD06C095ED9A95F1F7000092
:105470008111F5CF8091E80085FF1CC08091290142
:10548000811105C040E050E068E070E003C070E0CA
:1054900040E050E0CE010E94072C8091E8008E771A
:1054A0008093E80080E2FE01A9E0B3E001900D9254
:1054B0008A95E1F7DF91CF91089580918103811161
:1054C00009C00E949C2D0E94F92D8091E200846009
:1054D0008093E2000895109281030895089508953D
:1054E0000C94732442E061EC81E00E94162D42E2AC
:1054F00061EC82E00C94162D80918403833009F4D2
:1055000060C030F4813071F0823009F499C00895A0
:105510008A3009F485C08B3009F46BC0893009F0FA
:10552000A7C020C080918303813A09F0A1C0809177
:10553000E800877F8093E80080918703909188033B
:10554000892B21F460E289E093E003C060E080E011
:1055500090E070E00E94522C8091E8008B7780935D
:10556000E800089580918303813209F081C0809121
:10557000870390918803029708F07AC08091E80031
:10558000877F8093E8008091E80082FD05C08091CC
:1055900082038111F8CF6CC02091F3008091F2005A
:1055A00090E0922B029729F48091F1008B7F81305B
:1055B00021F48091F100809329038091E8008B779A
:1055C00053C080918303813A09F052C080918703D0
:1055D00090918803892B09F04BC08091E800877F68
:1055E0008093E8008091E80080FFFCCF8091290142
:1055F00036C0809183038132D9F5809187039091E1
:105600008803892BA9F58091E800877F8093E800C3
:105610000E944B2D80918503809329010C947C1C62
:1056200080918303813221F58091E800877F809308
:10563000E8000E944B2D8091860380932A030895F1
:1056400080918303813AA1F48091E800877F809361
:10565000E8008091E80080FFFCCF80912A038093CE
:10566000F1008091E8008E778093E8000C944B2D38
:10567000089584B7877F84BF0FB6F894A89580916A
:105680006000886180936000109260000FBE80E827
:1056900080936100109261000E9482160E949C2DEE
:1056A0000E94F92D8091E20084608093E20078945A
:1056B0000E9488300E948A168FE191E00E940F16A6
:1056C00080918203853069F40E941A2480918003BE
:1056D0008823B1F30E945C24882391F30E94F12B6C
:1056E000EFCF0E9494160E944B13EACF0C94782BB4
:1056F000292F332723303105C9F064F421303105D7
:1057000081F02230310509F04CC08BE390E021EDAF
:1057100035E04BC02132310521F12232310589F1CA
:1057200040C082E190E02CE036E03FC09927813014
:10573000910571F02CF4892BA1F5EDECF5E00DC08D
:105740008230910541F0039761F5E7E9F5E005C086
:10575000E5EBF5E002C0EDE9F5E0849190E09F0112
:1057600024C06115710541F061307105D1F489E003
:1057700090E02CEF35E019C089E090E023EE35E0B1
:1057800014C06115710541F06130710551F480EC70
:1057900090E02EE136E009C080E490E02EED36E0A6
:1057A00004C080E090E020E030E0FA013183208303
:1057B00008950895CF93C82F0E94D92BC0932B032F
:1057C000CF91089580918203843011F081E0089593
:1057D00082E0089580912B03811102C00C94E22B8A
:1057E000089580E189BD82E189BD09B400FEFDCF45
:1057F0008091D8008F7D8093D8008091E0008260F6
:105800008093E0008091E00081FDFCCF0895CF926D
:10581000DF92EF92FF920F931F93CF93DF93EC01F0
:105820008B016A010E946A2D811133C0C114D10419
:1058300039F0F60180819181081B190BC80FD91F1F
:10584000E12CF12C0115110519F18091E80085FD7D
:1058500016C08091E8008E778093E800C114D104CF
:1058600049F0F60180819181E80EF91EF182E08213
:1058700085E00FC00E946A2D882321F30AC0899118
:105880008093F10001501109FFEFEF1AFF0ADACF00
:1058900080E0DF91CF911F910F91FF90EF90DF900B
:1058A000CF9008952091890330918A0326173707F6
:1058B00048F06115710539F42091E8002E772093A6
:1058C000E80001C0B90140E061157105A9F120911E
:1058D0008203222309F443C0253009F442C02091F9
:1058E000E80023FD40C02091E80022FD32C0209155
:1058F000E80020FFE9CF4091F3002091F20030E072
:10590000342BFC01CF016115710559F028303105A8
:1059100040F481918093F100615071092F5F3F4FF6
:10592000F1CF41E02830310509F040E02091E80056
:105930002E772093E800C8CF4111C9CF0AC08091CB
:105940008203882361F0853061F08091E80083FD57
:105950000AC08091E80082FFF2CF80E0089582E0E3
:10596000089583E0089581E008952091890330919E
:105970008A032617370748F06115710539F420911D
:10598000E8002E772093E80001C0B901FC0120E077
:105990006115710591F180918203882309F440C05B
:1059A000853009F43FC08091E80083FD3DC08091BF
:1059B000E80082FD2FC08091E80080FFE9CF2091B0
:1059C000F3008091F20090E0922B6115710559F07F
:1059D0008830910540F424912093F1003196615074
:1059E00071090196F2CF21E0089709F020E080913B
:1059F000E8008E778093E800CBCF2111CCCF0AC08E
:105A000080918203882361F0853061F08091E80005
:105A100083FD0AC08091E80082FFF2CF80E0089504
:105A200082E0089583E0089581E00895982F9730EB
:105A300058F59093E900981739F07091EC00209197
:105A4000ED005091F00003C0242F762F50E021FF8D
:105A500019C03091EB003E7F3093EB003091ED00A8
:105A60003D7F3093ED003091EB0031603093EB00DF
:105A70007093EC002093ED005093F0002091EE0025
:105A800027FF07C09F5FD3CF8F708093E90081E02D
:105A9000089580E008958091830387FF11C080916D
:105AA000E80082FD05C0809182038111F8CF11C00A
:105AB0008091E8008B770BC080918203882349F0A6
:105AC0008091E80080FFF8CF8091E8008E77809386
:105AD000E80008952091E4003091E50095E64091BA
